{
  "contractName": "HelperPancakeSwapROUTER",
  "abi": [
    {
      "inputs": [
        {
          "internalType": "uint256",
          "name": "amountIn",
          "type": "uint256"
        },
        {
          "internalType": "uint256",
          "name": "amountOutMin",
          "type": "uint256"
        },
        {
          "internalType": "address[]",
          "name": "path",
          "type": "address[]"
        },
        {
          "internalType": "address",
          "name": "to",
          "type": "address"
        },
        {
          "internalType": "uint256",
          "name": "deadline",
          "type": "uint256"
        }
      ],
      "name": "swapExactTokensForTokens",
      "outputs": [
        {
          "internalType": "uint256[]",
          "name": "amounts",
          "type": "uint256[]"
        }
      ],
      "stateMutability": "nonpayable",
      "type": "function"
    },
    {
      "inputs": [
        {
          "internalType": "uint256",
          "name": "amountIn",
          "type": "uint256"
        },
        {
          "internalType": "uint256",
          "name": "amountOutMin",
          "type": "uint256"
        },
        {
          "internalType": "address[]",
          "name": "path",
          "type": "address[]"
        },
        {
          "internalType": "address",
          "name": "to",
          "type": "address"
        },
        {
          "internalType": "uint256",
          "name": "deadline",
          "type": "uint256"
        }
      ],
      "name": "swapExactTokensForTokensSupportingFeeOnTransferTokens",
      "outputs": [],
      "stateMutability": "nonpayable",
      "type": "function"
    }
  ],
  "bytecode": "0x608060405234801561001057600080fd5b5061034e806100206000396000f3fe608060405234801561001057600080fd5b50600436106100365760003560e01c806338ed17391461003b5780635c11d7951461006b575b600080fd5b6100556004803603810190610050919061019e565b610087565b60405161006291906102f6565b60405180910390f35b6100856004803603810190610080919061019e565b610093565b005b60609695505050505050565b505050505050565b600080fd5b600080fd5b6000819050919050565b6100b8816100a5565b81146100c357600080fd5b50565b6000813590506100d5816100af565b92915050565b600080fd5b600080fd5b600080fd5b60008083601f840112610100576100ff6100db565b5b8235905067ffffffffffffffff81111561011d5761011c6100e0565b5b602083019150836020820283011115610139576101386100e5565b5b9250929050565b600073ffffffffffffffffffffffffffffffffffffffff82169050919050565b600061016b82610140565b9050919050565b61017b81610160565b811461018657600080fd5b50565b60008135905061019881610172565b92915050565b60008060008060008060a087890312156101bb576101ba61009b565b5b60006101c989828a016100c6565b96505060206101da89828a016100c6565b955050604087013567ffffffffffffffff8111156101fb576101fa6100a0565b5b61020789828a016100ea565b9450945050606061021a89828a01610189565b925050608061022b89828a016100c6565b9150509295509295509295565b600081519050919050565b600082825260208201905092915050565b6000819050602082019050919050565b61026d816100a5565b82525050565b600061027f8383610264565b60208301905092915050565b6000602082019050919050565b60006102a382610238565b6102ad8185610243565b93506102b883610254565b8060005b838110156102e95781516102d08882610273565b97506102db8361028b565b9250506001810190506102bc565b5085935050505092915050565b600060208201905081810360008301526103108184610298565b90509291505056fea2646970667358221220f694aa872993fb6a6d5ef7a271c7073dbed279216357639a9ef586431d64714964736f6c63430008110033",
  "immutableReferences": {},
  "source": "// SPDX-License-Identifier: MIT\r\npragma solidity ^0.8.0;\r\n\r\ncontract HelperPancakeSwapROUTER {\r\n    // No implementation, just the function signature. This is just so Solidity can work out how to call it.\r\n    \r\n    /*\r\n    * @notice   Swaps an exact amount of input tokens for as many output tokens as possible, \r\n    *           along the route determined by the path. The first element of path is the input token, \r\n    *           the last is the output token, and any intermediate elements represent intermediate pairs\r\n    *           to trade through (if, for example, a direct pair does not exist).\r\n    *           ``msg.sender`` should have already given the router an allowance of at least amountIn on the input token.\r\n    * @param    amountIn    The amount of input tokens to send.\r\n    * @param    amountOutMin    The minimum amount of output tokens that must be received for the transaction not to revert.\r\n    * @param    path    An array of token addresses. ``path.length`` must be >= 2. Pools for each consecutive pair of addresses must exist and have liquidity.\r\n    * @param    to      Recipient of the output tokens.\r\n    * @param    deadline    \tUnix timestamp after which the transaction will revert.\r\n    * @return    amounts    \tThe input token amount and all subsequent output token amounts.\r\n    */\r\n    function swapExactTokensForTokens(\r\n        uint amountIn,\r\n        uint amountOutMin,\r\n        address[] calldata path,\r\n        address to,\r\n        uint deadline\r\n    ) external returns (uint[] memory amounts) {}\r\n    \r\n\r\n    /*\r\n    * @notice   Same as \r\n    *           Succeeds for tokens that take a fee on transfer.* and the market's available liquidity.\r\n    *           ``msg.sender`` should have already given the router an allowance of at least amountIn on the input token.\r\n    * @param    redeemAmount The amount of underlying to be redeemed.\r\n    * @return   status 0 on success, otherwise an Error code\r\n    */\r\n    function swapExactTokensForTokensSupportingFeeOnTransferTokens(\r\n        uint amountIn,\r\n        uint amountOutMin,\r\n        address[] calldata path,\r\n        address to,\r\n        uint deadline\r\n    ) external {}\r\n    \r\n}",
  "sourcePath": "D:\\CSDN\\github\\SmartBet\\contracts\\HelperPancakeSwapROUTER.sol",
  "compiler": {
    "name": "solc",
    "version": "0.8.17+commit.8df45f5f.Emscripten.clang"
  },
  "schemaVersion": "3.4.6",
  "updatedAt": "2022-11-07T11:18:52.693Z",
  "devdoc": {
    "kind": "dev",
    "methods": {},
    "version": 1
  },
  "userdoc": {
    "kind": "user",
    "methods": {},
    "version": 1
  }
}