{
  "contractName": "MetaBetNFT721",
  "abi": [
    {
      "inputs": [],
      "stateMutability": "nonpayable",
      "type": "constructor"
    },
    {
      "anonymous": false,
      "inputs": [
        {
          "indexed": true,
          "internalType": "address",
          "name": "owner",
          "type": "address"
        },
        {
          "indexed": true,
          "internalType": "address",
          "name": "approved",
          "type": "address"
        },
        {
          "indexed": true,
          "internalType": "uint256",
          "name": "tokenId",
          "type": "uint256"
        }
      ],
      "name": "Approval",
      "type": "event"
    },
    {
      "anonymous": false,
      "inputs": [
        {
          "indexed": true,
          "internalType": "address",
          "name": "owner",
          "type": "address"
        },
        {
          "indexed": true,
          "internalType": "address",
          "name": "operator",
          "type": "address"
        },
        {
          "indexed": false,
          "internalType": "bool",
          "name": "approved",
          "type": "bool"
        }
      ],
      "name": "ApprovalForAll",
      "type": "event"
    },
    {
      "anonymous": false,
      "inputs": [
        {
          "indexed": true,
          "internalType": "address",
          "name": "by",
          "type": "address"
        },
        {
          "indexed": true,
          "internalType": "uint256",
          "name": "matchId",
          "type": "uint256"
        },
        {
          "indexed": false,
          "internalType": "uint256",
          "name": "amount",
          "type": "uint256"
        },
        {
          "indexed": false,
          "internalType": "uint256",
          "name": "liquidatedAt",
          "type": "uint256"
        },
        {
          "indexed": false,
          "internalType": "enum MetaBetNFT721Domain.AssetType",
          "name": "assetType",
          "type": "uint8"
        },
        {
          "indexed": false,
          "internalType": "address",
          "name": "payToken",
          "type": "address"
        }
      ],
      "name": "AssetLiquidatedEvent",
      "type": "event"
    },
    {
      "anonymous": false,
      "inputs": [
        {
          "indexed": true,
          "internalType": "address",
          "name": "bettor",
          "type": "address"
        },
        {
          "indexed": true,
          "internalType": "uint256",
          "name": "matchId",
          "type": "uint256"
        },
        {
          "indexed": false,
          "internalType": "uint256",
          "name": "amount",
          "type": "uint256"
        },
        {
          "indexed": true,
          "internalType": "uint256",
          "name": "betPlacedAt",
          "type": "uint256"
        },
        {
          "indexed": false,
          "internalType": "enum MetaBetNFT721Domain.AssetType",
          "name": "assetType",
          "type": "uint8"
        },
        {
          "indexed": false,
          "internalType": "address",
          "name": "payToken",
          "type": "address"
        }
      ],
      "name": "BetPlacedEvent",
      "type": "event"
    },
    {
      "anonymous": false,
      "inputs": [
        {
          "indexed": true,
          "internalType": "address",
          "name": "by",
          "type": "address"
        },
        {
          "indexed": true,
          "internalType": "uint256",
          "name": "matchId",
          "type": "uint256"
        },
        {
          "indexed": false,
          "internalType": "uint256",
          "name": "closedAt",
          "type": "uint256"
        }
      ],
      "name": "MatchClosedEvent",
      "type": "event"
    },
    {
      "anonymous": false,
      "inputs": [
        {
          "indexed": false,
          "internalType": "address",
          "name": "creator",
          "type": "address"
        },
        {
          "indexed": true,
          "internalType": "uint256",
          "name": "matchId",
          "type": "uint256"
        },
        {
          "indexed": true,
          "internalType": "uint256",
          "name": "apiMatchId",
          "type": "uint256"
        },
        {
          "indexed": true,
          "internalType": "uint256",
          "name": "createdOn",
          "type": "uint256"
        },
        {
          "components": [
            {
              "internalType": "uint32",
              "name": "oddsTeamA",
              "type": "uint32"
            },
            {
              "internalType": "uint32",
              "name": "oddsTeamB",
              "type": "uint32"
            },
            {
              "internalType": "uint32",
              "name": "oddsDraw",
              "type": "uint32"
            },
            {
              "internalType": "uint256",
              "name": "startAt",
              "type": "uint256"
            },
            {
              "internalType": "enum MetaBetNFT721Domain.AssetType",
              "name": "assetType",
              "type": "uint8"
            },
            {
              "internalType": "address",
              "name": "payToken",
              "type": "address"
            },
            {
              "internalType": "uint256",
              "name": "initOddsTeamA",
              "type": "uint256"
            },
            {
              "internalType": "uint256",
              "name": "initOddsTeamB",
              "type": "uint256"
            },
            {
              "internalType": "uint256",
              "name": "initOddsDraw",
              "type": "uint256"
            }
          ],
          "indexed": false,
          "internalType": "struct MetaBetNFT721Domain.MatchInfo",
          "name": "info",
          "type": "tuple"
        }
      ],
      "name": "MatchCreatedEvent",
      "type": "event"
    },
    {
      "anonymous": false,
      "inputs": [
        {
          "indexed": true,
          "internalType": "uint256",
          "name": "matchId",
          "type": "uint256"
        },
        {
          "indexed": false,
          "internalType": "enum MetaBetNFT721Domain.MatchResult",
          "name": "result",
          "type": "uint8"
        },
        {
          "indexed": false,
          "internalType": "uint256",
          "name": "setAt",
          "type": "uint256"
        }
      ],
      "name": "MatchResultSetEvent",
      "type": "event"
    },
    {
      "anonymous": false,
      "inputs": [
        {
          "indexed": true,
          "internalType": "address",
          "name": "awardee",
          "type": "address"
        },
        {
          "indexed": true,
          "internalType": "uint256",
          "name": "matchId",
          "type": "uint256"
        },
        {
          "indexed": false,
          "internalType": "uint256",
          "name": "smartAssetId",
          "type": "uint256"
        },
        {
          "indexed": false,
          "internalType": "uint256",
          "name": "awardedAt",
          "type": "uint256"
        },
        {
          "indexed": false,
          "internalType": "enum MetaBetNFT721Domain.AssetType",
          "name": "assetType",
          "type": "uint8"
        },
        {
          "indexed": false,
          "internalType": "address",
          "name": "payToken",
          "type": "address"
        }
      ],
      "name": "SmartAssetAwardedEvent",
      "type": "event"
    },
    {
      "anonymous": false,
      "inputs": [
        {
          "indexed": true,
          "internalType": "address",
          "name": "from",
          "type": "address"
        },
        {
          "indexed": true,
          "internalType": "address",
          "name": "to",
          "type": "address"
        },
        {
          "indexed": true,
          "internalType": "uint256",
          "name": "tokenId",
          "type": "uint256"
        }
      ],
      "name": "Transfer",
      "type": "event"
    },
    {
      "inputs": [
        {
          "internalType": "address",
          "name": "to",
          "type": "address"
        },
        {
          "internalType": "uint256",
          "name": "tokenId",
          "type": "uint256"
        }
      ],
      "name": "approve",
      "outputs": [],
      "stateMutability": "nonpayable",
      "type": "function"
    },
    {
      "inputs": [
        {
          "internalType": "address",
          "name": "owner",
          "type": "address"
        }
      ],
      "name": "balanceOf",
      "outputs": [
        {
          "internalType": "uint256",
          "name": "",
          "type": "uint256"
        }
      ],
      "stateMutability": "view",
      "type": "function"
    },
    {
      "inputs": [
        {
          "internalType": "uint256",
          "name": "tokenId",
          "type": "uint256"
        }
      ],
      "name": "getApproved",
      "outputs": [
        {
          "internalType": "address",
          "name": "",
          "type": "address"
        }
      ],
      "stateMutability": "view",
      "type": "function"
    },
    {
      "inputs": [
        {
          "internalType": "address",
          "name": "owner",
          "type": "address"
        },
        {
          "internalType": "address",
          "name": "operator",
          "type": "address"
        }
      ],
      "name": "isApprovedForAll",
      "outputs": [
        {
          "internalType": "bool",
          "name": "",
          "type": "bool"
        }
      ],
      "stateMutability": "view",
      "type": "function"
    },
    {
      "inputs": [],
      "name": "name",
      "outputs": [
        {
          "internalType": "string",
          "name": "",
          "type": "string"
        }
      ],
      "stateMutability": "view",
      "type": "function"
    },
    {
      "inputs": [
        {
          "internalType": "uint256",
          "name": "tokenId",
          "type": "uint256"
        }
      ],
      "name": "ownerOf",
      "outputs": [
        {
          "internalType": "address",
          "name": "",
          "type": "address"
        }
      ],
      "stateMutability": "view",
      "type": "function"
    },
    {
      "inputs": [
        {
          "internalType": "address",
          "name": "from",
          "type": "address"
        },
        {
          "internalType": "address",
          "name": "to",
          "type": "address"
        },
        {
          "internalType": "uint256",
          "name": "tokenId",
          "type": "uint256"
        }
      ],
      "name": "safeTransferFrom",
      "outputs": [],
      "stateMutability": "nonpayable",
      "type": "function"
    },
    {
      "inputs": [
        {
          "internalType": "address",
          "name": "from",
          "type": "address"
        },
        {
          "internalType": "address",
          "name": "to",
          "type": "address"
        },
        {
          "internalType": "uint256",
          "name": "tokenId",
          "type": "uint256"
        },
        {
          "internalType": "bytes",
          "name": "data",
          "type": "bytes"
        }
      ],
      "name": "safeTransferFrom",
      "outputs": [],
      "stateMutability": "nonpayable",
      "type": "function"
    },
    {
      "inputs": [
        {
          "internalType": "address",
          "name": "operator",
          "type": "address"
        },
        {
          "internalType": "bool",
          "name": "approved",
          "type": "bool"
        }
      ],
      "name": "setApprovalForAll",
      "outputs": [],
      "stateMutability": "nonpayable",
      "type": "function"
    },
    {
      "inputs": [
        {
          "internalType": "bytes4",
          "name": "interfaceId",
          "type": "bytes4"
        }
      ],
      "name": "supportsInterface",
      "outputs": [
        {
          "internalType": "bool",
          "name": "",
          "type": "bool"
        }
      ],
      "stateMutability": "view",
      "type": "function"
    },
    {
      "inputs": [],
      "name": "symbol",
      "outputs": [
        {
          "internalType": "string",
          "name": "",
          "type": "string"
        }
      ],
      "stateMutability": "view",
      "type": "function"
    },
    {
      "inputs": [
        {
          "internalType": "uint256",
          "name": "tokenId",
          "type": "uint256"
        }
      ],
      "name": "tokenURI",
      "outputs": [
        {
          "internalType": "string",
          "name": "",
          "type": "string"
        }
      ],
      "stateMutability": "view",
      "type": "function"
    },
    {
      "inputs": [
        {
          "internalType": "address",
          "name": "from",
          "type": "address"
        },
        {
          "internalType": "address",
          "name": "to",
          "type": "address"
        },
        {
          "internalType": "uint256",
          "name": "tokenId",
          "type": "uint256"
        }
      ],
      "name": "transferFrom",
      "outputs": [],
      "stateMutability": "nonpayable",
      "type": "function"
    },
    {
      "stateMutability": "payable",
      "type": "receive"
    },
    {
      "inputs": [
        {
          "internalType": "uint256",
          "name": "_apiMatchId",
          "type": "uint256"
        },
        {
          "internalType": "string",
          "name": "_matchResultLink",
          "type": "string"
        },
        {
          "components": [
            {
              "internalType": "uint32",
              "name": "oddsTeamA",
              "type": "uint32"
            },
            {
              "internalType": "uint32",
              "name": "oddsTeamB",
              "type": "uint32"
            },
            {
              "internalType": "uint32",
              "name": "oddsDraw",
              "type": "uint32"
            },
            {
              "internalType": "uint256",
              "name": "startAt",
              "type": "uint256"
            },
            {
              "internalType": "enum MetaBetNFT721Domain.AssetType",
              "name": "assetType",
              "type": "uint8"
            },
            {
              "internalType": "address",
              "name": "payToken",
              "type": "address"
            },
            {
              "internalType": "uint256",
              "name": "initOddsTeamA",
              "type": "uint256"
            },
            {
              "internalType": "uint256",
              "name": "initOddsTeamB",
              "type": "uint256"
            },
            {
              "internalType": "uint256",
              "name": "initOddsDraw",
              "type": "uint256"
            }
          ],
          "internalType": "struct MetaBetNFT721Domain.MatchInfo",
          "name": "_matchInfo",
          "type": "tuple"
        }
      ],
      "name": "createMatch",
      "outputs": [
        {
          "internalType": "uint256",
          "name": "",
          "type": "uint256"
        }
      ],
      "stateMutability": "payable",
      "type": "function"
    },
    {
      "inputs": [
        {
          "internalType": "uint256",
          "name": "_matchId",
          "type": "uint256"
        },
        {
          "internalType": "uint8",
          "name": "_resultBetOn",
          "type": "uint8"
        },
        {
          "components": [
            {
              "internalType": "enum MetaBetNFT721Domain.AssetType",
              "name": "assetType",
              "type": "uint8"
            },
            {
              "internalType": "address",
              "name": "payToken",
              "type": "address"
            },
            {
              "internalType": "uint256",
              "name": "payValue",
              "type": "uint256"
            }
          ],
          "internalType": "struct MetaBetNFT721Domain.PayAsset",
          "name": "_payAsset",
          "type": "tuple"
        }
      ],
      "name": "placeBet",
      "outputs": [
        {
          "internalType": "uint256",
          "name": "",
          "type": "uint256"
        }
      ],
      "stateMutability": "payable",
      "type": "function"
    },
    {
      "inputs": [
        {
          "internalType": "uint256",
          "name": "_matchId",
          "type": "uint256"
        }
      ],
      "name": "startMatch",
      "outputs": [],
      "stateMutability": "nonpayable",
      "type": "function"
    },
    {
      "inputs": [
        {
          "internalType": "uint256",
          "name": "_matchId",
          "type": "uint256"
        },
        {
          "internalType": "uint8",
          "name": "_matchResult",
          "type": "uint8"
        }
      ],
      "name": "closeMatch",
      "outputs": [],
      "stateMutability": "nonpayable",
      "type": "function"
    },
    {
      "inputs": [
        {
          "internalType": "uint256",
          "name": "_smartAssetId",
          "type": "uint256"
        }
      ],
      "name": "liquidateAsset",
      "outputs": [
        {
          "internalType": "bool",
          "name": "",
          "type": "bool"
        }
      ],
      "stateMutability": "payable",
      "type": "function"
    },
    {
      "inputs": [],
      "name": "toggleCircuitBreaker",
      "outputs": [],
      "stateMutability": "nonpayable",
      "type": "function"
    },
    {
      "inputs": [
        {
          "internalType": "uint256",
          "name": "_matchId",
          "type": "uint256"
        }
      ],
      "name": "getMatch",
      "outputs": [
        {
          "components": [
            {
              "internalType": "address",
              "name": "creator",
              "type": "address"
            },
            {
              "internalType": "string",
              "name": "matchResultLink",
              "type": "string"
            },
            {
              "internalType": "uint256",
              "name": "totalPayoutTeamA",
              "type": "uint256"
            },
            {
              "internalType": "uint256",
              "name": "totalPayoutTeamB",
              "type": "uint256"
            },
            {
              "internalType": "uint256",
              "name": "totalPayoutDraw",
              "type": "uint256"
            },
            {
              "internalType": "uint256",
              "name": "totalCollected",
              "type": "uint256"
            },
            {
              "internalType": "enum MetaBetNFT721Domain.MatchResult",
              "name": "result",
              "type": "uint8"
            },
            {
              "internalType": "enum MetaBetNFT721Domain.MatchState",
              "name": "state",
              "type": "uint8"
            },
            {
              "internalType": "bool",
              "name": "exists",
              "type": "bool"
            },
            {
              "components": [
                {
                  "internalType": "uint32",
                  "name": "oddsTeamA",
                  "type": "uint32"
                },
                {
                  "internalType": "uint32",
                  "name": "oddsTeamB",
                  "type": "uint32"
                },
                {
                  "internalType": "uint32",
                  "name": "oddsDraw",
                  "type": "uint32"
                },
                {
                  "internalType": "uint256",
                  "name": "startAt",
                  "type": "uint256"
                },
                {
                  "internalType": "enum MetaBetNFT721Domain.AssetType",
                  "name": "assetType",
                  "type": "uint8"
                },
                {
                  "internalType": "address",
                  "name": "payToken",
                  "type": "address"
                },
                {
                  "internalType": "uint256",
                  "name": "initOddsTeamA",
                  "type": "uint256"
                },
                {
                  "internalType": "uint256",
                  "name": "initOddsTeamB",
                  "type": "uint256"
                },
                {
                  "internalType": "uint256",
                  "name": "initOddsDraw",
                  "type": "uint256"
                }
              ],
              "internalType": "struct MetaBetNFT721Domain.MatchInfo",
              "name": "matchInfo",
              "type": "tuple"
            }
          ],
          "internalType": "struct MetaBetNFT721Domain.Match",
          "name": "match_",
          "type": "tuple"
        }
      ],
      "stateMutability": "view",
      "type": "function"
    },
    {
      "inputs": [
        {
          "internalType": "uint256",
          "name": "_smartAssetId",
          "type": "uint256"
        }
      ],
      "name": "getSmartAsset",
      "outputs": [
        {
          "components": [
            {
              "internalType": "address",
              "name": "owner",
              "type": "address"
            },
            {
              "internalType": "uint256",
              "name": "matchId",
              "type": "uint256"
            },
            {
              "internalType": "enum MetaBetNFT721Domain.MatchResult",
              "name": "matchResult",
              "type": "uint8"
            },
            {
              "internalType": "uint256",
              "name": "initialValue",
              "type": "uint256"
            },
            {
              "internalType": "uint8",
              "name": "accruedInterest",
              "type": "uint8"
            },
            {
              "internalType": "enum MetaBetNFT721Domain.AssetType",
              "name": "assetType",
              "type": "uint8"
            },
            {
              "internalType": "address",
              "name": "payToken",
              "type": "address"
            }
          ],
          "internalType": "struct MetaBetNFT721Domain.SmartAsset",
          "name": "asset",
          "type": "tuple"
        }
      ],
      "stateMutability": "view",
      "type": "function"
    },
    {
      "inputs": [],
      "name": "isAdmin",
      "outputs": [
        {
          "internalType": "bool",
          "name": "",
          "type": "bool"
        }
      ],
      "stateMutability": "view",
      "type": "function"
    },
    {
      "inputs": [
        {
          "internalType": "address",
          "name": "newOwner",
          "type": "address"
        }
      ],
      "name": "changeOwner",
      "outputs": [],
      "stateMutability": "nonpayable",
      "type": "function"
    }
  ],
  "bytecode": "0x60806040526000600960006101000a81548160ff0219169083151502179055503480156200002c57600080fd5b506040518060400160405280600781526020017f4d657461426574000000000000000000000000000000000000000000000000008152506040518060400160405280600381526020017f4d425400000000000000000000000000000000000000000000000000000000008152508160009081620000aa919062000380565b508060019081620000bc919062000380565b50505033600660006101000a81548173ffffffffffffffffffffffffffffffffffffffff021916908373ffffffffffffffffffffffffffffffffffffffff16021790555062000467565b600081519050919050565b7f4e487b7100000000000000000000000000000000000000000000000000000000600052604160045260246000fd5b7f4e487b7100000000000000000000000000000000000000000000000000000000600052602260045260246000fd5b600060028204905060018216806200018857607f821691505b6020821081036200019e576200019d62000140565b5b50919050565b60008190508160005260206000209050919050565b60006020601f8301049050919050565b600082821b905092915050565b600060088302620002087fffffffffffffffffffffffffffffffffffffffffffffffffffffffffffffffff82620001c9565b620002148683620001c9565b95508019841693508086168417925050509392505050565b6000819050919050565b6000819050919050565b6000620002616200025b62000255846200022c565b62000236565b6200022c565b9050919050565b6000819050919050565b6200027d8362000240565b620002956200028c8262000268565b848454620001d6565b825550505050565b600090565b620002ac6200029d565b620002b981848462000272565b505050565b5b81811015620002e157620002d5600082620002a2565b600181019050620002bf565b5050565b601f8211156200033057620002fa81620001a4565b6200030584620001b9565b8101602085101562000315578190505b6200032d6200032485620001b9565b830182620002be565b50505b505050565b600082821c905092915050565b6000620003556000198460080262000335565b1980831691505092915050565b600062000370838362000342565b9150826002028217905092915050565b6200038b8262000106565b67ffffffffffffffff811115620003a757620003a662000111565b5b620003b382546200016f565b620003c0828285620002e5565b600060209050601f831160018114620003f85760008415620003e3578287015190505b620003ef858262000362565b8655506200045f565b601f1984166200040886620001a4565b60005b8281101562000432578489015182556001820191506020850194506020810190506200040b565b868310156200045257848901516200044e601f89168262000342565b8355505b6001600288020188555050505b505050505050565b61673580620004776000396000f3fe6080604052600436106101445760003560e01c806370a08231116100b6578063b88d4fde1161006f578063b88d4fde14610488578063bf725a84146104b1578063c87b56dd146104da578063d2c2cc8414610517578063d5eb63cc14610554578063e985e9c51461056b5761014b565b806370a08231146103735780638ea84c58146103b057806395d89b41146103e0578063a22cb4651461040b578063a6f9dae114610434578063b6db75a01461045d5761014b565b806323b872dd1161010857806323b872dd1461024e578063309641a3146102775780633d092b3d146102a757806342842e0e146102e45780635f74667b1461030d5780636352211e146103365761014b565b806301ffc9a71461015057806306fdde031461018d578063081812fc146101b8578063095ea7b3146101f5578063159f1d3a1461021e5761014b565b3661014b57005b600080fd5b34801561015c57600080fd5b50610177600480360381019061017291906144d3565b6105a8565b604051610184919061451b565b60405180910390f35b34801561019957600080fd5b506101a261068a565b6040516101af91906145c6565b60405180910390f35b3480156101c457600080fd5b506101df60048036038101906101da919061461e565b61071c565b6040516101ec919061468c565b60405180910390f35b34801561020157600080fd5b5061021c600480360381019061021791906146d3565b610762565b005b61023860048036038101906102339190614770565b610879565b60405161024591906147d2565b60405180910390f35b34801561025a57600080fd5b50610275600480360381019061027091906147ed565b61111e565b005b610291600480360381019061028c91906148c5565b61117e565b60405161029e91906147d2565b60405180910390f35b3480156102b357600080fd5b506102ce60048036038101906102c9919061461e565b611801565b6040516102db9190614c68565b60405180910390f35b3480156102f057600080fd5b5061030b600480360381019061030691906147ed565b611b75565b005b34801561031957600080fd5b50610334600480360381019061032f9190614c8a565b611b95565b005b34801561034257600080fd5b5061035d6004803603810190610358919061461e565b6122f3565b60405161036a919061468c565b60405180910390f35b34801561037f57600080fd5b5061039a60048036038101906103959190614cca565b6123a4565b6040516103a791906147d2565b60405180910390f35b6103ca60048036038101906103c5919061461e565b61245b565b6040516103d7919061451b565b60405180910390f35b3480156103ec57600080fd5b506103f5612a31565b60405161040291906145c6565b60405180910390f35b34801561041757600080fd5b50610432600480360381019061042d9190614d23565b612ac3565b005b34801561044057600080fd5b5061045b60048036038101906104569190614cca565b612ad9565b005b34801561046957600080fd5b50610472612bad565b60405161047f919061451b565b60405180910390f35b34801561049457600080fd5b506104af60048036038101906104aa9190614e93565b612c05565b005b3480156104bd57600080fd5b506104d860048036038101906104d3919061461e565b612c67565b005b3480156104e657600080fd5b5061050160048036038101906104fc919061461e565b612e2a565b60405161050e91906145c6565b60405180910390f35b34801561052357600080fd5b5061053e6004803603810190610539919061461e565b612e92565b60405161054b9190614fb3565b60405180910390f35b34801561056057600080fd5b506105696130d4565b005b34801561057757600080fd5b50610592600480360381019061058d9190614fce565b613190565b60405161059f919061451b565b60405180910390f35b60007f80ac58cd000000000000000000000000000000000000000000000000000000007bffffffffffffffffffffffffffffffffffffffffffffffffffffffff1916827bffffffffffffffffffffffffffffffffffffffffffffffffffffffff1916148061067357507f5b5e139f000000000000000000000000000000000000000000000000000000007bffffffffffffffffffffffffffffffffffffffffffffffffffffffff1916827bffffffffffffffffffffffffffffffffffffffffffffffffffffffff1916145b80610683575061068282613224565b5b9050919050565b6060600080546106999061503d565b80601f01602080910402602001604051908101604052809291908181526020018280546106c59061503d565b80156107125780601f106106e757610100808354040283529160200191610712565b820191906000526020600020905b8154815290600101906020018083116106f557829003601f168201915b5050505050905090565b60006107278261328e565b6004600083815260200190815260200160002060009054906101000a900473ffffffffffffffffffffffffffffffffffffffff169050919050565b600061076d826122f3565b90508073ffffffffffffffffffffffffffffffffffffffff168373ffffffffffffffffffffffffffffffffffffffff16036107dd576040517f08c379a00000000000000000000000000000000000000000000000000000000081526004016107d4906150e0565b60405180910390fd5b8073ffffffffffffffffffffffffffffffffffffffff166107fc6132d9565b73ffffffffffffffffffffffffffffffffffffffff16148061082b575061082a816108256132d9565b613190565b5b61086a576040517f08c379a000000000000000000000000000000000000000000000000000000000815260040161086190615172565b60405180910390fd5b61087483836132e1565b505050565b6000600960009054906101000a900460ff16156108cb576040517f08c379a00000000000000000000000000000000000000000000000000000000081526004016108c2906151de565b60405180910390fd5b83600b600082815260200190815260200160002060060160029054906101000a900460ff1661092f576040517f08c379a00000000000000000000000000000000000000000000000000000000081526004016109269061524a565b60405180910390fd5b8460006002811115610944576109436149a2565b5b600b600083815260200190815260200160002060060160019054906101000a900460ff16600281111561097a576109796149a2565b5b146109ba576040517f08c379a00000000000000000000000000000000000000000000000000000000081526004016109b1906152b6565b60405180910390fd5b8560016109fc576040517f08c379a00000000000000000000000000000000000000000000000000000000081526004016109f390615322565b60405180910390fd5b8560026003811115610a1157610a106149a2565b5b8160ff166003811115610a2757610a266149a2565b5b6003811115610a3957610a386149a2565b5b1480610a7d5750600380811115610a5357610a526149a2565b5b8160ff166003811115610a6957610a686149a2565b5b6003811115610a7b57610a7a6149a2565b5b145b80610ac1575060016003811115610a9757610a966149a2565b5b8160ff166003811115610aad57610aac6149a2565b5b6003811115610abf57610abe6149a2565b5b145b610b00576040517f08c379a0000000000000000000000000000000000000000000000000000000008152600401610af79061538e565b60405180910390fd5b600034905060006004811115610b1957610b186149a2565b5b876000016020810190610b2c91906153d3565b6004811115610b3e57610b3d6149a2565b5b03610bce5760008103610b86576040517f08c379a0000000000000000000000000000000000000000000000000000000008152600401610b7d9061544c565b60405180910390fd5b3073ffffffffffffffffffffffffffffffffffffffff166108fc829081150290604051600060405180830381858888f19350505050158015610bcc573d6000803e3d6000fd5b505b60016004811115610be257610be16149a2565b5b876000016020810190610bf591906153d3565b6004811115610c0757610c066149a2565b5b03610ca75786604001359050866020016020810190610c269190614cca565b73ffffffffffffffffffffffffffffffffffffffff166323b872dd3330846040518463ffffffff1660e01b8152600401610c629392919061546c565b6020604051808303816000875af1158015610c81573d6000803e3d6000fd5b505050506040513d601f19601f82011682018060405250810190610ca591906154b8565b505b60006004811115610cbb57610cba6149a2565b5b876000016020810190610cce91906153d3565b6004811115610ce057610cdf6149a2565b5b14158015610d25575060016004811115610cfd57610cfc6149a2565b5b876000016020810190610d1091906153d3565b6004811115610d2257610d216149a2565b5b14155b8015610d68575060036004811115610d4057610d3f6149a2565b5b876000016020810190610d5391906153d3565b6004811115610d6557610d646149a2565b5b14155b8015610dab575060026004811115610d8357610d826149a2565b5b876000016020810190610d9691906153d3565b6004811115610da857610da76149a2565b5b14155b8015610ded5750600480811115610dc557610dc46149a2565b5b876000016020810190610dd891906153d3565b6004811115610dea57610de96149a2565b5b14155b15610dfc576000955050611113565b42600b60008b8152602001908152602001600020600701600101541015610e66576001600b60008b815260200190815260200160002060060160016101000a81548160ff02191690836002811115610e5757610e566149a2565b5b02179055506000955050611113565b60008860ff166003811115610e7e57610e7d6149a2565b5b905060026003811115610e9457610e936149a2565b5b816003811115610ea757610ea66149a2565b5b03610ef457610ed582600b60008d81526020019081526020016000206002015461339a90919063ffffffff16565b600b60008c815260200190815260200160002060020181905550610fac565b600380811115610f0757610f066149a2565b5b816003811115610f1a57610f196149a2565b5b03610f6757610f4882600b60008d81526020019081526020016000206003015461339a90919063ffffffff16565b600b60008c815260200190815260200160002060030181905550610fab565b610f9082600b60008d81526020019081526020016000206004015461339a90919063ffffffff16565b600b60008c8152602001908152602001600020600401819055505b5b610fd582600b60008d81526020019081526020016000206005015461339a90919063ffffffff16565b600b60008c815260200190815260200160002060050181905550600061102333848d858d600001602081019061100b91906153d3565b8e602001602081019061101e9190614cca565b6133b0565b9050600d60008c8152602001908152602001600020600083600381111561104d5761104c6149a2565b5b600381111561105f5761105e6149a2565b5b8152602001908152602001600020819080600181540180825580915050600190039060005260206000200160009091909190915055428b3373ffffffffffffffffffffffffffffffffffffffff167f3063f1337663805530efb9774891e31e1e560032f5004e17d9c28dfdb8064ee8868d60000160208101906110e291906153d3565b8e60200160208101906110f59190614cca565b604051611104939291906154f4565b60405180910390a48097505050505b505050509392505050565b61112f6111296132d9565b826135f7565b61116e576040517f08c379a00000000000000000000000000000000000000000000000000000000081526004016111659061559d565b60405180910390fd5b61117983838361368c565b505050565b6000846000600c600083815260200190815260200160002054146111d7576040517f08c379a00000000000000000000000000000000000000000000000000000000081526004016111ce90615609565b60405180910390fd5b600660009054906101000a900473ffffffffffffffffffffffffffffffffffffffff1673ffffffffffffffffffffffffffffffffffffffff163373ffffffffffffffffffffffffffffffffffffffff1614611267576040517f08c379a000000000000000000000000000000000000000000000000000000000815260040161125e90615675565b60405180910390fd5b600034905060008460c00135118015611284575060008460e00135115b801561129557506000846101000135115b6112d4576040517f08c379a00000000000000000000000000000000000000000000000000000000081526004016112cb90615707565b60405180910390fd5b600060048111156112e8576112e76149a2565b5b8460800160208101906112fb91906153d3565b600481111561130d5761130c6149a2565b5b0361139d5760008103611355576040517f08c379a000000000000000000000000000000000000000000000000000000000815260040161134c9061544c565b60405180910390fd5b3073ffffffffffffffffffffffffffffffffffffffff166108fc829081150290604051600060405180830381858888f1935050505015801561139b573d6000803e3d6000fd5b505b600160048111156113b1576113b06149a2565b5b8460800160208101906113c491906153d3565b60048111156113d6576113d56149a2565b5b03611495578361010001358460e001358560c001356113f59190615756565b6113ff9190615756565b90508360a00160208101906114149190614cca565b73ffffffffffffffffffffffffffffffffffffffff166323b872dd3330846040518463ffffffff1660e01b81526004016114509392919061546c565b6020604051808303816000875af115801561146f573d6000803e3d6000fd5b505050506040513d601f19601f8201168201806040525081019061149391906154b8565b505b61149f60076138f2565b60006114ab6007613908565b90506040518061014001604052803373ffffffffffffffffffffffffffffffffffffffff16815260200188888080601f016020809104026020016040519081016040528093929190818152602001838380828437600081840152601f19601f8201169050808301925050505050505081526020018660c0013581526020018660e001358152602001866101000135815260200183815260200160006003811115611558576115576149a2565b5b815260200160006002811115611571576115706149a2565b5b815260200160011515815260200186803603810190611590919061589b565b815250600b600083815260200190815260200160002060008201518160000160006101000a81548173ffffffffffffffffffffffffffffffffffffffff021916908373ffffffffffffffffffffffffffffffffffffffff16021790555060208201518160010190816116029190615a75565b5060408201518160020155606082015181600301556080820151816004015560a0820151816005015560c08201518160060160006101000a81548160ff02191690836003811115611656576116556149a2565b5b021790555060e08201518160060160016101000a81548160ff02191690836002811115611686576116856149a2565b5b02179055506101008201518160060160026101000a81548160ff0219169083151502179055506101208201518160070160008201518160000160006101000a81548163ffffffff021916908363ffffffff16021790555060208201518160000160046101000a81548163ffffffff021916908363ffffffff16021790555060408201518160000160086101000a81548163ffffffff021916908363ffffffff1602179055506060820151816001015560808201518160020160006101000a81548160ff021916908360048111156117605761175f6149a2565b5b021790555060a08201518160020160016101000a81548173ffffffffffffffffffffffffffffffffffffffff021916908373ffffffffffffffffffffffffffffffffffffffff16021790555060c0820151816003015560e082015181600401556101008201518160050155505090505080600c60008a8152602001908152602001600020819055506117f3818987613916565b809350505050949350505050565b6118096142bc565b81600b600082815260200190815260200160002060060160029054906101000a900460ff1661186d576040517f08c379a00000000000000000000000000000000000000000000000000000000081526004016118649061524a565b60405180910390fd5b600b6000848152602001908152602001600020604051806101400160405290816000820160009054906101000a900473ffffffffffffffffffffffffffffffffffffffff1673ffffffffffffffffffffffffffffffffffffffff1673ffffffffffffffffffffffffffffffffffffffff1681526020016001820180546118f29061503d565b80601f016020809104026020016040519081016040528092919081815260200182805461191e9061503d565b801561196b5780601f106119405761010080835404028352916020019161196b565b820191906000526020600020905b81548152906001019060200180831161194e57829003601f168201915b50505050508152602001600282015481526020016003820154815260200160048201548152602001600582015481526020016006820160009054906101000a900460ff1660038111156119c1576119c06149a2565b5b60038111156119d3576119d26149a2565b5b81526020016006820160019054906101000a900460ff1660028111156119fc576119fb6149a2565b5b6002811115611a0e57611a0d6149a2565b5b81526020016006820160029054906101000a900460ff1615151515815260200160078201604051806101200160405290816000820160009054906101000a900463ffffffff1663ffffffff1663ffffffff1681526020016000820160049054906101000a900463ffffffff1663ffffffff1663ffffffff1681526020016000820160089054906101000a900463ffffffff1663ffffffff1663ffffffff168152602001600182015481526020016002820160009054906101000a900460ff166004811115611adf57611ade6149a2565b5b6004811115611af157611af06149a2565b5b81526020016002820160019054906101000a900473ffffffffffffffffffffffffffffffffffffffff1673ffffffffffffffffffffffffffffffffffffffff1673ffffffffffffffffffffffffffffffffffffffff168152602001600382015481526020016004820154815260200160058201548152505081525050915050919050565b611b9083838360405180602001604052806000815250612c05565b505050565b600660009054906101000a900473ffffffffffffffffffffffffffffffffffffffff1673ffffffffffffffffffffffffffffffffffffffff163373ffffffffffffffffffffffffffffffffffffffff1614611c25576040517f08c379a0000000000000000000000000000000000000000000000000000000008152600401611c1c90615675565b60405180910390fd5b81600b600082815260200190815260200160002060060160029054906101000a900460ff16611c89576040517f08c379a0000000000000000000000000000000000000000000000000000000008152600401611c809061524a565b60405180910390fd5b8260016002811115611c9e57611c9d6149a2565b5b600b600083815260200190815260200160002060060160019054906101000a900460ff166002811115611cd457611cd36149a2565b5b14611d14576040517f08c379a0000000000000000000000000000000000000000000000000000000008152600401611d0b90615b93565b60405180910390fd5b8260026003811115611d2957611d286149a2565b5b8160ff166003811115611d3f57611d3e6149a2565b5b6003811115611d5157611d506149a2565b5b1480611d955750600380811115611d6b57611d6a6149a2565b5b8160ff166003811115611d8157611d806149a2565b5b6003811115611d9357611d926149a2565b5b145b80611dd9575060016003811115611daf57611dae6149a2565b5b8160ff166003811115611dc557611dc46149a2565b5b6003811115611dd757611dd66149a2565b5b145b611e18576040517f08c379a0000000000000000000000000000000000000000000000000000000008152600401611e0f9061538e565b60405180910390fd5b6002600b600087815260200190815260200160002060060160016101000a81548160ff02191690836002811115611e5257611e516149a2565b5b021790555060008460ff166003811115611e6f57611e6e6149a2565b5b9050611e7b8682613976565b60026003811115611e8f57611e8e6149a2565b5b816003811115611ea257611ea16149a2565b5b03611feb57611f46600d60008881526020019081526020016000206000600380811115611ed257611ed16149a2565b5b6003811115611ee457611ee36149a2565b5b8152602001908152602001600020805480602002602001604051908101604052809291908181526020018280548015611f3c57602002820191906000526020600020905b815481526020019060010190808311611f28575b5050505050613a15565b611fe6600d6000888152602001908152602001600020600060016003811115611f7257611f716149a2565b5b6003811115611f8457611f836149a2565b5b8152602001908152602001600020805480602002602001604051908101604052809291908181526020018280548015611fdc57602002820191906000526020600020905b815481526020019060010190808311611fc8575b5050505050613a15565b61229c565b600380811115611ffe57611ffd6149a2565b5b816003811115612011576120106149a2565b5b0361215b576120b6600d6000888152602001908152602001600020600060026003811115612042576120416149a2565b5b6003811115612054576120536149a2565b5b81526020019081526020016000208054806020026020016040519081016040528092919081815260200182805480156120ac57602002820191906000526020600020905b815481526020019060010190808311612098575b5050505050613a15565b612156600d60008881526020019081526020016000206000600160038111156120e2576120e16149a2565b5b60038111156120f4576120f36149a2565b5b815260200190815260200160002080548060200260200160405190810160405280929190818152602001828054801561214c57602002820191906000526020600020905b815481526020019060010190808311612138575b5050505050613a15565b61229b565b6121fb600d6000888152602001908152602001600020600060026003811115612187576121866149a2565b5b6003811115612199576121986149a2565b5b81526020019081526020016000208054806020026020016040519081016040528092919081815260200182805480156121f157602002820191906000526020600020905b8154815260200190600101908083116121dd575b5050505050613a15565b61229a600d60008881526020019081526020016000206000600380811115612226576122256149a2565b5b6003811115612238576122376149a2565b5b815260200190815260200160002080548060200260200160405190810160405280929190818152602001828054801561229057602002820191906000526020600020905b81548152602001906001019080831161227c575b5050505050613a15565b5b5b853373ffffffffffffffffffffffffffffffffffffffff167fd29dba8c386c3bc42bf8ec778a1dfa55ec92d4ec2799213b01d4d627487d97bb426040516122e391906147d2565b60405180910390a3505050505050565b6000806002600084815260200190815260200160002060009054906101000a900473ffffffffffffffffffffffffffffffffffffffff169050600073ffffffffffffffffffffffffffffffffffffffff168173ffffffffffffffffffffffffffffffffffffffff160361239b576040517f08c379a000000000000000000000000000000000000000000000000000000000815260040161239290615bff565b60405180910390fd5b80915050919050565b60008073ffffffffffffffffffffffffffffffffffffffff168273ffffffffffffffffffffffffffffffffffffffff1603612414576040517f08c379a000000000000000000000000000000000000000000000000000000000815260040161240b90615c91565b60405180910390fd5b600360008373ffffffffffffffffffffffffffffffffffffffff1673ffffffffffffffffffffffffffffffffffffffff168152602001908152602001600020549050919050565b6000600960009054906101000a900460ff16156124ad576040517f08c379a00000000000000000000000000000000000000000000000000000000081526004016124a4906151de565b60405180910390fd5b816124b781613a5b565b6124f6576040517f08c379a00000000000000000000000000000000000000000000000000000000081526004016124ed90615cfd565b60405180910390fd5b823373ffffffffffffffffffffffffffffffffffffffff16612517826122f3565b73ffffffffffffffffffffffffffffffffffffffff161461256d576040517f08c379a000000000000000000000000000000000000000000000000000000000815260040161256490615d69565b60405180910390fd5b6000600a60008681526020019081526020016000206040518060e00160405290816000820160009054906101000a900473ffffffffffffffffffffffffffffffffffffffff1673ffffffffffffffffffffffffffffffffffffffff1673ffffffffffffffffffffffffffffffffffffffff168152602001600182015481526020016002820160009054906101000a900460ff166003811115612612576126116149a2565b5b6003811115612624576126236149a2565b5b8152602001600382015481526020016004820160009054906101000a900460ff1660ff1660ff1681526020016004820160019054906101000a900460ff166004811115612674576126736149a2565b5b6004811115612686576126856149a2565b5b81526020016004820160029054906101000a900473ffffffffffffffffffffffffffffffffffffffff1673ffffffffffffffffffffffffffffffffffffffff1673ffffffffffffffffffffffffffffffffffffffff168152505090506002808111156126f5576126f46149a2565b5b600b60008360200151815260200190815260200160002060060160019054906101000a900460ff16600281111561272f5761272e6149a2565b5b1461276f576040517f08c379a000000000000000000000000000000000000000000000000000000000815260040161276690615dfb565b60405180910390fd5b60006004811115612783576127826149a2565b5b8160a00151600481111561279a576127996149a2565b5b0361283b5780606001514710156127e6576040517f08c379a00000000000000000000000000000000000000000000000000000000081526004016127dd90615e67565b60405180910390fd5b6127ef85613ac7565b3373ffffffffffffffffffffffffffffffffffffffff166108fc82606001519081150290604051600060405180830381858888f19350505050158015612839573d6000803e3d6000fd5b505b6001600481111561284f5761284e6149a2565b5b8160a001516004811115612866576128656149a2565b5b036129c05780606001518160c0015173ffffffffffffffffffffffffffffffffffffffff166370a08231306040518263ffffffff1660e01b81526004016128ad919061468c565b602060405180830381865afa1580156128ca573d6000803e3d6000fd5b505050506040513d601f19601f820116820180604052508101906128ee9190615e9c565b101561292f576040517f08c379a000000000000000000000000000000000000000000000000000000000815260040161292690615f3b565b60405180910390fd5b61293885613ac7565b8060c0015173ffffffffffffffffffffffffffffffffffffffff1663a9059cbb3383606001516040518363ffffffff1660e01b815260040161297b929190615f5b565b6020604051808303816000875af115801561299a573d6000803e3d6000fd5b505050506040513d601f19601f820116820180604052508101906129be91906154b8565b505b80602001513373ffffffffffffffffffffffffffffffffffffffff167f54313f2a251bd9d670327a53fc611f9a06ad019cb3aa8841a2281600afdcbcea8360600151428560a001518660c00151604051612a1d9493929190615f84565b60405180910390a360019350505050919050565b606060018054612a409061503d565b80601f0160208091040260200160405190810160405280929190818152602001828054612a6c9061503d565b8015612ab95780601f10612a8e57610100808354040283529160200191612ab9565b820191906000526020600020905b815481529060010190602001808311612a9c57829003601f168201915b5050505050905090565b612ad5612ace6132d9565b8383613ad3565b5050565b600660009054906101000a900473ffffffffffffffffffffffffffffffffffffffff1673ffffffffffffffffffffffffffffffffffffffff163373ffffffffffffffffffffffffffffffffffffffff1614612b69576040517f08c379a0000000000000000000000000000000000000000000000000000000008152600401612b6090615675565b60405180910390fd5b80600660006101000a81548173ffffffffffffffffffffffffffffffffffffffff021916908373ffffffffffffffffffffffffffffffffffffffff16021790555050565b6000600660009054906101000a900473ffffffffffffffffffffffffffffffffffffffff1673ffffffffffffffffffffffffffffffffffffffff163373ffffffffffffffffffffffffffffffffffffffff1614905090565b612c16612c106132d9565b836135f7565b612c55576040517f08c379a0000000000000000000000000000000000000000000000000000000008152600401612c4c9061559d565b60405180910390fd5b612c6184848484613c3f565b50505050565b600660009054906101000a900473ffffffffffffffffffffffffffffffffffffffff1673ffffffffffffffffffffffffffffffffffffffff163373ffffffffffffffffffffffffffffffffffffffff1614612cf7576040517f08c379a0000000000000000000000000000000000000000000000000000000008152600401612cee90615675565b60405180910390fd5b80600b600082815260200190815260200160002060060160029054906101000a900460ff16612d5b576040517f08c379a0000000000000000000000000000000000000000000000000000000008152600401612d529061524a565b60405180910390fd5b8160006002811115612d7057612d6f6149a2565b5b600b600083815260200190815260200160002060060160019054906101000a900460ff166002811115612da657612da56149a2565b5b14612de6576040517f08c379a0000000000000000000000000000000000000000000000000000000008152600401612ddd906152b6565b60405180910390fd5b6001600b600085815260200190815260200160002060060160016101000a81548160ff02191690836002811115612e2057612e1f6149a2565b5b0217905550505050565b6060612e358261328e565b6000612e3f613c9b565b90506000815111612e5f5760405180602001604052806000815250612e8a565b80612e6984613cb2565b604051602001612e7a929190616005565b6040516020818303038152906040525b915050919050565b612e9a614351565b81612ea481613a5b565b612ee3576040517f08c379a0000000000000000000000000000000000000000000000000000000008152600401612eda90615cfd565b60405180910390fd5b823373ffffffffffffffffffffffffffffffffffffffff16612f04826122f3565b73ffffffffffffffffffffffffffffffffffffffff1614612f5a576040517f08c379a0000000000000000000000000000000000000000000000000000000008152600401612f5190615d69565b60405180910390fd5b600a60008581526020019081526020016000206040518060e00160405290816000820160009054906101000a900473ffffffffffffffffffffffffffffffffffffffff1673ffffffffffffffffffffffffffffffffffffffff1673ffffffffffffffffffffffffffffffffffffffff168152602001600182015481526020016002820160009054906101000a900460ff166003811115612ffd57612ffc6149a2565b5b600381111561300f5761300e6149a2565b5b8152602001600382015481526020016004820160009054906101000a900460ff1660ff1660ff1681526020016004820160019054906101000a900460ff16600481111561305f5761305e6149a2565b5b6004811115613071576130706149a2565b5b81526020016004820160029054906101000a900473ffffffffffffffffffffffffffffffffffffffff1673ffffffffffffffffffffffffffffffffffffffff1673ffffffffffffffffffffffffffffffffffffffff168152505092505050919050565b600660009054906101000a900473ffffffffffffffffffffffffffffffffffffffff1673ffffffffffffffffffffffffffffffffffffffff163373ffffffffffffffffffffffffffffffffffffffff1614613164576040517f08c379a000000000000000000000000000000000000000000000000000000000815260040161315b90615675565b60405180910390fd5b600960009054906101000a900460ff1615600960006101000a81548160ff021916908315150217905550565b6000600560008473ffffffffffffffffffffffffffffffffffffffff1673ffffffffffffffffffffffffffffffffffffffff16815260200190815260200160002060008373ffffffffffffffffffffffffffffffffffffffff1673ffffffffffffffffffffffffffffffffffffffff16815260200190815260200160002060009054906101000a900460ff16905092915050565b60007f01ffc9a7000000000000000000000000000000000000000000000000000000007bffffffffffffffffffffffffffffffffffffffffffffffffffffffff1916827bffffffffffffffffffffffffffffffffffffffffffffffffffffffff1916149050919050565b61329781613a5b565b6132d6576040517f08c379a00000000000000000000000000000000000000000000000000000000081526004016132cd90615bff565b60405180910390fd5b50565b600033905090565b816004600083815260200190815260200160002060006101000a81548173ffffffffffffffffffffffffffffffffffffffff021916908373ffffffffffffffffffffffffffffffffffffffff160217905550808273ffffffffffffffffffffffffffffffffffffffff16613354836122f3565b73ffffffffffffffffffffffffffffffffffffffff167f8c5be1e5ebec7d5bd14f71427d1e84f3dd0314c0f7b2291e5b200ac8c7c3b92560405160405180910390a45050565b600081836133a89190615756565b905092915050565b60006133bc60086138f2565b60006133c86008613908565b90506133d48882613e12565b6040518060e001604052803373ffffffffffffffffffffffffffffffffffffffff168152602001878152602001866003811115613414576134136149a2565b5b8152602001888152602001600060ff16815260200185600481111561343c5761343b6149a2565b5b81526020018473ffffffffffffffffffffffffffffffffffffffff16815250600a600083815260200190815260200160002060008201518160000160006101000a81548173ffffffffffffffffffffffffffffffffffffffff021916908373ffffffffffffffffffffffffffffffffffffffff1602179055506020820151816001015560408201518160020160006101000a81548160ff021916908360038111156134ea576134e96149a2565b5b02179055506060820151816003015560808201518160040160006101000a81548160ff021916908360ff16021790555060a08201518160040160016101000a81548160ff02191690836004811115613545576135446149a2565b5b021790555060c08201518160040160026101000a81548173ffffffffffffffffffffffffffffffffffffffff021916908373ffffffffffffffffffffffffffffffffffffffff160217905550905050858873ffffffffffffffffffffffffffffffffffffffff167fa40be32ac2de8d21ea0b35d5739ad4055122c39b0c655ead6f4447663f134c52834288886040516135e19493929190615f84565b60405180910390a3809150509695505050505050565b600080613603836122f3565b90508073ffffffffffffffffffffffffffffffffffffffff168473ffffffffffffffffffffffffffffffffffffffff16148061364557506136448185613190565b5b8061368357508373ffffffffffffffffffffffffffffffffffffffff1661366b8461071c565b73ffffffffffffffffffffffffffffffffffffffff16145b91505092915050565b8273ffffffffffffffffffffffffffffffffffffffff166136ac826122f3565b73ffffffffffffffffffffffffffffffffffffffff1614613702576040517f08c379a00000000000000000000000000000000000000000000000000000000081526004016136f99061609b565b60405180910390fd5b600073ffffffffffffffffffffffffffffffffffffffff168273ffffffffffffffffffffffffffffffffffffffff1603613771576040517f08c379a00000000000000000000000000000000000000000000000000000000081526004016137689061612d565b60405180910390fd5b61377c838383613feb565b6137876000826132e1565b6001600360008573ffffffffffffffffffffffffffffffffffffffff1673ffffffffffffffffffffffffffffffffffffffff16815260200190815260200160002060008282546137d7919061614d565b925050819055506001600360008473ffffffffffffffffffffffffffffffffffffffff1673ffffffffffffffffffffffffffffffffffffffff168152602001908152602001600020600082825461382e9190615756565b92505081905550816002600083815260200190815260200160002060006101000a81548173ffffffffffffffffffffffffffffffffffffffff021916908373ffffffffffffffffffffffffffffffffffffffff160217905550808273ffffffffffffffffffffffffffffffffffffffff168473ffffffffffffffffffffffffffffffffffffffff167fddf252ad1be2c89b69c2b068fc378daa952ba7f163c4a11628f55a4df523b3ef60405160405180910390a46138ed838383613ff0565b505050565b6001816000016000828254019250508190555050565b600081600001549050919050565b6000620151804261392791906161b0565b42613932919061614d565b90508083857f6a085995a4ee1fc5f6abc51b622b3b20594f159f757d2f9f53ba58fbc29c4886338660405161396892919061633c565b60405180910390a450505050565b80600b600084815260200190815260200160002060060160006101000a81548160ff021916908360038111156139af576139ae6149a2565b5b0217905550817f82ab24714d54369c755574228baf8bf3da9c1170142baa4a09b52257853c6dae600b600085815260200190815260200160002060060160009054906101000a900460ff1642604051613a09929190616375565b60405180910390a25050565b60005b8151811015613a5757613a44828281518110613a3757613a3661639e565b5b6020026020010151613ac7565b8080613a4f906163cd565b915050613a18565b5050565b60008073ffffffffffffffffffffffffffffffffffffffff166002600084815260200190815260200160002060009054906101000a900473ffffffffffffffffffffffffffffffffffffffff1673ffffffffffffffffffffffffffffffffffffffff1614159050919050565b613ad081613ff5565b50565b8173ffffffffffffffffffffffffffffffffffffffff168373ffffffffffffffffffffffffffffffffffffffff1603613b41576040517f08c379a0000000000000000000000000000000000000000000000000000000008152600401613b3890616461565b60405180910390fd5b80600560008573ffffffffffffffffffffffffffffffffffffffff1673ffffffffffffffffffffffffffffffffffffffff16815260200190815260200160002060008473ffffffffffffffffffffffffffffffffffffffff1673ffffffffffffffffffffffffffffffffffffffff16815260200190815260200160002060006101000a81548160ff0219169083151502179055508173ffffffffffffffffffffffffffffffffffffffff168373ffffffffffffffffffffffffffffffffffffffff167f17307eab39ab6107e8899845ad3d59bd9653f200f220920489ca2b5937696c3183604051613c32919061451b565b60405180910390a3505050565b613c4a84848461368c565b613c5684848484614112565b613c95576040517f08c379a0000000000000000000000000000000000000000000000000000000008152600401613c8c906164f3565b60405180910390fd5b50505050565b606060405180602001604052806000815250905090565b606060008203613cf9576040518060400160405280600181526020017f30000000000000000000000000000000000000000000000000000000000000008152509050613e0d565b600082905060005b60008214613d2b578080613d14906163cd565b915050600a82613d249190616513565b9150613d01565b60008167ffffffffffffffff811115613d4757613d46614d68565b5b6040519080825280601f01601f191660200182016040528015613d795781602001600182028036833780820191505090505b5090505b60008514613e0657600182613d92919061614d565b9150600a85613da191906161b0565b6030613dad9190615756565b60f81b818381518110613dc357613dc261639e565b5b60200101907effffffffffffffffffffffffffffffffffffffffffffffffffffffffffffff1916908160001a905350600a85613dff9190616513565b9450613d7d565b8093505050505b919050565b600073ffffffffffffffffffffffffffffffffffffffff168273ffffffffffffffffffffffffffffffffffffffff1603613e81576040517f08c379a0000000000000000000000000000000000000000000000000000000008152600401613e7890616590565b60405180910390fd5b613e8a81613a5b565b15613eca576040517f08c379a0000000000000000000000000000000000000000000000000000000008152600401613ec1906165fc565b60405180910390fd5b613ed660008383613feb565b6001600360008473ffffffffffffffffffffffffffffffffffffffff1673ffffffffffffffffffffffffffffffffffffffff1681526020019081526020016000206000828254613f269190615756565b92505081905550816002600083815260200190815260200160002060006101000a81548173ffffffffffffffffffffffffffffffffffffffff021916908373ffffffffffffffffffffffffffffffffffffffff160217905550808273ffffffffffffffffffffffffffffffffffffffff16600073ffffffffffffffffffffffffffffffffffffffff167fddf252ad1be2c89b69c2b068fc378daa952ba7f163c4a11628f55a4df523b3ef60405160405180910390a4613fe760008383613ff0565b5050565b505050565b505050565b6000614000826122f3565b905061400e81600084613feb565b6140196000836132e1565b6001600360008373ffffffffffffffffffffffffffffffffffffffff1673ffffffffffffffffffffffffffffffffffffffff1681526020019081526020016000206000828254614069919061614d565b925050819055506002600083815260200190815260200160002060006101000a81549073ffffffffffffffffffffffffffffffffffffffff021916905581600073ffffffffffffffffffffffffffffffffffffffff168273ffffffffffffffffffffffffffffffffffffffff167fddf252ad1be2c89b69c2b068fc378daa952ba7f163c4a11628f55a4df523b3ef60405160405180910390a461410e81600084613ff0565b5050565b60006141338473ffffffffffffffffffffffffffffffffffffffff16614299565b1561428c578373ffffffffffffffffffffffffffffffffffffffff1663150b7a0261415c6132d9565b8786866040518563ffffffff1660e01b815260040161417e9493929190616671565b6020604051808303816000875af19250505080156141ba57506040513d601f19601f820116820180604052508101906141b791906166d2565b60015b61423c573d80600081146141ea576040519150601f19603f3d011682016040523d82523d6000602084013e6141ef565b606091505b506000815103614234576040517f08c379a000000000000000000000000000000000000000000000000000000000815260040161422b906164f3565b60405180910390fd5b805181602001fd5b63150b7a0260e01b7bffffffffffffffffffffffffffffffffffffffffffffffffffffffff1916817bffffffffffffffffffffffffffffffffffffffffffffffffffffffff191614915050614291565b600190505b949350505050565b6000808273ffffffffffffffffffffffffffffffffffffffff163b119050919050565b604051806101400160405280600073ffffffffffffffffffffffffffffffffffffffff16815260200160608152602001600081526020016000815260200160008152602001600081526020016000600381111561431c5761431b6149a2565b5b815260200160006002811115614335576143346149a2565b5b815260200160001515815260200161434b6143e1565b81525090565b6040518060e00160405280600073ffffffffffffffffffffffffffffffffffffffff1681526020016000815260200160006003811115614394576143936149a2565b5b815260200160008152602001600060ff168152602001600060048111156143be576143bd6149a2565b5b8152602001600073ffffffffffffffffffffffffffffffffffffffff1681525090565b604051806101200160405280600063ffffffff168152602001600063ffffffff168152602001600063ffffffff168152602001600081526020016000600481111561442f5761442e6149a2565b5b8152602001600073ffffffffffffffffffffffffffffffffffffffff1681526020016000815260200160008152602001600081525090565b6000604051905090565b600080fd5b600080fd5b60007fffffffff0000000000000000000000000000000000000000000000000000000082169050919050565b6144b08161447b565b81146144bb57600080fd5b50565b6000813590506144cd816144a7565b92915050565b6000602082840312156144e9576144e8614471565b5b60006144f7848285016144be565b91505092915050565b60008115159050919050565b61451581614500565b82525050565b6000602082019050614530600083018461450c565b92915050565b600081519050919050565b600082825260208201905092915050565b60005b83811015614570578082015181840152602081019050614555565b60008484015250505050565b6000601f19601f8301169050919050565b600061459882614536565b6145a28185614541565b93506145b2818560208601614552565b6145bb8161457c565b840191505092915050565b600060208201905081810360008301526145e0818461458d565b905092915050565b6000819050919050565b6145fb816145e8565b811461460657600080fd5b50565b600081359050614618816145f2565b92915050565b60006020828403121561463457614633614471565b5b600061464284828501614609565b91505092915050565b600073ffffffffffffffffffffffffffffffffffffffff82169050919050565b60006146768261464b565b9050919050565b6146868161466b565b82525050565b60006020820190506146a1600083018461467d565b92915050565b6146b08161466b565b81146146bb57600080fd5b50565b6000813590506146cd816146a7565b92915050565b600080604083850312156146ea576146e9614471565b5b60006146f8858286016146be565b925050602061470985828601614609565b9150509250929050565b600060ff82169050919050565b61472981614713565b811461473457600080fd5b50565b60008135905061474681614720565b92915050565b600080fd5b6000606082840312156147675761476661474c565b5b81905092915050565b600080600060a0848603121561478957614788614471565b5b600061479786828701614609565b93505060206147a886828701614737565b92505060406147b986828701614751565b9150509250925092565b6147cc816145e8565b82525050565b60006020820190506147e760008301846147c3565b92915050565b60008060006060848603121561480657614805614471565b5b6000614814868287016146be565b9350506020614825868287016146be565b925050604061483686828701614609565b9150509250925092565b600080fd5b600080fd5b600080fd5b60008083601f84011261486557614864614840565b5b8235905067ffffffffffffffff81111561488257614881614845565b5b60208301915083600182028301111561489e5761489d61484a565b5b9250929050565b600061012082840312156148bc576148bb61474c565b5b81905092915050565b60008060008061016085870312156148e0576148df614471565b5b60006148ee87828801614609565b945050602085013567ffffffffffffffff81111561490f5761490e614476565b5b61491b8782880161484f565b9350935050604061492e878288016148a5565b91505092959194509250565b6149438161466b565b82525050565b600082825260208201905092915050565b600061496582614536565b61496f8185614949565b935061497f818560208601614552565b6149888161457c565b840191505092915050565b61499c816145e8565b82525050565b7f4e487b7100000000000000000000000000000000000000000000000000000000600052602160045260246000fd5b600481106149e2576149e16149a2565b5b50565b60008190506149f3826149d1565b919050565b6000614a03826149e5565b9050919050565b614a13816149f8565b82525050565b60038110614a2a57614a296149a2565b5b50565b6000819050614a3b82614a19565b919050565b6000614a4b82614a2d565b9050919050565b614a5b81614a40565b82525050565b614a6a81614500565b82525050565b600063ffffffff82169050919050565b614a8981614a70565b82525050565b60058110614aa057614a9f6149a2565b5b50565b6000819050614ab182614a8f565b919050565b6000614ac182614aa3565b9050919050565b614ad181614ab6565b82525050565b61012082016000820151614aee6000850182614a80565b506020820151614b016020850182614a80565b506040820151614b146040850182614a80565b506060820151614b276060850182614993565b506080820151614b3a6080850182614ac8565b5060a0820151614b4d60a085018261493a565b5060c0820151614b6060c0850182614993565b5060e0820151614b7360e0850182614993565b50610100820151614b88610100850182614993565b50505050565b600061024083016000830151614ba7600086018261493a565b5060208301518482036020860152614bbf828261495a565b9150506040830151614bd46040860182614993565b506060830151614be76060860182614993565b506080830151614bfa6080860182614993565b5060a0830151614c0d60a0860182614993565b5060c0830151614c2060c0860182614a0a565b5060e0830151614c3360e0860182614a52565b50610100830151614c48610100860182614a61565b50610120830151614c5d610120860182614ad7565b508091505092915050565b60006020820190508181036000830152614c828184614b8e565b905092915050565b60008060408385031215614ca157614ca0614471565b5b6000614caf85828601614609565b9250506020614cc085828601614737565b9150509250929050565b600060208284031215614ce057614cdf614471565b5b6000614cee848285016146be565b91505092915050565b614d0081614500565b8114614d0b57600080fd5b50565b600081359050614d1d81614cf7565b92915050565b60008060408385031215614d3a57614d39614471565b5b6000614d48858286016146be565b9250506020614d5985828601614d0e565b9150509250929050565b600080fd5b7f4e487b7100000000000000000000000000000000000000000000000000000000600052604160045260246000fd5b614da08261457c565b810181811067ffffffffffffffff82111715614dbf57614dbe614d68565b5b80604052505050565b6000614dd2614467565b9050614dde8282614d97565b919050565b600067ffffffffffffffff821115614dfe57614dfd614d68565b5b614e078261457c565b9050602081019050919050565b82818337600083830152505050565b6000614e36614e3184614de3565b614dc8565b905082815260208101848484011115614e5257614e51614d63565b5b614e5d848285614e14565b509392505050565b600082601f830112614e7a57614e79614840565b5b8135614e8a848260208601614e23565b91505092915050565b60008060008060808587031215614ead57614eac614471565b5b6000614ebb878288016146be565b9450506020614ecc878288016146be565b9350506040614edd87828801614609565b925050606085013567ffffffffffffffff811115614efe57614efd614476565b5b614f0a87828801614e65565b91505092959194509250565b614f1f81614713565b82525050565b60e082016000820151614f3b600085018261493a565b506020820151614f4e6020850182614993565b506040820151614f616040850182614a0a565b506060820151614f746060850182614993565b506080820151614f876080850182614f16565b5060a0820151614f9a60a0850182614ac8565b5060c0820151614fad60c085018261493a565b50505050565b600060e082019050614fc86000830184614f25565b92915050565b60008060408385031215614fe557614fe4614471565b5b6000614ff3858286016146be565b9250506020615004858286016146be565b9150509250929050565b7f4e487b7100000000000000000000000000000000000000000000000000000000600052602260045260246000fd5b6000600282049050600182168061505557607f821691505b6020821081036150685761506761500e565b5b50919050565b7f4552433732313a20617070726f76616c20746f2063757272656e74206f776e6560008201527f7200000000000000000000000000000000000000000000000000000000000000602082015250565b60006150ca602183614541565b91506150d58261506e565b604082019050919050565b600060208201905081810360008301526150f9816150bd565b9050919050565b7f4552433732313a20617070726f76652063616c6c6572206973206e6f7420746f60008201527f6b656e206f776e6572206e6f7220617070726f76656420666f7220616c6c0000602082015250565b600061515c603e83614541565b915061516782615100565b604082019050919050565b6000602082019050818103600083015261518b8161514f565b9050919050565b7f4369726375697420627265616b6572206973206f6e0000000000000000000000600082015250565b60006151c8601583614541565b91506151d382615192565b602082019050919050565b600060208201905081810360008301526151f7816151bb565b9050919050565b7f6f6e20636861696e206d6174636820646f6573206e6f74206578697374000000600082015250565b6000615234601d83614541565b915061523f826151fe565b602082019050919050565b6000602082019050818103600083015261526381615227565b9050919050565b7f6d61746368207374617274656400000000000000000000000000000000000000600082015250565b60006152a0600d83614541565b91506152ab8261526a565b602082019050919050565b600060208201905081810360008301526152cf81615293565b9050919050565b7f426574206973206e6f7420616c6c6f7765640000000000000000000000000000600082015250565b600061530c601283614541565b9150615317826152d6565b602082019050919050565b6000602082019050818103600083015261533b816152ff565b9050919050565b7f496e76616c6964206d6174636820726573756c74000000000000000000000000600082015250565b6000615378601483614541565b915061538382615342565b602082019050919050565b600060208201905081810360008301526153a78161536b565b9050919050565b600581106153bb57600080fd5b50565b6000813590506153cd816153ae565b92915050565b6000602082840312156153e9576153e8614471565b5b60006153f7848285016153be565b91505092915050565b7f496e76616c696420616d6f756e74206265740000000000000000000000000000600082015250565b6000615436601283614541565b915061544182615400565b602082019050919050565b6000602082019050818103600083015261546581615429565b9050919050565b6000606082019050615481600083018661467d565b61548e602083018561467d565b61549b60408301846147c3565b949350505050565b6000815190506154b281614cf7565b92915050565b6000602082840312156154ce576154cd614471565b5b60006154dc848285016154a3565b91505092915050565b6154ee81614ab6565b82525050565b600060608201905061550960008301866147c3565b61551660208301856154e5565b615523604083018461467d565b949350505050565b7f4552433732313a2063616c6c6572206973206e6f7420746f6b656e206f776e6560008201527f72206e6f7220617070726f766564000000000000000000000000000000000000602082015250565b6000615587602e83614541565b91506155928261552b565b604082019050919050565b600060208201905081810360008301526155b68161557a565b9050919050565b7f617069206d617463682049442065786973747300000000000000000000000000600082015250565b60006155f3601383614541565b91506155fe826155bd565b602082019050919050565b60006020820190508181036000830152615622816155e6565b9050919050565b7f63616c6c6572206973206e6f74206f776e657200000000000000000000000000600082015250565b600061565f601383614541565b915061566a82615629565b602082019050919050565b6000602082019050818103600083015261568e81615652565b9050919050565b7f496e76616c6964204f646473205b5465616d41206f72205465616d42206f722060008201527f447261775d000000000000000000000000000000000000000000000000000000602082015250565b60006156f1602583614541565b91506156fc82615695565b604082019050919050565b60006020820190508181036000830152615720816156e4565b9050919050565b7f4e487b7100000000000000000000000000000000000000000000000000000000600052601160045260246000fd5b6000615761826145e8565b915061576c836145e8565b925082820190508082111561578457615783615727565b5b92915050565b600080fd5b61579881614a70565b81146157a357600080fd5b50565b6000813590506157b58161578f565b92915050565b600061012082840312156157d2576157d161578a565b5b6157dd610120614dc8565b905060006157ed848285016157a6565b6000830152506020615801848285016157a6565b6020830152506040615815848285016157a6565b604083015250606061582984828501614609565b606083015250608061583d848285016153be565b60808301525060a0615851848285016146be565b60a08301525060c061586584828501614609565b60c08301525060e061587984828501614609565b60e08301525061010061588e84828501614609565b6101008301525092915050565b600061012082840312156158b2576158b1614471565b5b60006158c0848285016157bb565b91505092915050565b60008190508160005260206000209050919050565b60006020601f8301049050919050565b600082821b905092915050565b60006008830261592b7fffffffffffffffffffffffffffffffffffffffffffffffffffffffffffffffff826158ee565b61593586836158ee565b95508019841693508086168417925050509392505050565b6000819050919050565b600061597261596d615968846145e8565b61594d565b6145e8565b9050919050565b6000819050919050565b61598c83615957565b6159a061599882615979565b8484546158fb565b825550505050565b600090565b6159b56159a8565b6159c0818484615983565b505050565b5b818110156159e4576159d96000826159ad565b6001810190506159c6565b5050565b601f821115615a29576159fa816158c9565b615a03846158de565b81016020851015615a12578190505b615a26615a1e856158de565b8301826159c5565b50505b505050565b600082821c905092915050565b6000615a4c60001984600802615a2e565b1980831691505092915050565b6000615a658383615a3b565b9150826002028217905092915050565b615a7e82614536565b67ffffffffffffffff811115615a9757615a96614d68565b5b615aa1825461503d565b615aac8282856159e8565b600060209050601f831160018114615adf5760008415615acd578287015190505b615ad78582615a59565b865550615b3f565b601f198416615aed866158c9565b60005b82811015615b1557848901518255600182019150602085019450602081019050615af0565b86831015615b325784890151615b2e601f891682615a3b565b8355505b6001600288020188555050505b505050505050565b7f6d61746368206e6f742073746172746564000000000000000000000000000000600082015250565b6000615b7d601183614541565b9150615b8882615b47565b602082019050919050565b60006020820190508181036000830152615bac81615b70565b9050919050565b7f4552433732313a20696e76616c696420746f6b656e2049440000000000000000600082015250565b6000615be9601883614541565b9150615bf482615bb3565b602082019050919050565b60006020820190508181036000830152615c1881615bdc565b9050919050565b7f4552433732313a2061646472657373207a65726f206973206e6f74206120766160008201527f6c6964206f776e65720000000000000000000000000000000000000000000000602082015250565b6000615c7b602983614541565b9150615c8682615c1f565b604082019050919050565b60006020820190508181036000830152615caa81615c6e565b9050919050565b7f496e76616c696420746f6b656e00000000000000000000000000000000000000600082015250565b6000615ce7600d83614541565b9150615cf282615cb1565b602082019050919050565b60006020820190508181036000830152615d1681615cda565b9050919050565b7f63616c6c6572206973206e6f7420746f6b656e206f776e657200000000000000600082015250565b6000615d53601983614541565b9150615d5e82615d1d565b602082019050919050565b60006020820190508181036000830152615d8281615d46565b9050919050565b7f43616e6e6f74206c697175696461746520617373657420756e74696c206d617460008201527f63682069732066696e6973686564000000000000000000000000000000000000602082015250565b6000615de5602e83614541565b9150615df082615d89565b604082019050919050565b60006020820190508181036000830152615e1481615dd8565b9050919050565b7f436f6e74726163742068617320696e73756666696369656e742066756e647300600082015250565b6000615e51601f83614541565b9150615e5c82615e1b565b602082019050919050565b60006020820190508181036000830152615e8081615e44565b9050919050565b600081519050615e96816145f2565b92915050565b600060208284031215615eb257615eb1614471565b5b6000615ec084828501615e87565b91505092915050565b7f436f6e74726163742068617320546f6b656e20696e73756666696369656e742060008201527f66756e6473000000000000000000000000000000000000000000000000000000602082015250565b6000615f25602583614541565b9150615f3082615ec9565b604082019050919050565b60006020820190508181036000830152615f5481615f18565b9050919050565b6000604082019050615f70600083018561467d565b615f7d60208301846147c3565b9392505050565b6000608082019050615f9960008301876147c3565b615fa660208301866147c3565b615fb360408301856154e5565b615fc0606083018461467d565b95945050505050565b600081905092915050565b6000615fdf82614536565b615fe98185615fc9565b9350615ff9818560208601614552565b80840191505092915050565b60006160118285615fd4565b915061601d8284615fd4565b91508190509392505050565b7f4552433732313a207472616e736665722066726f6d20696e636f72726563742060008201527f6f776e6572000000000000000000000000000000000000000000000000000000602082015250565b6000616085602583614541565b915061609082616029565b604082019050919050565b600060208201905081810360008301526160b481616078565b9050919050565b7f4552433732313a207472616e7366657220746f20746865207a65726f2061646460008201527f7265737300000000000000000000000000000000000000000000000000000000602082015250565b6000616117602483614541565b9150616122826160bb565b604082019050919050565b600060208201905081810360008301526161468161610a565b9050919050565b6000616158826145e8565b9150616163836145e8565b925082820390508181111561617b5761617a615727565b5b92915050565b7f4e487b7100000000000000000000000000000000000000000000000000000000600052601260045260246000fd5b60006161bb826145e8565b91506161c6836145e8565b9250826161d6576161d5616181565b5b828206905092915050565b60006161f060208401846157a6565b905092915050565b60006162076020840184614609565b905092915050565b600061621e60208401846153be565b905092915050565b600061623560208401846146be565b905092915050565b610120820161624f60008301836161e1565b61625c6000850182614a80565b5061626a60208301836161e1565b6162776020850182614a80565b5061628560408301836161e1565b6162926040850182614a80565b506162a060608301836161f8565b6162ad6060850182614993565b506162bb608083018361620f565b6162c86080850182614ac8565b506162d660a0830183616226565b6162e360a085018261493a565b506162f160c08301836161f8565b6162fe60c0850182614993565b5061630c60e08301836161f8565b61631960e0850182614993565b506163286101008301836161f8565b616336610100850182614993565b50505050565b600061014082019050616352600083018561467d565b61635f602083018461623d565b9392505050565b61636f816149f8565b82525050565b600060408201905061638a6000830185616366565b61639760208301846147c3565b9392505050565b7f4e487b7100000000000000000000000000000000000000000000000000000000600052603260045260246000fd5b60006163d8826145e8565b91507fffffffffffffffffffffffffffffffffffffffffffffffffffffffffffffffff820361640a57616409615727565b5b600182019050919050565b7f4552433732313a20617070726f766520746f2063616c6c657200000000000000600082015250565b600061644b601983614541565b915061645682616415565b602082019050919050565b6000602082019050818103600083015261647a8161643e565b9050919050565b7f4552433732313a207472616e7366657220746f206e6f6e20455243373231526560008201527f63656976657220696d706c656d656e7465720000000000000000000000000000602082015250565b60006164dd603283614541565b91506164e882616481565b604082019050919050565b6000602082019050818103600083015261650c816164d0565b9050919050565b600061651e826145e8565b9150616529836145e8565b92508261653957616538616181565b5b828204905092915050565b7f4552433732313a206d696e7420746f20746865207a65726f2061646472657373600082015250565b600061657a602083614541565b915061658582616544565b602082019050919050565b600060208201905081810360008301526165a98161656d565b9050919050565b7f4552433732313a20746f6b656e20616c7265616479206d696e74656400000000600082015250565b60006165e6601c83614541565b91506165f1826165b0565b602082019050919050565b60006020820190508181036000830152616615816165d9565b9050919050565b600081519050919050565b600082825260208201905092915050565b60006166438261661c565b61664d8185616627565b935061665d818560208601614552565b6166668161457c565b840191505092915050565b6000608082019050616686600083018761467d565b616693602083018661467d565b6166a060408301856147c3565b81810360608301526166b28184616638565b905095945050505050565b6000815190506166cc816144a7565b92915050565b6000602082840312156166e8576166e7614471565b5b60006166f6848285016166bd565b9150509291505056fea26469706673582212202968c5bc38cf74ca3ff71b19c0f7506f8e93ea08e99ec6c448590cdcde6b437d64736f6c63430008110033",
  "immutableReferences": {},
  "source": "// SPDX-License-Identifier: MIT\r\npragma solidity ^0.8.0;\r\npragma experimental ABIEncoderV2;\r\n\r\n// import \"@chainlink/contracts/src/v0.7/ChainlinkClient.sol\";\r\nimport \"@openzeppelin/contracts/token/ERC721/ERC721.sol\";\r\nimport \"@openzeppelin/contracts/utils/Counters.sol\";\r\nimport \"@openzeppelin/contracts/utils/math/SafeMath.sol\";\r\nimport \"@openzeppelin/contracts/token/ERC20/IERC20.sol\";\r\nimport \"./MetaBetNFT721Domain.sol\";\r\n\r\n// import \"https://github.com/OpenZeppelin/openzeppelin-contracts/blob/18c7efe800df6fc19554ece3b1f238e9e028a1db/contracts/token/ERC721/ERC721.sol\";\r\n// import \"https://github.com/OpenZeppelin/openzeppelin-contracts/blob/18c7efe800df6fc19554ece3b1f238e9e028a1db/contracts/utils/Counters.sol\";\r\n// import \"https://github.com/OpenZeppelin/openzeppelin-contracts/blob/18c7efe800df6fc19554ece3b1f238e9e028a1db/contracts/math/SafeMath.sol\";\r\n\r\n/*\r\n * @notice SmartBet core smart contract. Handles matches, bets and farming\r\n */\r\ncontract MetaBetNFT721 is ERC721, MetaBetNFT721Domain {\r\n    using Counters for Counters.Counter;\r\n    using SafeMath for uint256;\r\n\r\n    ////////////////////////////////////////\r\n    //                                    //\r\n    //         STATE VARIABLES            //\r\n    //                                    //\r\n    ////////////////////////////////////////\r\n    // contract owner adress\r\n    address private owner;\r\n\r\n    // incremented for match id generation\r\n    Counters.Counter private matchIds;\r\n\r\n    // incremented id for NFT minting\r\n    Counters.Counter private tokenIds;\r\n\r\n    // flag to determine if contracts core functionalities can be performed\r\n    bool circuitBreaker = false;\r\n\r\n    // holds all NFTs issued to winners\r\n    mapping(uint256 => SmartAsset) smartAssets;\r\n\r\n    // holds all created matches (key: idCounter)\r\n    mapping(uint256 => Match) matches;\r\n\r\n    // holds all apiMatchId -> onChainMatchId to prevent duplicate entries\r\n    mapping(uint256 => uint256) apiMatches;\r\n\r\n    // holds all bets on a match\r\n    // mapping(matchId => mapping(gameResult => smartAssetId[])) matchBets;\r\n    mapping(uint256 => mapping(MatchResult => uint256[])) matchBets;\r\n\r\n    mapping(bytes32 => uint256) matchResultRequestIds;\r\n\r\n    ////////////////////////////////////////\r\n    //                                    //\r\n    //           CONSTRUCTOR              //\r\n    //                                    //\r\n    ////////////////////////////////////////\r\n\r\n    constructor() ERC721(\"MetaBet\", \"MBT\") {\r\n        owner = msg.sender;\r\n    }\r\n\r\n    ////////////////////////////////////////\r\n    //                                    //\r\n    //              EVENTS                //\r\n    //                                    //\r\n    ////////////////////////////////////////\r\n\r\n    //Can be used by the clients to get all matches in a particular time\r\n    event MatchCreatedEvent(\r\n        address creator,\r\n        uint256 indexed matchId,\r\n        uint256 indexed apiMatchId,\r\n        uint256 indexed createdOn,\r\n        MatchInfo info\r\n    );\r\n\r\n    //Can be used by the clients to get all bets placed by a better in a particular time\r\n    event BetPlacedEvent(\r\n        address indexed bettor,\r\n        uint256 indexed matchId,\r\n        uint256 amount,\r\n        uint256 indexed betPlacedAt,\r\n        AssetType assetType,\r\n        address payToken\r\n    );\r\n    event SmartAssetAwardedEvent(\r\n        address indexed awardee,\r\n        uint256 indexed matchId,\r\n        uint256 smartAssetId,\r\n        uint256 awardedAt,\r\n        AssetType assetType,\r\n        address payToken\r\n    );\r\n    event MatchClosedEvent(\r\n        address indexed by,\r\n        uint256 indexed matchId,\r\n        uint256 closedAt\r\n    );\r\n    event MatchResultSetEvent(\r\n        uint256 indexed matchId,\r\n        MatchResult result,\r\n        uint256 setAt\r\n    );\r\n    event AssetLiquidatedEvent(\r\n        address indexed by,\r\n        uint256 indexed matchId,\r\n        uint256 amount,\r\n        uint256 liquidatedAt,\r\n        AssetType assetType,\r\n        address payToken\r\n    );\r\n\r\n    ////////////////////////////////////////\r\n    //                                    //\r\n    //              MODIFIERS             //\r\n    //                                    //\r\n    ////////////////////////////////////////\r\n\r\n    /*\r\n     *  @notice  Restrict caller only owner\r\n     */\r\n    modifier onlyOwner() {\r\n        require(msg.sender == owner, \"caller is not owner\");\r\n        _;\r\n    }\r\n\r\n    /*\r\n     *  @notice  Ensure match does not previously exist\r\n     */\r\n    modifier isNewMatch(uint256 _matchId) {\r\n        require(!matches[_matchId].exists, \"on chain match exists\");\r\n        _;\r\n    }\r\n\r\n    /*\r\n     *  @notice  Ensure api match does not previously exist\r\n     */\r\n    modifier isNewAPIMatch(uint256 _api_matchId) {\r\n        require(apiMatches[_api_matchId] == 0, \"api match ID exists\");\r\n        _;\r\n    }\r\n\r\n    /*\r\n     *  @notice  Ensure match exists\r\n     */\r\n    modifier matchExists(uint256 _matchId) {\r\n        require(matches[_matchId].exists, \"on chain match does not exist\");\r\n        _;\r\n    }\r\n\r\n    /*\r\n     *  @notice  Ensure match has not started\r\n     */\r\n    modifier matchNotStarted(uint256 _matchId) {\r\n        require(\r\n            matches[_matchId].state == MatchState.NOT_STARTED,\r\n            \"match started\"\r\n        );\r\n        _;\r\n    }\r\n\r\n    /*\r\n     *  @notice  Ensure match has started\r\n     */\r\n    modifier matchStarted(uint256 _matchId) {\r\n        require(\r\n            matches[_matchId].state == MatchState.STARTED,\r\n            \"match not started\"\r\n        );\r\n        _;\r\n    }\r\n\r\n    /*\r\n     *  @notice  Ensure match has ended\r\n     */\r\n    modifier matchFinished(uint256 _matchId) {\r\n        require(\r\n            matches[_matchId].state == MatchState.FINISHED,\r\n            \"match not finished\"\r\n        );\r\n        _;\r\n    }\r\n\r\n    /*\r\n     *  @notice Checks if core functionalities can be performed\r\n     *  @dev Checks if the circuitBreaker state variable is false\r\n     */\r\n    modifier isCircuitBreakOff() {\r\n        require(!circuitBreaker, \"Circuit breaker is on\");\r\n        _;\r\n    }\r\n\r\n    /*\r\n     *  @notice Checks if the NFT is valid\r\n     *  @dev Validates NFT\r\n     */\r\n    modifier validateToken(uint256 _tokenId) {\r\n        require(_exists(_tokenId), \"Invalid token\");\r\n        _;\r\n    }\r\n\r\n    /*\r\n     *  @notice  Ensure token belongs to the caller\r\n     */\r\n    modifier isTokenOwner(uint256 _tokenId) {\r\n        require(ownerOf(_tokenId) == msg.sender, \"caller is not token owner\");\r\n        _;\r\n    }\r\n\r\n    /*\r\n     *  @notice  Ensures bets are allowed on the match\r\n     *  @dev     The totalCollected on the match must be greater than the total payout on the team the bettor wants to bet on. The incoming bet is inclusive in the calculation\r\n     */\r\n    modifier isBetAllowed(uint256 _matchId) {\r\n        require(true, \"Bet is not allowed\");\r\n        _;\r\n    }\r\n\r\n    modifier validateMatchResult(uint8 _matchResult) {\r\n        require(\r\n            MatchResult(_matchResult) == MatchResult.TEAM_A_WON ||\r\n                MatchResult(_matchResult) == MatchResult.TEAM_B_WON ||\r\n                MatchResult(_matchResult) == MatchResult.DRAW,\r\n            \"Invalid match result\"\r\n        );\r\n        _;\r\n    }\r\n\r\n    ////////////////////////////////////////\r\n    //                                    //\r\n    //              FUNCTIONS             //\r\n    //                                    //\r\n    ////////////////////////////////////////\r\n\r\n    /*\r\n     *  @notice  New match creation\r\n     *  @dev\r\n     *  @param\r\n     *  @return  match Id\r\n     */\r\n    function createMatch(\r\n        uint256 _apiMatchId,\r\n        string calldata _matchResultLink,\r\n        MatchInfo calldata _matchInfo\r\n    ) public payable isNewAPIMatch(_apiMatchId) onlyOwner returns (uint256) {\r\n        uint256 amountBet = msg.value;\r\n        require(\r\n            _matchInfo.initOddsTeamA > 0 &&\r\n                _matchInfo.initOddsTeamB > 0 &&\r\n                _matchInfo.initOddsDraw > 0,\r\n            \"Invalid Odds [TeamA or TeamB or Draw]\"\r\n        );\r\n        if (_matchInfo.assetType == AssetType.ETH) {\r\n            require(amountBet != 0, \"Invalid amount bet\");\r\n            payable(address(this)).transfer(amountBet);\r\n        }\r\n        if (_matchInfo.assetType == AssetType.ERC20) {\r\n            amountBet =\r\n                _matchInfo.initOddsTeamA +\r\n                _matchInfo.initOddsTeamB +\r\n                _matchInfo.initOddsDraw;\r\n            IERC20(_matchInfo.payToken).transferFrom(\r\n                msg.sender,\r\n                address(this),\r\n                amountBet\r\n            );\r\n        }\r\n\r\n        matchIds.increment();\r\n        uint256 matchId = matchIds.current();\r\n\r\n        matches[matchId] = Match(\r\n            msg.sender,\r\n            _matchResultLink,\r\n            _matchInfo.initOddsTeamA,\r\n            _matchInfo.initOddsTeamB,\r\n            _matchInfo.initOddsDraw,\r\n            amountBet,\r\n            MatchResult.NOT_DETERMINED,\r\n            MatchState.NOT_STARTED,\r\n            true,\r\n            _matchInfo\r\n        );\r\n        apiMatches[_apiMatchId] = matchId;\r\n\r\n        emitMatchCreatedEvent(matchId, _apiMatchId, _matchInfo);\r\n        return matchId;\r\n    }\r\n\r\n    function emitMatchCreatedEvent(\r\n        uint256 matchId,\r\n        uint256 _apiMatchId,\r\n        MatchInfo calldata info\r\n    ) internal {\r\n        uint256 createdOnDay = block.timestamp - (block.timestamp % 86400);\r\n        emit MatchCreatedEvent(\r\n            msg.sender,\r\n            matchId,\r\n            _apiMatchId,\r\n            createdOnDay,\r\n            info\r\n        );\r\n    }\r\n\r\n    function calculateAssetValue(uint256 amountBet, uint256 _odds)\r\n        internal\r\n        pure\r\n        returns (uint256)\r\n    {\r\n        return amountBet.mul(_odds).div(100);\r\n    }\r\n\r\n    /*\r\n     *  @notice  New bet creation. Mint NFT to bettor\r\n     *  @dev\r\n     *  @param\r\n     *  @return  token id\r\n     */\r\n    function placeBet(\r\n        uint256 _matchId,\r\n        uint8 _resultBetOn,\r\n        PayAsset calldata _payAsset\r\n    )\r\n        public\r\n        payable\r\n        isCircuitBreakOff\r\n        matchExists(_matchId)\r\n        matchNotStarted(_matchId)\r\n        isBetAllowed(_matchId)\r\n        validateMatchResult(_resultBetOn)\r\n        returns (uint256)\r\n    {\r\n        \r\n        uint256 amountBet = msg.value;\r\n        if (_payAsset.assetType == AssetType.ETH) {\r\n            require(amountBet != 0, \"Invalid amount bet\");\r\n            payable(address(this)).transfer(amountBet);\r\n        }\r\n        if (_payAsset.assetType == AssetType.ERC20) {\r\n            amountBet = _payAsset.payValue;\r\n            IERC20(_payAsset.payToken).transferFrom(\r\n                msg.sender,\r\n                address(this),\r\n                amountBet\r\n            );\r\n        }\r\n        if (\r\n            _payAsset.assetType != AssetType.ETH &&\r\n            _payAsset.assetType != AssetType.ERC20 &&\r\n            _payAsset.assetType != AssetType.ERC721 &&\r\n            _payAsset.assetType != AssetType.ERC1155 &&\r\n            _payAsset.assetType != AssetType.ERC721Deprecated\r\n        ) {\r\n            return 0;\r\n        }\r\n\r\n        if (matches[_matchId].matchInfo.startAt < block.timestamp) {\r\n            matches[_matchId].state = MatchState.STARTED;\r\n            return 0;\r\n        }\r\n\r\n        MatchResult matchResultBetOn = MatchResult(_resultBetOn);\r\n        //update team's total payout\r\n        if (matchResultBetOn == MatchResult.TEAM_A_WON) {\r\n            matches[_matchId].totalPayoutTeamA = matches[_matchId].totalPayoutTeamA.add(amountBet);\r\n        } else if (matchResultBetOn == MatchResult.TEAM_B_WON) {\r\n            matches[_matchId].totalPayoutTeamB = matches[_matchId].totalPayoutTeamB.add(amountBet);\r\n        } else {\r\n            matches[_matchId].totalPayoutDraw = matches[_matchId].totalPayoutDraw.add(amountBet);\r\n        }\r\n\r\n        //increase totalCollected on the match\r\n        matches[_matchId].totalCollected = matches[_matchId].totalCollected.add(amountBet);\r\n\r\n        // mintNFT\r\n        uint256 smartAssetId = awardSmartAsset(\r\n            msg.sender,\r\n            amountBet,\r\n            _matchId,\r\n            matchResultBetOn,\r\n            _payAsset.assetType,\r\n            _payAsset.payToken\r\n        );\r\n\r\n        //Save bettor's bet\r\n        matchBets[_matchId][matchResultBetOn].push(smartAssetId);\r\n\r\n        emit BetPlacedEvent(\r\n            msg.sender,\r\n            _matchId,\r\n            amountBet,\r\n            block.timestamp,\r\n            _payAsset.assetType,\r\n            _payAsset.payToken\r\n        );\r\n\r\n        return smartAssetId;\r\n    }\r\n\r\n    /**\r\n     * mint nft staking your balance\r\n     */\r\n    function awardSmartAsset(\r\n        address bettor,\r\n        uint256 assetValue,\r\n        uint256 _matchId,\r\n        MatchResult _matchResultBetOn,\r\n        AssetType _payAsset,\r\n        address _payToken\r\n    ) internal returns (uint256) {\r\n        tokenIds.increment();\r\n\r\n        uint256 smartAssetId = tokenIds.current();\r\n        _mint(bettor, smartAssetId);\r\n\r\n        smartAssets[smartAssetId] = SmartAsset(\r\n            msg.sender,\r\n            _matchId,\r\n            _matchResultBetOn,\r\n            assetValue,\r\n            0,\r\n            _payAsset,\r\n            _payToken\r\n        );\r\n\r\n        emit SmartAssetAwardedEvent(\r\n            bettor,\r\n            _matchId,\r\n            smartAssetId,\r\n            block.timestamp,\r\n            _payAsset,\r\n            _payToken\r\n        );\r\n\r\n        return smartAssetId;\r\n    }\r\n\r\n    function startMatch(uint256 _matchId)\r\n        public\r\n        onlyOwner\r\n        matchExists(_matchId)\r\n        matchNotStarted(_matchId)\r\n    {\r\n        matches[_matchId].state = MatchState.STARTED;\r\n    }\r\n\r\n    /*\r\n     *  @notice  Match manual close by admin. Trigger \"getResult()\"\r\n     *  @dev     [Real] ChainlinkClient API Request oracles gets match result of winning team. Then, match is closed.\r\n     *           [Temporary] (Implemented because there's no BSC testnet oracle node)\r\n     *                       Frontend gets result via result link and posts winning team. Then, match is closed.\r\n     *  @param\r\n     *  @return  success success status\r\n     */\r\n    function closeMatch(uint256 _matchId, uint8 _matchResult)\r\n        public\r\n        onlyOwner\r\n        matchExists(_matchId)\r\n        matchStarted(_matchId)\r\n        validateMatchResult(_matchResult)\r\n    {\r\n        matches[_matchId].state = MatchState.FINISHED;\r\n\r\n        // getMatchResult(_matchId);\r\n        MatchResult matchResult = MatchResult(_matchResult);\r\n        setMatchResult(_matchId, matchResult);\r\n\r\n        if (matchResult == MatchResult.TEAM_A_WON) {\r\n            invalidateAssets(matchBets[_matchId][MatchResult.TEAM_B_WON]);\r\n            invalidateAssets(matchBets[_matchId][MatchResult.DRAW]);\r\n        } else if (matchResult == MatchResult.TEAM_B_WON) {\r\n            invalidateAssets(matchBets[_matchId][MatchResult.TEAM_A_WON]);\r\n            invalidateAssets(matchBets[_matchId][MatchResult.DRAW]);\r\n        } else {\r\n            invalidateAssets(matchBets[_matchId][MatchResult.TEAM_A_WON]);\r\n            invalidateAssets(matchBets[_matchId][MatchResult.TEAM_B_WON]);\r\n        }\r\n\r\n        emit MatchClosedEvent(msg.sender, _matchId, block.timestamp);\r\n    }\r\n\r\n    function setMatchResult(uint256 _matchId, MatchResult _matchResult)\r\n        internal\r\n    {\r\n        matches[_matchId].result = _matchResult;\r\n        emit MatchResultSetEvent(\r\n            _matchId,\r\n            matches[_matchId].result,\r\n            block.timestamp\r\n        );\r\n    }\r\n\r\n    function invalidateAssets(uint256[] memory assets) internal {\r\n        for (uint256 i = 0; i < assets.length; i++) {\r\n            invalidateAsset(assets[i]);\r\n        }\r\n    }\r\n\r\n    function invalidateAsset(uint256 _smartAssetId) internal {\r\n        _burn(_smartAssetId);\r\n    }\r\n\r\n    /*\r\n     *  @notice  Liquidate smart asset's value\r\n     *  @dev     validated   NFT is burned and caller gets value funds in account\r\n     *  @param   _smartAssetId smart asset id\r\n     *  @return  success status\r\n     */\r\n    function liquidateAsset(uint256 _smartAssetId)\r\n        public\r\n        payable\r\n        isCircuitBreakOff\r\n        validateToken(_smartAssetId)\r\n        isTokenOwner(_smartAssetId)\r\n        returns (bool)\r\n    {\r\n        SmartAsset memory smartAsset = smartAssets[_smartAssetId];\r\n\r\n        require(\r\n            matches[smartAsset.matchId].state == MatchState.FINISHED,\r\n            \"Cannot liquidate asset until match is finished\"\r\n        );\r\n        if (smartAsset.assetType == AssetType.ETH) {\r\n            require(\r\n                address(this).balance >= smartAsset.initialValue,\r\n                \"Contract has insufficient funds\"\r\n            );\r\n            invalidateAsset(_smartAssetId);\r\n            payable(msg.sender).transfer(smartAsset.initialValue);\r\n        }\r\n        if (smartAsset.assetType == AssetType.ERC20) {\r\n            require(\r\n                IERC20(smartAsset.payToken).balanceOf(address(this)) >=\r\n                    smartAsset.initialValue,\r\n                \"Contract has Token insufficient funds\"\r\n            );\r\n            invalidateAsset(_smartAssetId);\r\n            IERC20(smartAsset.payToken).transfer(\r\n                msg.sender,\r\n                smartAsset.initialValue\r\n            );\r\n        }\r\n\r\n        emit AssetLiquidatedEvent(\r\n            msg.sender,\r\n            smartAsset.matchId,\r\n            smartAsset.initialValue,\r\n            block.timestamp,\r\n            smartAsset.assetType,\r\n            smartAsset.payToken\r\n        );\r\n        return true;\r\n    }\r\n\r\n    /*\r\n     *  @notice  Contract Circuit Breaker\r\n     *  @dev     Admin can [de]activate core functons in contract\r\n     *  @param\r\n     *  @return  success success status\r\n     */\r\n    function toggleCircuitBreaker() public onlyOwner {\r\n        circuitBreaker = !circuitBreaker;\r\n    }\r\n\r\n    /*\r\n     *  @notice  Fetch match details\r\n     *  @dev\r\n     *  @oaram   _matchId\r\n     *  @return match match details\r\n     */\r\n    function getMatch(uint256 _matchId)\r\n        public\r\n        view\r\n        matchExists(_matchId)\r\n        returns (Match memory match_)\r\n    {\r\n        return matches[_matchId];\r\n    }\r\n\r\n    /*\r\n     *  @notice  Fetch single SmartAsset\r\n     *  @dev\r\n     *  @param   _smartAssetId\r\n     *  @return  asset details\r\n     */\r\n    function getSmartAsset(uint256 _smartAssetId)\r\n        public\r\n        view\r\n        validateToken(_smartAssetId)\r\n        isTokenOwner(_smartAssetId)\r\n        returns (SmartAsset memory asset)\r\n    {\r\n        return smartAssets[_smartAssetId];\r\n    }\r\n\r\n    /*\r\n     *  @notice  Tells of the msg.sender is the admin\r\n     *  @dev\r\n     *  @return  true if msg.sender is admin else false\r\n     */\r\n    function isAdmin() public view returns (bool) {\r\n        return msg.sender == owner;\r\n    }\r\n\r\n    /*\r\n     *  @notice  Allows the current owner pass ownership to another address\r\n     *  @dev\r\n     */\r\n    function changeOwner(address newOwner) external onlyOwner {\r\n        owner = newOwner;\r\n    }\r\n\r\n    receive() external payable {}\r\n}\r\n",
  "sourcePath": "D:\\CSDN\\github\\SmartBet\\contracts\\MetaBetNFT721.sol",
  "compiler": {
    "name": "solc",
    "version": "0.8.17+commit.8df45f5f.Emscripten.clang"
  },
  "schemaVersion": "3.4.6",
  "updatedAt": "2022-11-07T11:18:52.916Z",
  "devdoc": {
    "kind": "dev",
    "methods": {
      "approve(address,uint256)": {
        "details": "See {IERC721-approve}."
      },
      "balanceOf(address)": {
        "details": "See {IERC721-balanceOf}."
      },
      "getApproved(uint256)": {
        "details": "See {IERC721-getApproved}."
      },
      "isApprovedForAll(address,address)": {
        "details": "See {IERC721-isApprovedForAll}."
      },
      "name()": {
        "details": "See {IERC721Metadata-name}."
      },
      "ownerOf(uint256)": {
        "details": "See {IERC721-ownerOf}."
      },
      "safeTransferFrom(address,address,uint256)": {
        "details": "See {IERC721-safeTransferFrom}."
      },
      "safeTransferFrom(address,address,uint256,bytes)": {
        "details": "See {IERC721-safeTransferFrom}."
      },
      "setApprovalForAll(address,bool)": {
        "details": "See {IERC721-setApprovalForAll}."
      },
      "supportsInterface(bytes4)": {
        "details": "See {IERC165-supportsInterface}."
      },
      "symbol()": {
        "details": "See {IERC721Metadata-symbol}."
      },
      "tokenURI(uint256)": {
        "details": "See {IERC721Metadata-tokenURI}."
      },
      "transferFrom(address,address,uint256)": {
        "details": "See {IERC721-transferFrom}."
      }
    },
    "version": 1
  },
  "userdoc": {
    "kind": "user",
    "methods": {},
    "version": 1
  }
}