{
  "contractName": "PriceConsumerV3",
  "abi": [
    {
      "inputs": [],
      "stateMutability": "nonpayable",
      "type": "constructor"
    },
    {
      "inputs": [],
      "name": "getLatestPrice",
      "outputs": [
        {
          "internalType": "int256",
          "name": "",
          "type": "int256"
        }
      ],
      "stateMutability": "view",
      "type": "function"
    },
    {
      "inputs": [],
      "name": "getLatestBUSD_USDPrice",
      "outputs": [
        {
          "internalType": "int256",
          "name": "",
          "type": "int256"
        }
      ],
      "stateMutability": "view",
      "type": "function"
    }
  ],
  "bytecode": "0x608060405234801561001057600080fd5b50732514895c72f50d8bd4b4f9b1110f0d6bd2c975266000806101000a81548173ffffffffffffffffffffffffffffffffffffffff021916908373ffffffffffffffffffffffffffffffffffffffff160217905550739331b55d9830ef609a2abcfac0fbce050a52fdea600160006101000a81548173ffffffffffffffffffffffffffffffffffffffff021916908373ffffffffffffffffffffffffffffffffffffffff1602179055506104c0806100c96000396000f3fe608060405234801561001057600080fd5b50600436106100365760003560e01c80635de8877b1461003b5780638e15f47314610059575b600080fd5b610043610077565b604051610050919061020b565b60405180910390f35b61006161012b565b60405161006e919061020b565b60405180910390f35b600080600160009054906101000a900473ffffffffffffffffffffffffffffffffffffffff1673ffffffffffffffffffffffffffffffffffffffff1663feaf968c6040518163ffffffff1660e01b815260040160a060405180830381865afa1580156100e7573d6000803e3d6000fd5b505050506040513d601f19601f8201168201806040525081019061010b91906102cf565b50505091505080670de0b6b3a764000061012591906103a8565b91505090565b60008060008054906101000a900473ffffffffffffffffffffffffffffffffffffffff1673ffffffffffffffffffffffffffffffffffffffff1663feaf968c6040518163ffffffff1660e01b815260040160a060405180830381865afa158015610199573d6000803e3d6000fd5b505050506040513d601f19601f820116820180604052508101906101bd91906102cf565b505050915050600064e8d4a510006101d3610077565b836101de9190610412565b6101e891906103a8565b9050809250505090565b6000819050919050565b610205816101f2565b82525050565b600060208201905061022060008301846101fc565b92915050565b600080fd5b600069ffffffffffffffffffff82169050919050565b61024a8161022b565b811461025557600080fd5b50565b60008151905061026781610241565b92915050565b610276816101f2565b811461028157600080fd5b50565b6000815190506102938161026d565b92915050565b6000819050919050565b6102ac81610299565b81146102b757600080fd5b50565b6000815190506102c9816102a3565b92915050565b600080600080600060a086880312156102eb576102ea610226565b5b60006102f988828901610258565b955050602061030a88828901610284565b945050604061031b888289016102ba565b935050606061032c888289016102ba565b925050608061033d88828901610258565b9150509295509295909350565b7f4e487b7100000000000000000000000000000000000000000000000000000000600052601260045260246000fd5b7f4e487b7100000000000000000000000000000000000000000000000000000000600052601160045260246000fd5b60006103b3826101f2565b91506103be836101f2565b9250826103ce576103cd61034a565b5b600160000383147f80000000000000000000000000000000000000000000000000000000000000008314161561040757610406610379565b5b828205905092915050565b600061041d826101f2565b9150610428836101f2565b9250828202610436816101f2565b91507f8000000000000000000000000000000000000000000000000000000000000000841460008412161561046e5761046d610379565b5b828205841483151761048357610482610379565b5b509291505056fea264697066735822122005b3b4b2f483312a3179ce2dc62c906ecad85e106ffa23f7b39136f3768a7ee264736f6c63430008110033",
  "immutableReferences": {},
  "source": "// SPDX-License-Identifier: MIT\r\npragma solidity ^0.8.0;\r\n\r\nimport \"@chainlink/contracts/src/v0.8/interfaces/AggregatorV3Interface.sol\";\r\n//import \"https://github.com/smartcontractkit/chainlink/blob/develop/evm-contracts/src/v0.8/interfaces/AggregatorV3Interface.sol\";\r\n\r\ncontract PriceConsumerV3 {\r\n\r\n    AggregatorV3Interface internal BNB_USD_Feed;\r\n    AggregatorV3Interface internal BUSD_USD_Feed;\r\n\r\n    /**\r\n     * Network: BSC Testnet\r\n     * Aggregator: BNB/USD\r\n     * Address: 0x2514895c72f50D8bd4B4F9b1110F0D6bD2c97526\r\n     *\r\n     * Aggregator: BUSD/USD\r\n     * Address: 0x9331b55D9830EF609A2aBCfAc0FBCE050A52fdEa\r\n     */\r\n    constructor() {\r\n        BNB_USD_Feed = AggregatorV3Interface(0x2514895c72f50D8bd4B4F9b1110F0D6bD2c97526);\r\n        BUSD_USD_Feed = AggregatorV3Interface(0x9331b55D9830EF609A2aBCfAc0FBCE050A52fdEa);\r\n    }\r\n\r\n    /**\r\n     * Returns the latest price BNB vs BUSD\r\n     */\r\n    function getLatestPrice() public view returns (int) {\r\n        (\r\n            /*uint80 roundID*/, \r\n            int256 price,\r\n            /*uint256 startedAt*/,\r\n            /*uint256 timeStamp*/,\r\n            /*uint80 answeredInRound*/\r\n        ) = BNB_USD_Feed.latestRoundData();\r\n\r\n        int busd = (price * getLatestBUSD_USDPrice()) / 10**12; // per 1 BNB (6 decimals)\r\n        return busd;\r\n    }\r\n\r\n    function getLatestBUSD_USDPrice() public view returns (int) {\r\n        (\r\n            /*uint80 roundID*/, \r\n            int256 price,\r\n            /*uint256 startedAt*/,\r\n            /*uint256 timeStamp*/,\r\n            /*uint80 answeredInRound*/\r\n        ) = BUSD_USD_Feed.latestRoundData();\r\n\r\n        return (1 * 10**18) / price; // BUSD per 1 USD \r\n    }\r\n}",
  "sourcePath": "D:\\CSDN\\github\\SmartBet\\contracts\\PriceConsumerV3.sol",
  "compiler": {
    "name": "solc",
    "version": "0.8.17+commit.8df45f5f.Emscripten.clang"
  },
  "schemaVersion": "3.4.6",
  "updatedAt": "2022-11-07T11:18:53.044Z",
  "devdoc": {
    "kind": "dev",
    "methods": {},
    "version": 1
  },
  "userdoc": {
    "kind": "user",
    "methods": {
      "constructor": {
        "notice": "Network: BSC Testnet Aggregator: BNB/USD Address: 0x2514895c72f50D8bd4B4F9b1110F0D6bD2c97526 Aggregator: BUSD/USD Address: 0x9331b55D9830EF609A2aBCfAc0FBCE050A52fdEa"
      },
      "getLatestPrice()": {
        "notice": "Returns the latest price BNB vs BUSD"
      }
    },
    "version": 1
  }
}