{
  "contractName": "SmartBet",
  "abi": [
    {
      "inputs": [],
      "stateMutability": "nonpayable",
      "type": "constructor"
    },
    {
      "anonymous": false,
      "inputs": [
        {
          "indexed": true,
          "internalType": "address",
          "name": "owner",
          "type": "address"
        },
        {
          "indexed": true,
          "internalType": "address",
          "name": "approved",
          "type": "address"
        },
        {
          "indexed": true,
          "internalType": "uint256",
          "name": "tokenId",
          "type": "uint256"
        }
      ],
      "name": "Approval",
      "type": "event"
    },
    {
      "anonymous": false,
      "inputs": [
        {
          "indexed": true,
          "internalType": "address",
          "name": "owner",
          "type": "address"
        },
        {
          "indexed": true,
          "internalType": "address",
          "name": "operator",
          "type": "address"
        },
        {
          "indexed": false,
          "internalType": "bool",
          "name": "approved",
          "type": "bool"
        }
      ],
      "name": "ApprovalForAll",
      "type": "event"
    },
    {
      "anonymous": false,
      "inputs": [
        {
          "indexed": true,
          "internalType": "address",
          "name": "by",
          "type": "address"
        },
        {
          "indexed": true,
          "internalType": "uint256",
          "name": "matchId",
          "type": "uint256"
        },
        {
          "indexed": false,
          "internalType": "uint256",
          "name": "amount",
          "type": "uint256"
        },
        {
          "indexed": false,
          "internalType": "uint256",
          "name": "liquidatedAt",
          "type": "uint256"
        }
      ],
      "name": "AssetLiquidatedEvent",
      "type": "event"
    },
    {
      "anonymous": false,
      "inputs": [
        {
          "indexed": true,
          "internalType": "address",
          "name": "bettor",
          "type": "address"
        },
        {
          "indexed": true,
          "internalType": "uint256",
          "name": "matchId",
          "type": "uint256"
        },
        {
          "indexed": false,
          "internalType": "uint256",
          "name": "amount",
          "type": "uint256"
        },
        {
          "indexed": true,
          "internalType": "uint256",
          "name": "betPlacedAt",
          "type": "uint256"
        }
      ],
      "name": "BetPlacedEvent",
      "type": "event"
    },
    {
      "anonymous": false,
      "inputs": [
        {
          "indexed": true,
          "internalType": "address",
          "name": "by",
          "type": "address"
        },
        {
          "indexed": true,
          "internalType": "uint256",
          "name": "matchId",
          "type": "uint256"
        },
        {
          "indexed": false,
          "internalType": "uint256",
          "name": "closedAt",
          "type": "uint256"
        }
      ],
      "name": "MatchClosedEvent",
      "type": "event"
    },
    {
      "anonymous": false,
      "inputs": [
        {
          "indexed": false,
          "internalType": "address",
          "name": "creator",
          "type": "address"
        },
        {
          "indexed": true,
          "internalType": "uint256",
          "name": "matchId",
          "type": "uint256"
        },
        {
          "indexed": true,
          "internalType": "uint256",
          "name": "apiMatchId",
          "type": "uint256"
        },
        {
          "indexed": false,
          "internalType": "uint256",
          "name": "startAt",
          "type": "uint256"
        },
        {
          "indexed": true,
          "internalType": "uint256",
          "name": "createdOn",
          "type": "uint256"
        },
        {
          "indexed": false,
          "internalType": "uint32",
          "name": "oddsA",
          "type": "uint32"
        },
        {
          "indexed": false,
          "internalType": "uint32",
          "name": "oddsB",
          "type": "uint32"
        },
        {
          "indexed": false,
          "internalType": "uint32",
          "name": "oddsDraw",
          "type": "uint32"
        }
      ],
      "name": "MatchCreatedEvent",
      "type": "event"
    },
    {
      "anonymous": false,
      "inputs": [
        {
          "indexed": true,
          "internalType": "uint256",
          "name": "matchId",
          "type": "uint256"
        },
        {
          "indexed": false,
          "internalType": "enum SmartBet.MatchResult",
          "name": "result",
          "type": "uint8"
        },
        {
          "indexed": false,
          "internalType": "uint256",
          "name": "setAt",
          "type": "uint256"
        }
      ],
      "name": "MatchResultSetEvent",
      "type": "event"
    },
    {
      "anonymous": false,
      "inputs": [
        {
          "indexed": true,
          "internalType": "address",
          "name": "awardee",
          "type": "address"
        },
        {
          "indexed": true,
          "internalType": "uint256",
          "name": "matchId",
          "type": "uint256"
        },
        {
          "indexed": false,
          "internalType": "uint256",
          "name": "smartAssetId",
          "type": "uint256"
        },
        {
          "indexed": false,
          "internalType": "uint256",
          "name": "awardedAt",
          "type": "uint256"
        }
      ],
      "name": "SmartAssetAwardedEvent",
      "type": "event"
    },
    {
      "anonymous": false,
      "inputs": [
        {
          "indexed": true,
          "internalType": "address",
          "name": "from",
          "type": "address"
        },
        {
          "indexed": true,
          "internalType": "address",
          "name": "to",
          "type": "address"
        },
        {
          "indexed": true,
          "internalType": "uint256",
          "name": "tokenId",
          "type": "uint256"
        }
      ],
      "name": "Transfer",
      "type": "event"
    },
    {
      "inputs": [],
      "name": "BUSD",
      "outputs": [
        {
          "internalType": "address",
          "name": "",
          "type": "address"
        }
      ],
      "stateMutability": "view",
      "type": "function"
    },
    {
      "inputs": [
        {
          "internalType": "address",
          "name": "to",
          "type": "address"
        },
        {
          "internalType": "uint256",
          "name": "tokenId",
          "type": "uint256"
        }
      ],
      "name": "approve",
      "outputs": [],
      "stateMutability": "nonpayable",
      "type": "function"
    },
    {
      "inputs": [
        {
          "internalType": "address",
          "name": "owner",
          "type": "address"
        }
      ],
      "name": "balanceOf",
      "outputs": [
        {
          "internalType": "uint256",
          "name": "",
          "type": "uint256"
        }
      ],
      "stateMutability": "view",
      "type": "function"
    },
    {
      "inputs": [
        {
          "internalType": "uint256",
          "name": "tokenId",
          "type": "uint256"
        }
      ],
      "name": "getApproved",
      "outputs": [
        {
          "internalType": "address",
          "name": "",
          "type": "address"
        }
      ],
      "stateMutability": "view",
      "type": "function"
    },
    {
      "inputs": [
        {
          "internalType": "address",
          "name": "owner",
          "type": "address"
        },
        {
          "internalType": "address",
          "name": "operator",
          "type": "address"
        }
      ],
      "name": "isApprovedForAll",
      "outputs": [
        {
          "internalType": "bool",
          "name": "",
          "type": "bool"
        }
      ],
      "stateMutability": "view",
      "type": "function"
    },
    {
      "inputs": [],
      "name": "name",
      "outputs": [
        {
          "internalType": "string",
          "name": "",
          "type": "string"
        }
      ],
      "stateMutability": "view",
      "type": "function"
    },
    {
      "inputs": [
        {
          "internalType": "uint256",
          "name": "tokenId",
          "type": "uint256"
        }
      ],
      "name": "ownerOf",
      "outputs": [
        {
          "internalType": "address",
          "name": "",
          "type": "address"
        }
      ],
      "stateMutability": "view",
      "type": "function"
    },
    {
      "inputs": [],
      "name": "pROUTER",
      "outputs": [
        {
          "internalType": "address",
          "name": "",
          "type": "address"
        }
      ],
      "stateMutability": "view",
      "type": "function"
    },
    {
      "inputs": [
        {
          "internalType": "address",
          "name": "from",
          "type": "address"
        },
        {
          "internalType": "address",
          "name": "to",
          "type": "address"
        },
        {
          "internalType": "uint256",
          "name": "tokenId",
          "type": "uint256"
        }
      ],
      "name": "safeTransferFrom",
      "outputs": [],
      "stateMutability": "nonpayable",
      "type": "function"
    },
    {
      "inputs": [
        {
          "internalType": "address",
          "name": "from",
          "type": "address"
        },
        {
          "internalType": "address",
          "name": "to",
          "type": "address"
        },
        {
          "internalType": "uint256",
          "name": "tokenId",
          "type": "uint256"
        },
        {
          "internalType": "bytes",
          "name": "data",
          "type": "bytes"
        }
      ],
      "name": "safeTransferFrom",
      "outputs": [],
      "stateMutability": "nonpayable",
      "type": "function"
    },
    {
      "inputs": [
        {
          "internalType": "address",
          "name": "operator",
          "type": "address"
        },
        {
          "internalType": "bool",
          "name": "approved",
          "type": "bool"
        }
      ],
      "name": "setApprovalForAll",
      "outputs": [],
      "stateMutability": "nonpayable",
      "type": "function"
    },
    {
      "inputs": [
        {
          "internalType": "bytes4",
          "name": "interfaceId",
          "type": "bytes4"
        }
      ],
      "name": "supportsInterface",
      "outputs": [
        {
          "internalType": "bool",
          "name": "",
          "type": "bool"
        }
      ],
      "stateMutability": "view",
      "type": "function"
    },
    {
      "inputs": [],
      "name": "symbol",
      "outputs": [
        {
          "internalType": "string",
          "name": "",
          "type": "string"
        }
      ],
      "stateMutability": "view",
      "type": "function"
    },
    {
      "inputs": [
        {
          "internalType": "uint256",
          "name": "tokenId",
          "type": "uint256"
        }
      ],
      "name": "tokenURI",
      "outputs": [
        {
          "internalType": "string",
          "name": "",
          "type": "string"
        }
      ],
      "stateMutability": "view",
      "type": "function"
    },
    {
      "inputs": [
        {
          "internalType": "address",
          "name": "from",
          "type": "address"
        },
        {
          "internalType": "address",
          "name": "to",
          "type": "address"
        },
        {
          "internalType": "uint256",
          "name": "tokenId",
          "type": "uint256"
        }
      ],
      "name": "transferFrom",
      "outputs": [],
      "stateMutability": "nonpayable",
      "type": "function"
    },
    {
      "inputs": [],
      "name": "wBNB",
      "outputs": [
        {
          "internalType": "address",
          "name": "",
          "type": "address"
        }
      ],
      "stateMutability": "view",
      "type": "function"
    },
    {
      "stateMutability": "payable",
      "type": "receive"
    },
    {
      "inputs": [
        {
          "internalType": "uint256",
          "name": "_apiMatchId",
          "type": "uint256"
        },
        {
          "internalType": "string",
          "name": "_matchResultLink",
          "type": "string"
        },
        {
          "internalType": "uint32",
          "name": "_oddsTeamA",
          "type": "uint32"
        },
        {
          "internalType": "uint32",
          "name": "_oddsTeamB",
          "type": "uint32"
        },
        {
          "internalType": "uint32",
          "name": "_oddsDraw",
          "type": "uint32"
        },
        {
          "internalType": "uint256",
          "name": "_startAt",
          "type": "uint256"
        }
      ],
      "name": "createMatch",
      "outputs": [
        {
          "internalType": "uint256",
          "name": "",
          "type": "uint256"
        }
      ],
      "stateMutability": "nonpayable",
      "type": "function"
    },
    {
      "inputs": [
        {
          "internalType": "uint256",
          "name": "_matchId",
          "type": "uint256"
        },
        {
          "internalType": "uint8",
          "name": "_resultBetOn",
          "type": "uint8"
        }
      ],
      "name": "placeBet",
      "outputs": [
        {
          "internalType": "uint256",
          "name": "",
          "type": "uint256"
        }
      ],
      "stateMutability": "payable",
      "type": "function"
    },
    {
      "inputs": [
        {
          "internalType": "uint256",
          "name": "_matchId",
          "type": "uint256"
        }
      ],
      "name": "startMatch",
      "outputs": [],
      "stateMutability": "nonpayable",
      "type": "function"
    },
    {
      "inputs": [
        {
          "internalType": "uint256",
          "name": "_matchId",
          "type": "uint256"
        },
        {
          "internalType": "uint8",
          "name": "_matchResult",
          "type": "uint8"
        }
      ],
      "name": "closeMatch",
      "outputs": [],
      "stateMutability": "nonpayable",
      "type": "function"
    },
    {
      "inputs": [
        {
          "internalType": "uint256",
          "name": "_smartAssetId",
          "type": "uint256"
        }
      ],
      "name": "liquidateAsset",
      "outputs": [
        {
          "internalType": "bool",
          "name": "",
          "type": "bool"
        }
      ],
      "stateMutability": "payable",
      "type": "function"
    },
    {
      "inputs": [],
      "name": "toggleCircuitBreaker",
      "outputs": [],
      "stateMutability": "nonpayable",
      "type": "function"
    },
    {
      "inputs": [
        {
          "internalType": "uint256",
          "name": "_matchId",
          "type": "uint256"
        }
      ],
      "name": "getMatch",
      "outputs": [
        {
          "components": [
            {
              "internalType": "address",
              "name": "creator",
              "type": "address"
            },
            {
              "internalType": "uint32",
              "name": "oddsTeamA",
              "type": "uint32"
            },
            {
              "internalType": "uint32",
              "name": "oddsTeamB",
              "type": "uint32"
            },
            {
              "internalType": "uint32",
              "name": "oddsDraw",
              "type": "uint32"
            },
            {
              "internalType": "string",
              "name": "matchResultLink",
              "type": "string"
            },
            {
              "internalType": "uint256",
              "name": "totalPayoutTeamA",
              "type": "uint256"
            },
            {
              "internalType": "uint256",
              "name": "totalPayoutTeamB",
              "type": "uint256"
            },
            {
              "internalType": "uint256",
              "name": "totalPayoutDraw",
              "type": "uint256"
            },
            {
              "internalType": "uint256",
              "name": "totalCollected",
              "type": "uint256"
            },
            {
              "internalType": "enum SmartBet.MatchResult",
              "name": "result",
              "type": "uint8"
            },
            {
              "internalType": "enum SmartBet.MatchState",
              "name": "state",
              "type": "uint8"
            },
            {
              "internalType": "uint256",
              "name": "startsAt",
              "type": "uint256"
            },
            {
              "internalType": "bool",
              "name": "exists",
              "type": "bool"
            }
          ],
          "internalType": "struct SmartBet.Match",
          "name": "match_",
          "type": "tuple"
        }
      ],
      "stateMutability": "view",
      "type": "function"
    },
    {
      "inputs": [
        {
          "internalType": "uint256",
          "name": "_smartAssetId",
          "type": "uint256"
        }
      ],
      "name": "getSmartAsset",
      "outputs": [
        {
          "components": [
            {
              "internalType": "address",
              "name": "owner",
              "type": "address"
            },
            {
              "internalType": "uint256",
              "name": "matchId",
              "type": "uint256"
            },
            {
              "internalType": "enum SmartBet.MatchResult",
              "name": "matchResult",
              "type": "uint8"
            },
            {
              "internalType": "uint256",
              "name": "initialValue",
              "type": "uint256"
            },
            {
              "internalType": "uint8",
              "name": "accruedInterest",
              "type": "uint8"
            }
          ],
          "internalType": "struct SmartBet.SmartAsset",
          "name": "asset",
          "type": "tuple"
        }
      ],
      "stateMutability": "view",
      "type": "function"
    },
    {
      "inputs": [],
      "name": "isAdmin",
      "outputs": [
        {
          "internalType": "bool",
          "name": "",
          "type": "bool"
        }
      ],
      "stateMutability": "view",
      "type": "function"
    },
    {
      "inputs": [
        {
          "internalType": "address",
          "name": "newOwner",
          "type": "address"
        }
      ],
      "name": "changeOwner",
      "outputs": [],
      "stateMutability": "nonpayable",
      "type": "function"
    }
  ],
  "bytecode": "0x60806040526000600960006101000a81548160ff0219169083151502179055503480156200002c57600080fd5b506040518060400160405280600881526020017f536d6172744265740000000000000000000000000000000000000000000000008152506040518060400160405280600481526020017f534d4254000000000000000000000000000000000000000000000000000000008152508160009081620000aa91906200047f565b508060019081620000bc91906200047f565b50505033600660006101000a81548173ffffffffffffffffffffffffffffffffffffffff021916908373ffffffffffffffffffffffffffffffffffffffff16021790555073ae13d989dac2f0debff460ac112a837c89baa7cd600f60006101000a81548173ffffffffffffffffffffffffffffffffffffffff021916908373ffffffffffffffffffffffffffffffffffffffff160217905550738301f2213c0eed49a7e28ae4c3e91722919b8b47601060006101000a81548173ffffffffffffffffffffffffffffffffffffffff021916908373ffffffffffffffffffffffffffffffffffffffff16021790555073d99d1c33f9fc3444f8101754abc46c52416550d1601160006101000a81548173ffffffffffffffffffffffffffffffffffffffff021916908373ffffffffffffffffffffffffffffffffffffffff16021790555062000566565b600081519050919050565b7f4e487b7100000000000000000000000000000000000000000000000000000000600052604160045260246000fd5b7f4e487b7100000000000000000000000000000000000000000000000000000000600052602260045260246000fd5b600060028204905060018216806200028757607f821691505b6020821081036200029d576200029c6200023f565b5b50919050565b60008190508160005260206000209050919050565b60006020601f8301049050919050565b600082821b905092915050565b600060088302620003077fffffffffffffffffffffffffffffffffffffffffffffffffffffffffffffffff82620002c8565b620003138683620002c8565b95508019841693508086168417925050509392505050565b6000819050919050565b6000819050919050565b6000620003606200035a62000354846200032b565b62000335565b6200032b565b9050919050565b6000819050919050565b6200037c836200033f565b620003946200038b8262000367565b848454620002d5565b825550505050565b600090565b620003ab6200039c565b620003b881848462000371565b505050565b5b81811015620003e057620003d4600082620003a1565b600181019050620003be565b5050565b601f8211156200042f57620003f981620002a3565b6200040484620002b8565b8101602085101562000414578190505b6200042c6200042385620002b8565b830182620003bd565b50505b505050565b600082821c905092915050565b6000620004546000198460080262000434565b1980831691505092915050565b60006200046f838362000441565b9150826002028217905092915050565b6200048a8262000205565b67ffffffffffffffff811115620004a657620004a562000210565b5b620004b282546200026e565b620004bf828285620003e4565b600060209050601f831160018114620004f75760008415620004e2578287015190505b620004ee858262000461565b8655506200055e565b601f1984166200050786620002a3565b60005b8281101562000531578489015182556001820191506020850194506020810190506200050a565b868310156200055157848901516200054d601f89168262000441565b8355505b6001600288020188555050505b505050505050565b6158a180620005766000396000f3fe6080604052600436106101855760003560e01c806395d89b41116100d1578063c87b56dd1161008a578063d5eb63cc11610064578063d5eb63cc146105bb578063e71efd95146105d2578063e985e9c5146105fd578063fcba1c231461063a5761018c565b8063c87b56dd14610516578063d02eb3f414610553578063d2c2cc841461057e5761018c565b806395d89b411461041c578063a22cb46514610447578063a6f9dae114610470578063b6db75a014610499578063b88d4fde146104c4578063bf725a84146104ed5761018c565b80633d092b3d1161013e5780635f74667b116101185780635f74667b146103495780636352211e1461037257806370a08231146103af5780638ea84c58146103ec5761018c565b80633d092b3d146102b857806342842e0e146102f5578063484f4ea91461031e5761018c565b806301ffc9a71461019157806303edf914146101ce57806306fdde03146101fe578063081812fc14610229578063095ea7b31461026657806323b872dd1461028f5761018c565b3661018c57005b600080fd5b34801561019d57600080fd5b506101b860048036038101906101b39190613c32565b610677565b6040516101c59190613c7a565b60405180910390f35b6101e860048036038101906101e39190613d04565b610759565b6040516101f59190613d53565b60405180910390f35b34801561020a57600080fd5b50610213610da7565b6040516102209190613dfe565b60405180910390f35b34801561023557600080fd5b50610250600480360381019061024b9190613e20565b610e39565b60405161025d9190613e8e565b60405180910390f35b34801561027257600080fd5b5061028d60048036038101906102889190613ed5565b610e7f565b005b34801561029b57600080fd5b506102b660048036038101906102b19190613f15565b610f96565b005b3480156102c457600080fd5b506102df60048036038101906102da9190613e20565b610ff6565b6040516102ec91906141d6565b60405180910390f35b34801561030157600080fd5b5061031c60048036038101906103179190613f15565b6112a6565b005b34801561032a57600080fd5b506103336112c6565b6040516103409190613e8e565b60405180910390f35b34801561035557600080fd5b50610370600480360381019061036b9190613d04565b6112de565b005b34801561037e57600080fd5b5061039960048036038101906103949190613e20565b611a3c565b6040516103a69190613e8e565b60405180910390f35b3480156103bb57600080fd5b506103d660048036038101906103d191906141f8565b611aed565b6040516103e39190613d53565b60405180910390f35b61040660048036038101906104019190613e20565b611ba4565b6040516104139190613c7a565b60405180910390f35b34801561042857600080fd5b50610431611f27565b60405161043e9190613dfe565b60405180910390f35b34801561045357600080fd5b5061046e60048036038101906104699190614251565b611fb9565b005b34801561047c57600080fd5b50610497600480360381019061049291906141f8565b611fcf565b005b3480156104a557600080fd5b506104ae6120a3565b6040516104bb9190613c7a565b60405180910390f35b3480156104d057600080fd5b506104eb60048036038101906104e691906143c6565b6120fb565b005b3480156104f957600080fd5b50610514600480360381019061050f9190613e20565b61215d565b005b34801561052257600080fd5b5061053d60048036038101906105389190613e20565b612320565b60405161054a9190613dfe565b60405180910390f35b34801561055f57600080fd5b50610568612388565b6040516105759190613e8e565b60405180910390f35b34801561058a57600080fd5b506105a560048036038101906105a09190613e20565b6123a0565b6040516105b291906144c0565b60405180910390f35b3480156105c757600080fd5b506105d0612551565b005b3480156105de57600080fd5b506105e761260d565b6040516105f49190613e8e565b60405180910390f35b34801561060957600080fd5b50610624600480360381019061061f91906144db565b612625565b6040516106319190613c7a565b60405180910390f35b34801561064657600080fd5b50610661600480360381019061065c91906145a7565b6126b9565b60405161066e9190613d53565b60405180910390f35b60007f80ac58cd000000000000000000000000000000000000000000000000000000007bffffffffffffffffffffffffffffffffffffffffffffffffffffffff1916827bffffffffffffffffffffffffffffffffffffffffffffffffffffffff1916148061074257507f5b5e139f000000000000000000000000000000000000000000000000000000007bffffffffffffffffffffffffffffffffffffffffffffffffffffffff1916827bffffffffffffffffffffffffffffffffffffffffffffffffffffffff1916145b80610752575061075182612ad3565b5b9050919050565b6000600960009054906101000a900460ff16156107ab576040517f08c379a00000000000000000000000000000000000000000000000000000000081526004016107a2906146a2565b60405180910390fd5b82600b600082815260200190815260200160002060080160009054906101000a900460ff1661080f576040517f08c379a00000000000000000000000000000000000000000000000000000000081526004016108069061470e565b60405180910390fd5b836000600281111561082457610823613fef565b5b600b600083815260200190815260200160002060060160019054906101000a900460ff16600281111561085a57610859613fef565b5b1461089a576040517f08c379a00000000000000000000000000000000000000000000000000000000081526004016108919061477a565b60405180910390fd5b8460016108dc576040517f08c379a00000000000000000000000000000000000000000000000000000000081526004016108d3906147e6565b60405180910390fd5b84600260038111156108f1576108f0613fef565b5b8160ff16600381111561090757610906613fef565b5b600381111561091957610918613fef565b5b148061095d575060038081111561093357610932613fef565b5b8160ff16600381111561094957610948613fef565b5b600381111561095b5761095a613fef565b5b145b806109a157506001600381111561097757610976613fef565b5b8160ff16600381111561098d5761098c613fef565b5b600381111561099f5761099e613fef565b5b145b6109e0576040517f08c379a00000000000000000000000000000000000000000000000000000000081526004016109d790614852565b60405180910390fd5b60003403610a23576040517f08c379a0000000000000000000000000000000000000000000000000000000008152600401610a1a906148be565b60405180910390fd5b42600b6000898152602001908152602001600020600701541015610a89576001600b600089815260200190815260200160002060060160016101000a81548160ff02191690836002811115610a7b57610a7a613fef565b5b021790555060009450610d9d565b600033905060008034905060008960ff166003811115610aac57610aab613fef565b5b905060026003811115610ac257610ac1613fef565b5b816003811115610ad557610ad4613fef565b5b03610b5a57610b1082600b60008e815260200190815260200160002060000160149054906101000a900463ffffffff1663ffffffff16612b3d565b9250610b3b83600b60008e815260200190815260200160002060020154612b6d90919063ffffffff16565b600b60008d815260200190815260200160002060020181905550610c82565b600380811115610b6d57610b6c613fef565b5b816003811115610b8057610b7f613fef565b5b03610c0557610bbb82600b60008e815260200190815260200160002060000160189054906101000a900463ffffffff1663ffffffff16612b3d565b9250610be683600b60008e815260200190815260200160002060030154612b6d90919063ffffffff16565b600b60008d815260200190815260200160002060030181905550610c81565b610c3b82600b60008e8152602001908152602001600020600001601c9054906101000a900463ffffffff1663ffffffff16612b3d565b9250610c6683600b60008e815260200190815260200160002060040154612b6d90919063ffffffff16565b600b60008d8152602001908152602001600020600401819055505b5b610cab82600b60008e815260200190815260200160002060050154612b6d90919063ffffffff16565b600b60008d8152602001908152602001600020600501819055506000610cd385858e85612b83565b9050600d60008d81526020019081526020016000206000836003811115610cfd57610cfc613fef565b5b6003811115610d0f57610d0e613fef565b5b8152602001908152602001600020819080600181540180825580915050600190039060005260206000200160009091909190915055428c8673ffffffffffffffffffffffffffffffffffffffff167fb1283c9c8bacdf8cd70a313323578124c5fe2beedea39d5b268157d1638236aa86604051610d8c9190613d53565b60405180910390a480995050505050505b5050505092915050565b606060008054610db69061490d565b80601f0160208091040260200160405190810160405280929190818152602001828054610de29061490d565b8015610e2f5780601f10610e0457610100808354040283529160200191610e2f565b820191906000526020600020905b815481529060010190602001808311610e1257829003601f168201915b5050505050905090565b6000610e4482612d19565b6004600083815260200190815260200160002060009054906101000a900473ffffffffffffffffffffffffffffffffffffffff169050919050565b6000610e8a82611a3c565b90508073ffffffffffffffffffffffffffffffffffffffff168373ffffffffffffffffffffffffffffffffffffffff1603610efa576040517f08c379a0000000000000000000000000000000000000000000000000000000008152600401610ef1906149b0565b60405180910390fd5b8073ffffffffffffffffffffffffffffffffffffffff16610f19612d64565b73ffffffffffffffffffffffffffffffffffffffff161480610f485750610f4781610f42612d64565b612625565b5b610f87576040517f08c379a0000000000000000000000000000000000000000000000000000000008152600401610f7e90614a42565b60405180910390fd5b610f918383612d6c565b505050565b610fa7610fa1612d64565b82612e25565b610fe6576040517f08c379a0000000000000000000000000000000000000000000000000000000008152600401610fdd90614ad4565b60405180910390fd5b610ff1838383612eba565b505050565b610ffe613ab6565b81600b600082815260200190815260200160002060080160009054906101000a900460ff16611062576040517f08c379a00000000000000000000000000000000000000000000000000000000081526004016110599061470e565b60405180910390fd5b600b6000848152602001908152602001600020604051806101a00160405290816000820160009054906101000a900473ffffffffffffffffffffffffffffffffffffffff1673ffffffffffffffffffffffffffffffffffffffff1673ffffffffffffffffffffffffffffffffffffffff1681526020016000820160149054906101000a900463ffffffff1663ffffffff1663ffffffff1681526020016000820160189054906101000a900463ffffffff1663ffffffff1663ffffffff16815260200160008201601c9054906101000a900463ffffffff1663ffffffff1663ffffffff1681526020016001820180546111599061490d565b80601f01602080910402602001604051908101604052809291908181526020018280546111859061490d565b80156111d25780601f106111a7576101008083540402835291602001916111d2565b820191906000526020600020905b8154815290600101906020018083116111b557829003601f168201915b50505050508152602001600282015481526020016003820154815260200160048201548152602001600582015481526020016006820160009054906101000a900460ff16600381111561122857611227613fef565b5b600381111561123a57611239613fef565b5b81526020016006820160019054906101000a900460ff16600281111561126357611262613fef565b5b600281111561127557611274613fef565b5b8152602001600782015481526020016008820160009054906101000a900460ff161515151581525050915050919050565b6112c1838383604051806020016040528060008152506120fb565b505050565b738301f2213c0eed49a7e28ae4c3e91722919b8b4781565b600660009054906101000a900473ffffffffffffffffffffffffffffffffffffffff1673ffffffffffffffffffffffffffffffffffffffff163373ffffffffffffffffffffffffffffffffffffffff161461136e576040517f08c379a000000000000000000000000000000000000000000000000000000000815260040161136590614b40565b60405180910390fd5b81600b600082815260200190815260200160002060080160009054906101000a900460ff166113d2576040517f08c379a00000000000000000000000000000000000000000000000000000000081526004016113c99061470e565b60405180910390fd5b82600160028111156113e7576113e6613fef565b5b600b600083815260200190815260200160002060060160019054906101000a900460ff16600281111561141d5761141c613fef565b5b1461145d576040517f08c379a000000000000000000000000000000000000000000000000000000000815260040161145490614bac565b60405180910390fd5b826002600381111561147257611471613fef565b5b8160ff16600381111561148857611487613fef565b5b600381111561149a57611499613fef565b5b14806114de57506003808111156114b4576114b3613fef565b5b8160ff1660038111156114ca576114c9613fef565b5b60038111156114dc576114db613fef565b5b145b806115225750600160038111156114f8576114f7613fef565b5b8160ff16600381111561150e5761150d613fef565b5b60038111156115205761151f613fef565b5b145b611561576040517f08c379a000000000000000000000000000000000000000000000000000000000815260040161155890614852565b60405180910390fd5b6002600b600087815260200190815260200160002060060160016101000a81548160ff0219169083600281111561159b5761159a613fef565b5b021790555060008460ff1660038111156115b8576115b7613fef565b5b90506115c48682613120565b600260038111156115d8576115d7613fef565b5b8160038111156115eb576115ea613fef565b5b036117345761168f600d6000888152602001908152602001600020600060038081111561161b5761161a613fef565b5b600381111561162d5761162c613fef565b5b815260200190815260200160002080548060200260200160405190810160405280929190818152602001828054801561168557602002820191906000526020600020905b815481526020019060010190808311611671575b50505050506131bf565b61172f600d60008881526020019081526020016000206000600160038111156116bb576116ba613fef565b5b60038111156116cd576116cc613fef565b5b815260200190815260200160002080548060200260200160405190810160405280929190818152602001828054801561172557602002820191906000526020600020905b815481526020019060010190808311611711575b50505050506131bf565b6119e5565b60038081111561174757611746613fef565b5b81600381111561175a57611759613fef565b5b036118a4576117ff600d600088815260200190815260200160002060006002600381111561178b5761178a613fef565b5b600381111561179d5761179c613fef565b5b81526020019081526020016000208054806020026020016040519081016040528092919081815260200182805480156117f557602002820191906000526020600020905b8154815260200190600101908083116117e1575b50505050506131bf565b61189f600d600088815260200190815260200160002060006001600381111561182b5761182a613fef565b5b600381111561183d5761183c613fef565b5b815260200190815260200160002080548060200260200160405190810160405280929190818152602001828054801561189557602002820191906000526020600020905b815481526020019060010190808311611881575b50505050506131bf565b6119e4565b611944600d60008881526020019081526020016000206000600260038111156118d0576118cf613fef565b5b60038111156118e2576118e1613fef565b5b815260200190815260200160002080548060200260200160405190810160405280929190818152602001828054801561193a57602002820191906000526020600020905b815481526020019060010190808311611926575b50505050506131bf565b6119e3600d6000888152602001908152602001600020600060038081111561196f5761196e613fef565b5b600381111561198157611980613fef565b5b81526020019081526020016000208054806020026020016040519081016040528092919081815260200182805480156119d957602002820191906000526020600020905b8154815260200190600101908083116119c5575b50505050506131bf565b5b5b853373ffffffffffffffffffffffffffffffffffffffff167fd29dba8c386c3bc42bf8ec778a1dfa55ec92d4ec2799213b01d4d627487d97bb42604051611a2c9190613d53565b60405180910390a3505050505050565b6000806002600084815260200190815260200160002060009054906101000a900473ffffffffffffffffffffffffffffffffffffffff169050600073ffffffffffffffffffffffffffffffffffffffff168173ffffffffffffffffffffffffffffffffffffffff1603611ae4576040517f08c379a0000000000000000000000000000000000000000000000000000000008152600401611adb90614c18565b60405180910390fd5b80915050919050565b60008073ffffffffffffffffffffffffffffffffffffffff168273ffffffffffffffffffffffffffffffffffffffff1603611b5d576040517f08c379a0000000000000000000000000000000000000000000000000000000008152600401611b5490614caa565b60405180910390fd5b600360008373ffffffffffffffffffffffffffffffffffffffff1673ffffffffffffffffffffffffffffffffffffffff168152602001908152602001600020549050919050565b6000600960009054906101000a900460ff1615611bf6576040517f08c379a0000000000000000000000000000000000000000000000000000000008152600401611bed906146a2565b60405180910390fd5b81611c0081613205565b611c3f576040517f08c379a0000000000000000000000000000000000000000000000000000000008152600401611c3690614d16565b60405180910390fd5b823373ffffffffffffffffffffffffffffffffffffffff16611c6082611a3c565b73ffffffffffffffffffffffffffffffffffffffff1614611cb6576040517f08c379a0000000000000000000000000000000000000000000000000000000008152600401611cad90614d82565b60405180910390fd5b6000600a60008681526020019081526020016000206040518060a00160405290816000820160009054906101000a900473ffffffffffffffffffffffffffffffffffffffff1673ffffffffffffffffffffffffffffffffffffffff1673ffffffffffffffffffffffffffffffffffffffff168152602001600182015481526020016002820160009054906101000a900460ff166003811115611d5b57611d5a613fef565b5b6003811115611d6d57611d6c613fef565b5b8152602001600382015481526020016004820160009054906101000a900460ff1660ff1660ff16815250509050600280811115611dad57611dac613fef565b5b600b60008360200151815260200190815260200160002060060160019054906101000a900460ff166002811115611de757611de6613fef565b5b14611e27576040517f08c379a0000000000000000000000000000000000000000000000000000000008152600401611e1e90614e14565b60405180910390fd5b8060600151471015611e6e576040517f08c379a0000000000000000000000000000000000000000000000000000000008152600401611e6590614e80565b60405180910390fd5b611e7785613271565b3373ffffffffffffffffffffffffffffffffffffffff166108fc82606001519081150290604051600060405180830381858888f19350505050158015611ec1573d6000803e3d6000fd5b5080602001513373ffffffffffffffffffffffffffffffffffffffff167f272d35cd904617477d1f00fc52a260e0fd2bbdb7052bb00fc0793393cc1c8d1a836060015142604051611f13929190614ea0565b60405180910390a360019350505050919050565b606060018054611f369061490d565b80601f0160208091040260200160405190810160405280929190818152602001828054611f629061490d565b8015611faf5780601f10611f8457610100808354040283529160200191611faf565b820191906000526020600020905b815481529060010190602001808311611f9257829003601f168201915b5050505050905090565b611fcb611fc4612d64565b838361327d565b5050565b600660009054906101000a900473ffffffffffffffffffffffffffffffffffffffff1673ffffffffffffffffffffffffffffffffffffffff163373ffffffffffffffffffffffffffffffffffffffff161461205f576040517f08c379a000000000000000000000000000000000000000000000000000000000815260040161205690614b40565b60405180910390fd5b80600660006101000a81548173ffffffffffffffffffffffffffffffffffffffff021916908373ffffffffffffffffffffffffffffffffffffffff16021790555050565b6000600660009054906101000a900473ffffffffffffffffffffffffffffffffffffffff1673ffffffffffffffffffffffffffffffffffffffff163373ffffffffffffffffffffffffffffffffffffffff1614905090565b61210c612106612d64565b83612e25565b61214b576040517f08c379a000000000000000000000000000000000000000000000000000000000815260040161214290614ad4565b60405180910390fd5b612157848484846133e9565b50505050565b600660009054906101000a900473ffffffffffffffffffffffffffffffffffffffff1673ffffffffffffffffffffffffffffffffffffffff163373ffffffffffffffffffffffffffffffffffffffff16146121ed576040517f08c379a00000000000000000000000000000000000000000000000000000000081526004016121e490614b40565b60405180910390fd5b80600b600082815260200190815260200160002060080160009054906101000a900460ff16612251576040517f08c379a00000000000000000000000000000000000000000000000000000000081526004016122489061470e565b60405180910390fd5b816000600281111561226657612265613fef565b5b600b600083815260200190815260200160002060060160019054906101000a900460ff16600281111561229c5761229b613fef565b5b146122dc576040517f08c379a00000000000000000000000000000000000000000000000000000000081526004016122d39061477a565b60405180910390fd5b6001600b600085815260200190815260200160002060060160016101000a81548160ff0219169083600281111561231657612315613fef565b5b0217905550505050565b606061232b82612d19565b6000612335613445565b905060008151116123555760405180602001604052806000815250612380565b8061235f8461345c565b604051602001612370929190614f05565b6040516020818303038152906040525b915050919050565b73ae13d989dac2f0debff460ac112a837c89baa7cd81565b6123a8613b6c565b816123b281613205565b6123f1576040517f08c379a00000000000000000000000000000000000000000000000000000000081526004016123e890614d16565b60405180910390fd5b823373ffffffffffffffffffffffffffffffffffffffff1661241282611a3c565b73ffffffffffffffffffffffffffffffffffffffff1614612468576040517f08c379a000000000000000000000000000000000000000000000000000000000815260040161245f90614d82565b60405180910390fd5b600a60008581526020019081526020016000206040518060a00160405290816000820160009054906101000a900473ffffffffffffffffffffffffffffffffffffffff1673ffffffffffffffffffffffffffffffffffffffff1673ffffffffffffffffffffffffffffffffffffffff168152602001600182015481526020016002820160009054906101000a900460ff16600381111561250b5761250a613fef565b5b600381111561251d5761251c613fef565b5b8152602001600382015481526020016004820160009054906101000a900460ff1660ff1660ff168152505092505050919050565b600660009054906101000a900473ffffffffffffffffffffffffffffffffffffffff1673ffffffffffffffffffffffffffffffffffffffff163373ffffffffffffffffffffffffffffffffffffffff16146125e1576040517f08c379a00000000000000000000000000000000000000000000000000000000081526004016125d890614b40565b60405180910390fd5b600960009054906101000a900460ff1615600960006101000a81548160ff021916908315150217905550565b73d99d1c33f9fc3444f8101754abc46c52416550d181565b6000600560008473ffffffffffffffffffffffffffffffffffffffff1673ffffffffffffffffffffffffffffffffffffffff16815260200190815260200160002060008373ffffffffffffffffffffffffffffffffffffffff1673ffffffffffffffffffffffffffffffffffffffff16815260200190815260200160002060009054906101000a900460ff16905092915050565b6000876000600c60008381526020019081526020016000205414612712576040517f08c379a000000000000000000000000000000000000000000000000000000000815260040161270990614f75565b60405180910390fd5b600660009054906101000a900473ffffffffffffffffffffffffffffffffffffffff1673ffffffffffffffffffffffffffffffffffffffff163373ffffffffffffffffffffffffffffffffffffffff16146127a2576040517f08c379a000000000000000000000000000000000000000000000000000000000815260040161279990614b40565b60405180910390fd5b6127ac60076135bc565b60006127b860076135d2565b9050604051806101a001604052803373ffffffffffffffffffffffffffffffffffffffff1681526020018863ffffffff1681526020018763ffffffff1681526020018663ffffffff1681526020018a8a8080601f016020809104026020016040519081016040528093929190818152602001838380828437600081840152601f19601f82011690508083019250505050505050815260200160008152602001600081526020016000815260200160008152602001600060038111156128805761287f613fef565b5b81526020016000600281111561289957612898613fef565b5b815260200185815260200160011515815250600b600083815260200190815260200160002060008201518160000160006101000a81548173ffffffffffffffffffffffffffffffffffffffff021916908373ffffffffffffffffffffffffffffffffffffffff16021790555060208201518160000160146101000a81548163ffffffff021916908363ffffffff16021790555060408201518160000160186101000a81548163ffffffff021916908363ffffffff160217905550606082015181600001601c6101000a81548163ffffffff021916908363ffffffff160217905550608082015181600101908161298f9190615141565b5060a0820151816002015560c0820151816003015560e0820151816004015561010082015181600501556101208201518160060160006101000a81548160ff021916908360038111156129e5576129e4613fef565b5b02179055506101408201518160060160016101000a81548160ff02191690836002811115612a1657612a15613fef565b5b021790555061016082015181600701556101808201518160080160006101000a81548160ff02191690831515021790555090505080600c60008c81526020019081526020016000208190555060006201518042612a739190615242565b42612a7e91906152a2565b9050808b837fef880b66cad6694f1d559f8c2a1c8db66b62664292c4d53e18eb7d13a2d9f47a33898d8d8d604051612aba9594939291906152e5565b60405180910390a4819350505050979650505050505050565b60007f01ffc9a7000000000000000000000000000000000000000000000000000000007bffffffffffffffffffffffffffffffffffffffffffffffffffffffff1916827bffffffffffffffffffffffffffffffffffffffffffffffffffffffff1916149050919050565b6000612b656064612b5784866135e090919063ffffffff16565b6135f690919063ffffffff16565b905092915050565b60008183612b7b9190615338565b905092915050565b6000612b8f60086135bc565b6000612b9b60086135d2565b9050612ba7868261360c565b6040518060a001604052803373ffffffffffffffffffffffffffffffffffffffff168152602001858152602001846003811115612be757612be6613fef565b5b8152602001868152602001600060ff16815250600a600083815260200190815260200160002060008201518160000160006101000a81548173ffffffffffffffffffffffffffffffffffffffff021916908373ffffffffffffffffffffffffffffffffffffffff1602179055506020820151816001015560408201518160020160006101000a81548160ff02191690836003811115612c8957612c88613fef565b5b02179055506060820151816003015560808201518160040160006101000a81548160ff021916908360ff160217905550905050838673ffffffffffffffffffffffffffffffffffffffff167f1d19c024934fa0f77dcd9882c16d32cc719ae6b34614fab7cfe414c24d53f6478342604051612d05929190614ea0565b60405180910390a380915050949350505050565b612d2281613205565b612d61576040517f08c379a0000000000000000000000000000000000000000000000000000000008152600401612d5890614c18565b60405180910390fd5b50565b600033905090565b816004600083815260200190815260200160002060006101000a81548173ffffffffffffffffffffffffffffffffffffffff021916908373ffffffffffffffffffffffffffffffffffffffff160217905550808273ffffffffffffffffffffffffffffffffffffffff16612ddf83611a3c565b73ffffffffffffffffffffffffffffffffffffffff167f8c5be1e5ebec7d5bd14f71427d1e84f3dd0314c0f7b2291e5b200ac8c7c3b92560405160405180910390a45050565b600080612e3183611a3c565b90508073ffffffffffffffffffffffffffffffffffffffff168473ffffffffffffffffffffffffffffffffffffffff161480612e735750612e728185612625565b5b80612eb157508373ffffffffffffffffffffffffffffffffffffffff16612e9984610e39565b73ffffffffffffffffffffffffffffffffffffffff16145b91505092915050565b8273ffffffffffffffffffffffffffffffffffffffff16612eda82611a3c565b73ffffffffffffffffffffffffffffffffffffffff1614612f30576040517f08c379a0000000000000000000000000000000000000000000000000000000008152600401612f27906153de565b60405180910390fd5b600073ffffffffffffffffffffffffffffffffffffffff168273ffffffffffffffffffffffffffffffffffffffff1603612f9f576040517f08c379a0000000000000000000000000000000000000000000000000000000008152600401612f9690615470565b60405180910390fd5b612faa8383836137e5565b612fb5600082612d6c565b6001600360008573ffffffffffffffffffffffffffffffffffffffff1673ffffffffffffffffffffffffffffffffffffffff168152602001908152602001600020600082825461300591906152a2565b925050819055506001600360008473ffffffffffffffffffffffffffffffffffffffff1673ffffffffffffffffffffffffffffffffffffffff168152602001908152602001600020600082825461305c9190615338565b92505081905550816002600083815260200190815260200160002060006101000a81548173ffffffffffffffffffffffffffffffffffffffff021916908373ffffffffffffffffffffffffffffffffffffffff160217905550808273ffffffffffffffffffffffffffffffffffffffff168473ffffffffffffffffffffffffffffffffffffffff167fddf252ad1be2c89b69c2b068fc378daa952ba7f163c4a11628f55a4df523b3ef60405160405180910390a461311b8383836137ea565b505050565b80600b600084815260200190815260200160002060060160006101000a81548160ff0219169083600381111561315957613158613fef565b5b0217905550817f82ab24714d54369c755574228baf8bf3da9c1170142baa4a09b52257853c6dae600b600085815260200190815260200160002060060160009054906101000a900460ff16426040516131b392919061549f565b60405180910390a25050565b60005b8151811015613201576131ee8282815181106131e1576131e06154c8565b5b6020026020010151613271565b80806131f9906154f7565b9150506131c2565b5050565b60008073ffffffffffffffffffffffffffffffffffffffff166002600084815260200190815260200160002060009054906101000a900473ffffffffffffffffffffffffffffffffffffffff1673ffffffffffffffffffffffffffffffffffffffff1614159050919050565b61327a816137ef565b50565b8173ffffffffffffffffffffffffffffffffffffffff168373ffffffffffffffffffffffffffffffffffffffff16036132eb576040517f08c379a00000000000000000000000000000000000000000000000000000000081526004016132e29061558b565b60405180910390fd5b80600560008573ffffffffffffffffffffffffffffffffffffffff1673ffffffffffffffffffffffffffffffffffffffff16815260200190815260200160002060008473ffffffffffffffffffffffffffffffffffffffff1673ffffffffffffffffffffffffffffffffffffffff16815260200190815260200160002060006101000a81548160ff0219169083151502179055508173ffffffffffffffffffffffffffffffffffffffff168373ffffffffffffffffffffffffffffffffffffffff167f17307eab39ab6107e8899845ad3d59bd9653f200f220920489ca2b5937696c31836040516133dc9190613c7a565b60405180910390a3505050565b6133f4848484612eba565b6134008484848461390c565b61343f576040517f08c379a00000000000000000000000000000000000000000000000000000000081526004016134369061561d565b60405180910390fd5b50505050565b606060405180602001604052806000815250905090565b6060600082036134a3576040518060400160405280600181526020017f300000000000000000000000000000000000000000000000000000000000000081525090506135b7565b600082905060005b600082146134d55780806134be906154f7565b915050600a826134ce919061563d565b91506134ab565b60008167ffffffffffffffff8111156134f1576134f061429b565b5b6040519080825280601f01601f1916602001820160405280156135235781602001600182028036833780820191505090505b5090505b600085146135b05760018261353c91906152a2565b9150600a8561354b9190615242565b60306135579190615338565b60f81b81838151811061356d5761356c6154c8565b5b60200101907effffffffffffffffffffffffffffffffffffffffffffffffffffffffffffff1916908160001a905350600a856135a9919061563d565b9450613527565b8093505050505b919050565b6001816000016000828254019250508190555050565b600081600001549050919050565b600081836135ee919061566e565b905092915050565b60008183613604919061563d565b905092915050565b600073ffffffffffffffffffffffffffffffffffffffff168273ffffffffffffffffffffffffffffffffffffffff160361367b576040517f08c379a0000000000000000000000000000000000000000000000000000000008152600401613672906156fc565b60405180910390fd5b61368481613205565b156136c4576040517f08c379a00000000000000000000000000000000000000000000000000000000081526004016136bb90615768565b60405180910390fd5b6136d0600083836137e5565b6001600360008473ffffffffffffffffffffffffffffffffffffffff1673ffffffffffffffffffffffffffffffffffffffff16815260200190815260200160002060008282546137209190615338565b92505081905550816002600083815260200190815260200160002060006101000a81548173ffffffffffffffffffffffffffffffffffffffff021916908373ffffffffffffffffffffffffffffffffffffffff160217905550808273ffffffffffffffffffffffffffffffffffffffff16600073ffffffffffffffffffffffffffffffffffffffff167fddf252ad1be2c89b69c2b068fc378daa952ba7f163c4a11628f55a4df523b3ef60405160405180910390a46137e1600083836137ea565b5050565b505050565b505050565b60006137fa82611a3c565b9050613808816000846137e5565b613813600083612d6c565b6001600360008373ffffffffffffffffffffffffffffffffffffffff1673ffffffffffffffffffffffffffffffffffffffff168152602001908152602001600020600082825461386391906152a2565b925050819055506002600083815260200190815260200160002060006101000a81549073ffffffffffffffffffffffffffffffffffffffff021916905581600073ffffffffffffffffffffffffffffffffffffffff168273ffffffffffffffffffffffffffffffffffffffff167fddf252ad1be2c89b69c2b068fc378daa952ba7f163c4a11628f55a4df523b3ef60405160405180910390a4613908816000846137ea565b5050565b600061392d8473ffffffffffffffffffffffffffffffffffffffff16613a93565b15613a86578373ffffffffffffffffffffffffffffffffffffffff1663150b7a02613956612d64565b8786866040518563ffffffff1660e01b815260040161397894939291906157dd565b6020604051808303816000875af19250505080156139b457506040513d601f19601f820116820180604052508101906139b1919061583e565b60015b613a36573d80600081146139e4576040519150601f19603f3d011682016040523d82523d6000602084013e6139e9565b606091505b506000815103613a2e576040517f08c379a0000000000000000000000000000000000000000000000000000000008152600401613a259061561d565b60405180910390fd5b805181602001fd5b63150b7a0260e01b7bffffffffffffffffffffffffffffffffffffffffffffffffffffffff1916817bffffffffffffffffffffffffffffffffffffffffffffffffffffffff191614915050613a8b565b600190505b949350505050565b6000808273ffffffffffffffffffffffffffffffffffffffff163b119050919050565b604051806101a00160405280600073ffffffffffffffffffffffffffffffffffffffff168152602001600063ffffffff168152602001600063ffffffff168152602001600063ffffffff168152602001606081526020016000815260200160008152602001600081526020016000815260200160006003811115613b3d57613b3c613fef565b5b815260200160006002811115613b5657613b55613fef565b5b8152602001600081526020016000151581525090565b6040518060a00160405280600073ffffffffffffffffffffffffffffffffffffffff1681526020016000815260200160006003811115613baf57613bae613fef565b5b815260200160008152602001600060ff1681525090565b6000604051905090565b600080fd5b600080fd5b60007fffffffff0000000000000000000000000000000000000000000000000000000082169050919050565b613c0f81613bda565b8114613c1a57600080fd5b50565b600081359050613c2c81613c06565b92915050565b600060208284031215613c4857613c47613bd0565b5b6000613c5684828501613c1d565b91505092915050565b60008115159050919050565b613c7481613c5f565b82525050565b6000602082019050613c8f6000830184613c6b565b92915050565b6000819050919050565b613ca881613c95565b8114613cb357600080fd5b50565b600081359050613cc581613c9f565b92915050565b600060ff82169050919050565b613ce181613ccb565b8114613cec57600080fd5b50565b600081359050613cfe81613cd8565b92915050565b60008060408385031215613d1b57613d1a613bd0565b5b6000613d2985828601613cb6565b9250506020613d3a85828601613cef565b9150509250929050565b613d4d81613c95565b82525050565b6000602082019050613d686000830184613d44565b92915050565b600081519050919050565b600082825260208201905092915050565b60005b83811015613da8578082015181840152602081019050613d8d565b60008484015250505050565b6000601f19601f8301169050919050565b6000613dd082613d6e565b613dda8185613d79565b9350613dea818560208601613d8a565b613df381613db4565b840191505092915050565b60006020820190508181036000830152613e188184613dc5565b905092915050565b600060208284031215613e3657613e35613bd0565b5b6000613e4484828501613cb6565b91505092915050565b600073ffffffffffffffffffffffffffffffffffffffff82169050919050565b6000613e7882613e4d565b9050919050565b613e8881613e6d565b82525050565b6000602082019050613ea36000830184613e7f565b92915050565b613eb281613e6d565b8114613ebd57600080fd5b50565b600081359050613ecf81613ea9565b92915050565b60008060408385031215613eec57613eeb613bd0565b5b6000613efa85828601613ec0565b9250506020613f0b85828601613cb6565b9150509250929050565b600080600060608486031215613f2e57613f2d613bd0565b5b6000613f3c86828701613ec0565b9350506020613f4d86828701613ec0565b9250506040613f5e86828701613cb6565b9150509250925092565b613f7181613e6d565b82525050565b600063ffffffff82169050919050565b613f9081613f77565b82525050565b600082825260208201905092915050565b6000613fb282613d6e565b613fbc8185613f96565b9350613fcc818560208601613d8a565b613fd581613db4565b840191505092915050565b613fe981613c95565b82525050565b7f4e487b7100000000000000000000000000000000000000000000000000000000600052602160045260246000fd5b6004811061402f5761402e613fef565b5b50565b60008190506140408261401e565b919050565b600061405082614032565b9050919050565b61406081614045565b82525050565b6003811061407757614076613fef565b5b50565b600081905061408882614066565b919050565b60006140988261407a565b9050919050565b6140a88161408d565b82525050565b6140b781613c5f565b82525050565b60006101a0830160008301516140d66000860182613f68565b5060208301516140e96020860182613f87565b5060408301516140fc6040860182613f87565b50606083015161410f6060860182613f87565b50608083015184820360808601526141278282613fa7565b91505060a083015161413c60a0860182613fe0565b5060c083015161414f60c0860182613fe0565b5060e083015161416260e0860182613fe0565b50610100830151614177610100860182613fe0565b5061012083015161418c610120860182614057565b506101408301516141a161014086018261409f565b506101608301516141b6610160860182613fe0565b506101808301516141cb6101808601826140ae565b508091505092915050565b600060208201905081810360008301526141f081846140bd565b905092915050565b60006020828403121561420e5761420d613bd0565b5b600061421c84828501613ec0565b91505092915050565b61422e81613c5f565b811461423957600080fd5b50565b60008135905061424b81614225565b92915050565b6000806040838503121561426857614267613bd0565b5b600061427685828601613ec0565b92505060206142878582860161423c565b9150509250929050565b600080fd5b600080fd5b7f4e487b7100000000000000000000000000000000000000000000000000000000600052604160045260246000fd5b6142d382613db4565b810181811067ffffffffffffffff821117156142f2576142f161429b565b5b80604052505050565b6000614305613bc6565b905061431182826142ca565b919050565b600067ffffffffffffffff8211156143315761433061429b565b5b61433a82613db4565b9050602081019050919050565b82818337600083830152505050565b600061436961436484614316565b6142fb565b90508281526020810184848401111561438557614384614296565b5b614390848285614347565b509392505050565b600082601f8301126143ad576143ac614291565b5b81356143bd848260208601614356565b91505092915050565b600080600080608085870312156143e0576143df613bd0565b5b60006143ee87828801613ec0565b94505060206143ff87828801613ec0565b935050604061441087828801613cb6565b925050606085013567ffffffffffffffff81111561443157614430613bd5565b5b61443d87828801614398565b91505092959194509250565b61445281613ccb565b82525050565b60a08201600082015161446e6000850182613f68565b5060208201516144816020850182613fe0565b5060408201516144946040850182614057565b5060608201516144a76060850182613fe0565b5060808201516144ba6080850182614449565b50505050565b600060a0820190506144d56000830184614458565b92915050565b600080604083850312156144f2576144f1613bd0565b5b600061450085828601613ec0565b925050602061451185828601613ec0565b9150509250929050565b600080fd5b600080fd5b60008083601f84011261453b5761453a614291565b5b8235905067ffffffffffffffff8111156145585761455761451b565b5b60208301915083600182028301111561457457614573614520565b5b9250929050565b61458481613f77565b811461458f57600080fd5b50565b6000813590506145a18161457b565b92915050565b600080600080600080600060c0888a0312156145c6576145c5613bd0565b5b60006145d48a828b01613cb6565b975050602088013567ffffffffffffffff8111156145f5576145f4613bd5565b5b6146018a828b01614525565b965096505060406146148a828b01614592565b94505060606146258a828b01614592565b93505060806146368a828b01614592565b92505060a06146478a828b01613cb6565b91505092959891949750929550565b7f4369726375697420627265616b6572206973206f6e0000000000000000000000600082015250565b600061468c601583613d79565b915061469782614656565b602082019050919050565b600060208201905081810360008301526146bb8161467f565b9050919050565b7f6f6e20636861696e206d6174636820646f6573206e6f74206578697374000000600082015250565b60006146f8601d83613d79565b9150614703826146c2565b602082019050919050565b60006020820190508181036000830152614727816146eb565b9050919050565b7f6d61746368207374617274656400000000000000000000000000000000000000600082015250565b6000614764600d83613d79565b915061476f8261472e565b602082019050919050565b6000602082019050818103600083015261479381614757565b9050919050565b7f426574206973206e6f7420616c6c6f7765640000000000000000000000000000600082015250565b60006147d0601283613d79565b91506147db8261479a565b602082019050919050565b600060208201905081810360008301526147ff816147c3565b9050919050565b7f496e76616c6964206d6174636820726573756c74000000000000000000000000600082015250565b600061483c601483613d79565b915061484782614806565b602082019050919050565b6000602082019050818103600083015261486b8161482f565b9050919050565b7f496e76616c696420616d6f756e74206265740000000000000000000000000000600082015250565b60006148a8601283613d79565b91506148b382614872565b602082019050919050565b600060208201905081810360008301526148d78161489b565b9050919050565b7f4e487b7100000000000000000000000000000000000000000000000000000000600052602260045260246000fd5b6000600282049050600182168061492557607f821691505b602082108103614938576149376148de565b5b50919050565b7f4552433732313a20617070726f76616c20746f2063757272656e74206f776e6560008201527f7200000000000000000000000000000000000000000000000000000000000000602082015250565b600061499a602183613d79565b91506149a58261493e565b604082019050919050565b600060208201905081810360008301526149c98161498d565b9050919050565b7f4552433732313a20617070726f76652063616c6c6572206973206e6f7420746f60008201527f6b656e206f776e6572206e6f7220617070726f76656420666f7220616c6c0000602082015250565b6000614a2c603e83613d79565b9150614a37826149d0565b604082019050919050565b60006020820190508181036000830152614a5b81614a1f565b9050919050565b7f4552433732313a2063616c6c6572206973206e6f7420746f6b656e206f776e6560008201527f72206e6f7220617070726f766564000000000000000000000000000000000000602082015250565b6000614abe602e83613d79565b9150614ac982614a62565b604082019050919050565b60006020820190508181036000830152614aed81614ab1565b9050919050565b7f63616c6c6572206973206e6f74206f776e657200000000000000000000000000600082015250565b6000614b2a601383613d79565b9150614b3582614af4565b602082019050919050565b60006020820190508181036000830152614b5981614b1d565b9050919050565b7f6d61746368206e6f742073746172746564000000000000000000000000000000600082015250565b6000614b96601183613d79565b9150614ba182614b60565b602082019050919050565b60006020820190508181036000830152614bc581614b89565b9050919050565b7f4552433732313a20696e76616c696420746f6b656e2049440000000000000000600082015250565b6000614c02601883613d79565b9150614c0d82614bcc565b602082019050919050565b60006020820190508181036000830152614c3181614bf5565b9050919050565b7f4552433732313a2061646472657373207a65726f206973206e6f74206120766160008201527f6c6964206f776e65720000000000000000000000000000000000000000000000602082015250565b6000614c94602983613d79565b9150614c9f82614c38565b604082019050919050565b60006020820190508181036000830152614cc381614c87565b9050919050565b7f496e76616c696420746f6b656e00000000000000000000000000000000000000600082015250565b6000614d00600d83613d79565b9150614d0b82614cca565b602082019050919050565b60006020820190508181036000830152614d2f81614cf3565b9050919050565b7f63616c6c6572206973206e6f7420746f6b656e206f776e657200000000000000600082015250565b6000614d6c601983613d79565b9150614d7782614d36565b602082019050919050565b60006020820190508181036000830152614d9b81614d5f565b9050919050565b7f43616e6e6f74206c697175696461746520617373657420756e74696c206d617460008201527f63682069732066696e6973686564000000000000000000000000000000000000602082015250565b6000614dfe602e83613d79565b9150614e0982614da2565b604082019050919050565b60006020820190508181036000830152614e2d81614df1565b9050919050565b7f436f6e74726163742068617320696e73756666696369656e742066756e647300600082015250565b6000614e6a601f83613d79565b9150614e7582614e34565b602082019050919050565b60006020820190508181036000830152614e9981614e5d565b9050919050565b6000604082019050614eb56000830185613d44565b614ec26020830184613d44565b9392505050565b600081905092915050565b6000614edf82613d6e565b614ee98185614ec9565b9350614ef9818560208601613d8a565b80840191505092915050565b6000614f118285614ed4565b9150614f1d8284614ed4565b91508190509392505050565b7f617069206d617463682049442065786973747300000000000000000000000000600082015250565b6000614f5f601383613d79565b9150614f6a82614f29565b602082019050919050565b60006020820190508181036000830152614f8e81614f52565b9050919050565b60008190508160005260206000209050919050565b60006020601f8301049050919050565b600082821b905092915050565b600060088302614ff77fffffffffffffffffffffffffffffffffffffffffffffffffffffffffffffffff82614fba565b6150018683614fba565b95508019841693508086168417925050509392505050565b6000819050919050565b600061503e61503961503484613c95565b615019565b613c95565b9050919050565b6000819050919050565b61505883615023565b61506c61506482615045565b848454614fc7565b825550505050565b600090565b615081615074565b61508c81848461504f565b505050565b5b818110156150b0576150a5600082615079565b600181019050615092565b5050565b601f8211156150f5576150c681614f95565b6150cf84614faa565b810160208510156150de578190505b6150f26150ea85614faa565b830182615091565b50505b505050565b600082821c905092915050565b6000615118600019846008026150fa565b1980831691505092915050565b60006151318383615107565b9150826002028217905092915050565b61514a82613d6e565b67ffffffffffffffff8111156151635761516261429b565b5b61516d825461490d565b6151788282856150b4565b600060209050601f8311600181146151ab5760008415615199578287015190505b6151a38582615125565b86555061520b565b601f1984166151b986614f95565b60005b828110156151e1578489015182556001820191506020850194506020810190506151bc565b868310156151fe57848901516151fa601f891682615107565b8355505b6001600288020188555050505b505050505050565b7f4e487b7100000000000000000000000000000000000000000000000000000000600052601260045260246000fd5b600061524d82613c95565b915061525883613c95565b92508261526857615267615213565b5b828206905092915050565b7f4e487b7100000000000000000000000000000000000000000000000000000000600052601160045260246000fd5b60006152ad82613c95565b91506152b883613c95565b92508282039050818111156152d0576152cf615273565b5b92915050565b6152df81613f77565b82525050565b600060a0820190506152fa6000830188613e7f565b6153076020830187613d44565b61531460408301866152d6565b61532160608301856152d6565b61532e60808301846152d6565b9695505050505050565b600061534382613c95565b915061534e83613c95565b925082820190508082111561536657615365615273565b5b92915050565b7f4552433732313a207472616e736665722066726f6d20696e636f72726563742060008201527f6f776e6572000000000000000000000000000000000000000000000000000000602082015250565b60006153c8602583613d79565b91506153d38261536c565b604082019050919050565b600060208201905081810360008301526153f7816153bb565b9050919050565b7f4552433732313a207472616e7366657220746f20746865207a65726f2061646460008201527f7265737300000000000000000000000000000000000000000000000000000000602082015250565b600061545a602483613d79565b9150615465826153fe565b604082019050919050565b600060208201905081810360008301526154898161544d565b9050919050565b61549981614045565b82525050565b60006040820190506154b46000830185615490565b6154c16020830184613d44565b9392505050565b7f4e487b7100000000000000000000000000000000000000000000000000000000600052603260045260246000fd5b600061550282613c95565b91507fffffffffffffffffffffffffffffffffffffffffffffffffffffffffffffffff820361553457615533615273565b5b600182019050919050565b7f4552433732313a20617070726f766520746f2063616c6c657200000000000000600082015250565b6000615575601983613d79565b91506155808261553f565b602082019050919050565b600060208201905081810360008301526155a481615568565b9050919050565b7f4552433732313a207472616e7366657220746f206e6f6e20455243373231526560008201527f63656976657220696d706c656d656e7465720000000000000000000000000000602082015250565b6000615607603283613d79565b9150615612826155ab565b604082019050919050565b60006020820190508181036000830152615636816155fa565b9050919050565b600061564882613c95565b915061565383613c95565b92508261566357615662615213565b5b828204905092915050565b600061567982613c95565b915061568483613c95565b925082820261569281613c95565b915082820484148315176156a9576156a8615273565b5b5092915050565b7f4552433732313a206d696e7420746f20746865207a65726f2061646472657373600082015250565b60006156e6602083613d79565b91506156f1826156b0565b602082019050919050565b60006020820190508181036000830152615715816156d9565b9050919050565b7f4552433732313a20746f6b656e20616c7265616479206d696e74656400000000600082015250565b6000615752601c83613d79565b915061575d8261571c565b602082019050919050565b6000602082019050818103600083015261578181615745565b9050919050565b600081519050919050565b600082825260208201905092915050565b60006157af82615788565b6157b98185615793565b93506157c9818560208601613d8a565b6157d281613db4565b840191505092915050565b60006080820190506157f26000830187613e7f565b6157ff6020830186613e7f565b61580c6040830185613d44565b818103606083015261581e81846157a4565b905095945050505050565b60008151905061583881613c06565b92915050565b60006020828403121561585457615853613bd0565b5b600061586284828501615829565b9150509291505056fea264697066735822122039a70271b8120729cb0bb00cd48cc567b9a507ac416ebc384aed01f7b96a938c64736f6c63430008110033",
  "immutableReferences": {},
  "source": "// SPDX-License-Identifier: MIT\r\npragma solidity ^0.8.0;\r\npragma experimental ABIEncoderV2;\r\n\r\n// import \"@chainlink/contracts/src/v0.7/ChainlinkClient.sol\";\r\nimport \"@openzeppelin/contracts/token/ERC721/ERC721.sol\";\r\nimport \"@openzeppelin/contracts/utils/Counters.sol\";\r\nimport \"@openzeppelin/contracts/utils/math/SafeMath.sol\";\r\nimport \"./BEP20.sol\";\r\nimport \"./SmartExchange.sol\";\r\n\r\n// import \"https://github.com/OpenZeppelin/openzeppelin-contracts/blob/18c7efe800df6fc19554ece3b1f238e9e028a1db/contracts/token/ERC721/ERC721.sol\";\r\n// import \"https://github.com/OpenZeppelin/openzeppelin-contracts/blob/18c7efe800df6fc19554ece3b1f238e9e028a1db/contracts/utils/Counters.sol\";\r\n// import \"https://github.com/OpenZeppelin/openzeppelin-contracts/blob/18c7efe800df6fc19554ece3b1f238e9e028a1db/contracts/math/SafeMath.sol\";\r\n\r\n/*\r\n * @notice SmartBet core smart contract. Handles matches, bets and farming\r\n */\r\ncontract SmartBet is ERC721 {\r\n\r\n    using Counters for Counters.Counter;\r\n    using SafeMath for uint256;\r\n\r\n    ////////////////////////////////////////\r\n    //                                    //\r\n    //         STATE VARIABLES            //\r\n    //                                    //      \r\n    ////////////////////////////////////////\r\n    // contract owner adress\r\n    address private owner;\r\n\r\n    // incremented for match id generation\r\n    Counters.Counter private matchIds;\r\n\r\n    // incremented id for NFT minting\r\n    Counters.Counter private tokenIds;\r\n\r\n    // flag to determine if contracts core functionalities can be performed\r\n    bool circuitBreaker = false;\r\n\r\n    enum MatchResult {NOT_DETERMINED, DRAW, TEAM_A_WON, TEAM_B_WON}\r\n    enum MatchState {NOT_STARTED, STARTED, FINISHED}\r\n\r\n    uint8 private constant TEAM_A = 1;\r\n    uint8 private constant TEAM_B = 2;\r\n\r\n    struct Match {\r\n        address creator;\r\n        uint32 oddsTeamA;\r\n        uint32 oddsTeamB;\r\n        uint32 oddsDraw;\r\n        string matchResultLink;\r\n        uint256 totalPayoutTeamA;\r\n        uint256 totalPayoutTeamB;\r\n        uint256 totalPayoutDraw;\r\n        uint256 totalCollected;\r\n        MatchResult result;\r\n        MatchState state;\r\n        uint256 startsAt;\r\n        bool exists;\r\n    }\r\n\r\n    // NFT issued to winner\r\n    struct SmartAsset {\r\n        address owner;\r\n        uint256 matchId;\r\n        MatchResult matchResult;\r\n        uint256 initialValue;\r\n        uint8 accruedInterest;\r\n    }\r\n\r\n    // holds all NFTs issued to winners\r\n    mapping(uint256 => SmartAsset) smartAssets;\r\n\r\n    // holds all created matches (key: idCounter)\r\n    mapping(uint256 => Match) matches;\r\n    \r\n    // holds all apiMatchId -> onChainMatchId to prevent duplicate entries\r\n    mapping(uint256 => uint256) apiMatches;\r\n\r\n    // holds all bets on a match\r\n    // mapping(matchId => mapping(gameResult => smartAssetId[])) matchBets;\r\n    mapping(uint256 => mapping(MatchResult => uint256[])) matchBets;\r\n\r\n    mapping(bytes32 => uint256) matchResultRequestIds;\r\n\r\n    address public constant wBNB = 0xae13d989daC2f0dEbFf460aC112a837C89BAa7cd; //underlying asset: wBNB\r\n    address public constant BUSD = 0x8301F2213c0eeD49a7E28Ae4c3e91722919B8B47; //underlying asset: BUSD\r\n    address public constant pROUTER = 0xD99D1c33F9fC3444f8101754aBC46c52416550D1; // Pancakeswap Router (BSC Testnet)\r\n\r\n    // ExchangeInterface private smartExchange;\r\n    BEP20 private wBNBToken;\r\n    BEP20 private bUSDToken;\r\n    HelperPancakeSwapROUTER private router;\r\n\r\n\r\n    ////////////////////////////////////////\r\n    //                                    //\r\n    //           CONSTRUCTOR              //\r\n    //                                    //      \r\n    ////////////////////////////////////////\r\n\r\n    constructor() ERC721(\"SmartBet\", \"SMBT\") {\r\n        owner = msg.sender;\r\n        // smartExchange = new SmartExchange();\r\n        // bUSDToken = BEP20(smartExchange.BUSD());\r\n        wBNBToken = BEP20(wBNB);     // get a handle for the wBNB asset\r\n        bUSDToken = BEP20(BUSD);     // get a handle for the wBNB asset\r\n        router = HelperPancakeSwapROUTER(pROUTER);     // get a handle for the exchange router\r\n    }\r\n\r\n    ////////////////////////////////////////\r\n    //                                    //\r\n    //              EVENTS                //\r\n    //                                    //      \r\n    ////////////////////////////////////////\r\n\r\n    //Can be used by the clients to get all matches in a particular time\r\n    event MatchCreatedEvent(address creator, uint256 indexed matchId, uint256 indexed apiMatchId, uint256 startAt, uint256 indexed createdOn, uint32 oddsA, uint32 oddsB, uint32 oddsDraw);\r\n    //Can be used by the clients to get all bets placed by a better in a particular time\r\n    event BetPlacedEvent(address indexed bettor, uint256 indexed matchId, uint256 amount, uint256 indexed betPlacedAt);\r\n    event SmartAssetAwardedEvent(address indexed awardee, uint256 indexed matchId, uint256 smartAssetId, uint256 awardedAt);\r\n    event MatchClosedEvent(address indexed by, uint256 indexed matchId, uint256 closedAt);\r\n    event MatchResultSetEvent(uint256 indexed matchId, MatchResult result, uint256 setAt);\r\n    event AssetLiquidatedEvent(address indexed by, uint256 indexed matchId, uint256 amount, uint256 liquidatedAt);\r\n\r\n\r\n    ////////////////////////////////////////\r\n    //                                    //\r\n    //              MODIFIERS             //\r\n    //                                    //      \r\n    ////////////////////////////////////////\r\n\r\n    /*\r\n    *  @notice  Restrict caller only owner\r\n    */\r\n    modifier onlyOwner() {\r\n        require(msg.sender == owner, \"caller is not owner\");\r\n        _;\r\n    }\r\n\r\n    /*\r\n    *  @notice  Ensure match does not previously exist\r\n    */\r\n    modifier isNewMatch(uint256 _matchId) {\r\n        require(!matches[_matchId].exists, \"on chain match exists\");\r\n        _;\r\n    }\r\n\r\n    /*\r\n    *  @notice  Ensure api match does not previously exist\r\n    */\r\n    modifier isNewAPIMatch(uint256 _api_matchId) {\r\n        require(apiMatches[_api_matchId] == 0, \"api match ID exists\");\r\n        _;\r\n    }\r\n\r\n    /*\r\n    *  @notice  Ensure match exists\r\n    */\r\n    modifier matchExists(uint256 _matchId){\r\n        require(matches[_matchId].exists, \"on chain match does not exist\");\r\n        _;\r\n    }\r\n\r\n    /*\r\n    *  @notice  Ensure match has not started\r\n    */\r\n    modifier matchNotStarted(uint256 _matchId){\r\n        require(matches[_matchId].state == MatchState.NOT_STARTED, \"match started\");\r\n        _;\r\n    }\r\n\r\n    /*\r\n    *  @notice  Ensure match has started\r\n    */\r\n    modifier matchStarted(uint256 _matchId){\r\n        require(matches[_matchId].state == MatchState.STARTED, \"match not started\");\r\n        _;\r\n    }\r\n\r\n    /*\r\n    *  @notice  Ensure match has ended\r\n    */\r\n    modifier matchFinished(uint256 _matchId){\r\n        require(matches[_matchId].state == MatchState.FINISHED, \"match not finished\");\r\n        _;\r\n    }\r\n\r\n    /*\r\n    *  @notice Checks if core functionalities can be performed\r\n    *  @dev Checks if the circuitBreaker state variable is false\r\n    */\r\n    modifier isCircuitBreakOff() {\r\n        require(!circuitBreaker, \"Circuit breaker is on\");\r\n        _;\r\n    }\r\n\r\n    /*\r\n    *  @notice Checks if the NFT is valid\r\n    *  @dev Validates NFT\r\n    */\r\n    modifier validateToken(uint256 _tokenId) {\r\n        require(_exists(_tokenId), \"Invalid token\");\r\n        _;\r\n    }\r\n    \r\n    /*\r\n    *  @notice  Ensure token belongs to the caller\r\n    */\r\n    modifier isTokenOwner(uint256 _tokenId) {\r\n        require(ownerOf(_tokenId) == msg.sender , \"caller is not token owner\");\r\n        _;\r\n    }\r\n\r\n    /*\r\n    *  @notice  Ensures bets are allowed on the match\r\n    *  @dev     The totalCollected on the match must be greater than the total payout on the team the bettor wants to bet on. The incoming bet is inclusive in the calculation\r\n    */\r\n    modifier isBetAllowed(uint256 _matchId) {\r\n        require(true, \"Bet is not allowed\");\r\n        _;\r\n    }\r\n    \r\n    modifier validateMatchResult(uint8 _matchResult) {\r\n        require(MatchResult(_matchResult) == MatchResult.TEAM_A_WON || MatchResult(_matchResult) == MatchResult.TEAM_B_WON || MatchResult(_matchResult) == MatchResult.DRAW, \"Invalid match result\");\r\n        _;\r\n    }\r\n\r\n    ////////////////////////////////////////\r\n    //                                    //\r\n    //              FUNCTIONS             //\r\n    //                                    //      \r\n    ////////////////////////////////////////\r\n\r\n    /*\r\n    *  @notice  New match creation\r\n    *  @dev     \r\n    *  @param   \r\n    *  @return  match Id\r\n    */\r\n    function createMatch(uint256 _apiMatchId, string calldata _matchResultLink, uint32 _oddsTeamA, uint32 _oddsTeamB, uint32 _oddsDraw, uint256 _startAt)\r\n        public \r\n        isNewAPIMatch(_apiMatchId)\r\n        onlyOwner\r\n        returns(uint)\r\n    {\r\n        matchIds.increment();\r\n        uint256 matchId = matchIds.current();\r\n        matches[matchId] = Match(msg.sender, _oddsTeamA, _oddsTeamB, _oddsDraw, _matchResultLink, 0, 0, 0, 0, MatchResult.NOT_DETERMINED, MatchState.NOT_STARTED, _startAt, true); \r\n        apiMatches[_apiMatchId] = matchId;\r\n        uint256 createdOnDay = block.timestamp - (block.timestamp % 86400);\r\n        emit MatchCreatedEvent(msg.sender, matchId, _apiMatchId, _startAt, createdOnDay, _oddsTeamA, _oddsTeamB, _oddsDraw);\r\n\r\n        return matchId;\r\n    }\r\n\r\n    function swapBNBForBUSD(uint _minExpectedBUSD) internal returns(uint) {\r\n        wBNBToken.deposit{value: msg.value}(); // deposit native BNB\r\n        wBNBToken.approve(pROUTER, msg.value); // allow pancakeswap router to access wBNB\r\n\r\n        uint deadline = block.timestamp + 10 minutes; // addition 10 mins\r\n        \r\n        address[] memory path = new address[](2);\r\n        path[0] = wBNB;\r\n        path[1] = BUSD;\r\n        uint[] memory amounts = router.swapExactTokensForTokens(msg.value, _minExpectedBUSD, path, address(this), deadline);\r\n        \r\n        return amounts[1];\r\n    }\r\n    \r\n    function calculateAssetValue(uint256 amountBet, uint256 _odds) internal pure returns(uint256) {\r\n        return amountBet.mul(_odds).div(100);\r\n    }\r\n\r\n    /*\r\n    *  @notice  New bet creation. Mint NFT to bettor\r\n    *  @dev   \r\n    *  @param  \r\n    *  @return  token id\r\n    */\r\n    function placeBet(uint256 _matchId, uint8 _resultBetOn)\r\n        public \r\n        payable\r\n        isCircuitBreakOff\r\n        matchExists(_matchId) \r\n        matchNotStarted(_matchId) \r\n        isBetAllowed(_matchId)\r\n        validateMatchResult(_resultBetOn)\r\n        returns(uint256)\r\n    {\r\n        require(msg.value != 0, \"Invalid amount bet\");\r\n        if (matches[_matchId].startsAt < block.timestamp) {\r\n            matches[_matchId].state = MatchState.STARTED;\r\n            return 0;\r\n        }\r\n\r\n        address bettor = msg.sender;\r\n        uint256 assetValue = 0;\r\n\r\n        // uint[] memory amounts = smartExchange.swap(msg.value, address(this));\r\n        // uint256 amountBet = swapBNBForBUSD(0);\r\n        uint256 amountBet = msg.value;\r\n\r\n        MatchResult matchResultBetOn = MatchResult(_resultBetOn);\r\n        \r\n        //update team's total payout\r\n        if (matchResultBetOn == MatchResult.TEAM_A_WON) {\r\n            assetValue = calculateAssetValue(amountBet, matches[_matchId].oddsTeamA);\r\n            matches[_matchId].totalPayoutTeamA = matches[_matchId].totalPayoutTeamA.add(assetValue);\r\n        } else if(matchResultBetOn == MatchResult.TEAM_B_WON) {\r\n            assetValue = calculateAssetValue(amountBet, matches[_matchId].oddsTeamB);\r\n            matches[_matchId].totalPayoutTeamB = matches[_matchId].totalPayoutTeamB.add(assetValue);\r\n        } else {\r\n            assetValue = calculateAssetValue(amountBet, matches[_matchId].oddsDraw);\r\n            matches[_matchId].totalPayoutDraw = matches[_matchId].totalPayoutDraw.add(assetValue);\r\n        }\r\n\r\n        //increase totalCollected on the match\r\n        matches[_matchId].totalCollected = matches[_matchId].totalCollected.add(amountBet);\r\n\r\n        uint256 smartAssetId = awardSmartAsset(bettor, assetValue, _matchId, matchResultBetOn);\r\n        \r\n        //Save bettor's bet\r\n        matchBets[_matchId][matchResultBetOn].push(smartAssetId);\r\n        \r\n        emit BetPlacedEvent(bettor, _matchId, amountBet, block.timestamp);\r\n\r\n        return smartAssetId;\r\n    }\r\n\r\n\r\n    function awardSmartAsset(address bettor, uint256 assetValue, uint256 _matchId, MatchResult _matchResultBetOn) \r\n        internal returns (uint256) \r\n    {\r\n        tokenIds.increment();\r\n\r\n        uint256 smartAssetId = tokenIds.current();\r\n        _mint(bettor, smartAssetId);\r\n        \r\n        smartAssets[smartAssetId] = SmartAsset(msg.sender, _matchId, _matchResultBetOn, assetValue, 0);\r\n\r\n        emit SmartAssetAwardedEvent(bettor, _matchId, smartAssetId, block.timestamp);\r\n\r\n        return smartAssetId;\r\n    }\r\n    \r\n    function startMatch(uint256 _matchId) \r\n        public\r\n        onlyOwner\r\n        matchExists(_matchId) \r\n        matchNotStarted(_matchId)\r\n    {\r\n        matches[_matchId].state = MatchState.STARTED;\r\n    }\r\n\r\n\r\n    /*\r\n    *  @notice  Match manual close by admin. Trigger \"getResult()\" \r\n    *  @dev     [Real] ChainlinkClient API Request oracles gets match result of winning team. Then, match is closed.\r\n    *           [Temporary] (Implemented because there's no BSC testnet oracle node)\r\n    *                       Frontend gets result via result link and posts winning team. Then, match is closed.\r\n    *  @param  \r\n    *  @return  success success status\r\n    */\r\n    function closeMatch(uint256 _matchId, uint8 _matchResult)\r\n        public \r\n        onlyOwner\r\n        matchExists(_matchId) \r\n        matchStarted(_matchId)\r\n        validateMatchResult(_matchResult)\r\n    {\r\n        matches[_matchId].state = MatchState.FINISHED;\r\n        \r\n        // getMatchResult(_matchId);\r\n        MatchResult matchResult = MatchResult(_matchResult);\r\n        setMatchResult(_matchId, matchResult);\r\n        \r\n        if (matchResult == MatchResult.TEAM_A_WON) {\r\n            invalidateAssets(matchBets[_matchId][MatchResult.TEAM_B_WON]);\r\n            invalidateAssets(matchBets[_matchId][MatchResult.DRAW]);\r\n        } else if (matchResult == MatchResult.TEAM_B_WON) {\r\n            invalidateAssets(matchBets[_matchId][MatchResult.TEAM_A_WON]);\r\n            invalidateAssets(matchBets[_matchId][MatchResult.DRAW]);\r\n        } else {\r\n            invalidateAssets(matchBets[_matchId][MatchResult.TEAM_A_WON]);\r\n            invalidateAssets(matchBets[_matchId][MatchResult.TEAM_B_WON]);\r\n        }\r\n        \r\n        \r\n        emit MatchClosedEvent(msg.sender, _matchId, block.timestamp);\r\n    }\r\n    \r\n    function setMatchResult(uint256 _matchId, MatchResult _matchResult) internal {\r\n        matches[_matchId].result = _matchResult;\r\n        emit MatchResultSetEvent(_matchId, matches[_matchId].result, block.timestamp);\r\n    }\r\n    \r\n    function invalidateAssets(uint256[] memory assets) internal {\r\n        for (uint i = 0; i < assets.length; i++) {\r\n            invalidateAsset(assets[i]);\r\n        }\r\n    }\r\n\r\n    function invalidateAsset(uint256 _smartAssetId) internal {\r\n        _burn(_smartAssetId);\r\n    }\r\n\r\n    /*\r\n    *  @notice  Liquidate smart asset's value\r\n    *  @dev     validated   NFT is burned and caller gets value funds in account\r\n    *  @param   _smartAssetId smart asset id\r\n    *  @return  success status\r\n    */\r\n    function liquidateAsset(uint256 _smartAssetId)\r\n        public \r\n        payable\r\n        isCircuitBreakOff\r\n        validateToken(_smartAssetId)\r\n        isTokenOwner(_smartAssetId)\r\n        returns(bool)\r\n    {\r\n        SmartAsset memory smartAsset = smartAssets[_smartAssetId];\r\n        \r\n        require(matches[smartAsset.matchId].state == MatchState.FINISHED, \"Cannot liquidate asset until match is finished\");\r\n        \r\n        // require (bUSDToken.balanceOf(address(this)) >= smartAsset.initialValue, \"Contract has insufficient funds\");\r\n        require (address(this).balance >= smartAsset.initialValue, \"Contract has insufficient funds\");\r\n        \r\n        invalidateAsset(_smartAssetId);\r\n        // bUSDToken.transfer(msg.sender, smartAsset.initialValue);\r\n        payable(msg.sender).transfer(smartAsset.initialValue);\r\n\r\n        emit AssetLiquidatedEvent(msg.sender, smartAsset.matchId, smartAsset.initialValue, block.timestamp);\r\n        return true;\r\n    }\r\n\r\n    /*\r\n    *  @notice  Contract Circuit Breaker\r\n    *  @dev     Admin can [de]activate core functons in contract\r\n    *  @param   \r\n    *  @return  success success status\r\n    */\r\n    function toggleCircuitBreaker()\r\n        public \r\n        onlyOwner\r\n    {\r\n        circuitBreaker = !circuitBreaker;\r\n    }\r\n\r\n    /*\r\n    *  @notice  Fetch match details\r\n    *  @dev         \r\n    *  @oaram   _matchId\r\n    *  @return match match details\r\n    */\r\n    function getMatch(uint256 _matchId)\r\n        public \r\n        view\r\n        matchExists(_matchId)\r\n        returns(Match memory match_)\r\n    {\r\n        return matches[_matchId];\r\n    }\r\n\r\n    /*\r\n    *  @notice  Fetch single SmartAsset\r\n    *  @dev          \r\n    *  @param   _smartAssetId\r\n    *  @return  asset details\r\n    */\r\n    function getSmartAsset(uint256 _smartAssetId)\r\n        public \r\n        view\r\n        validateToken(_smartAssetId)\r\n        isTokenOwner(_smartAssetId)\r\n        returns(SmartAsset memory asset)\r\n    {\r\n        return smartAssets[_smartAssetId];\r\n    }\r\n\r\n    /*\r\n    *  @notice  Tells of the msg.sender is the admin\r\n    *  @dev\r\n    *  @return  true if msg.sender is admin else false\r\n    */\r\n    function isAdmin() public view returns(bool) {\r\n        return msg.sender == owner;\r\n    }\r\n\r\n    /*\r\n    *  @notice  Allows the current owner pass ownership to another address\r\n    *  @dev\r\n    */\r\n    function changeOwner(address newOwner) \r\n    external \r\n    onlyOwner {\r\n        owner = newOwner;\r\n    }\r\n\r\n    receive() external payable {}\r\n    \r\n}\r\n",
  "sourcePath": "D:\\CSDN\\github\\SmartBet\\contracts\\SmartBet.sol",
  "compiler": {
    "name": "solc",
    "version": "0.8.17+commit.8df45f5f.Emscripten.clang"
  },
  "schemaVersion": "3.4.6",
  "updatedAt": "2022-11-07T11:18:53.093Z",
  "devdoc": {
    "kind": "dev",
    "methods": {
      "approve(address,uint256)": {
        "details": "See {IERC721-approve}."
      },
      "balanceOf(address)": {
        "details": "See {IERC721-balanceOf}."
      },
      "getApproved(uint256)": {
        "details": "See {IERC721-getApproved}."
      },
      "isApprovedForAll(address,address)": {
        "details": "See {IERC721-isApprovedForAll}."
      },
      "name()": {
        "details": "See {IERC721Metadata-name}."
      },
      "ownerOf(uint256)": {
        "details": "See {IERC721-ownerOf}."
      },
      "safeTransferFrom(address,address,uint256)": {
        "details": "See {IERC721-safeTransferFrom}."
      },
      "safeTransferFrom(address,address,uint256,bytes)": {
        "details": "See {IERC721-safeTransferFrom}."
      },
      "setApprovalForAll(address,bool)": {
        "details": "See {IERC721-setApprovalForAll}."
      },
      "supportsInterface(bytes4)": {
        "details": "See {IERC165-supportsInterface}."
      },
      "symbol()": {
        "details": "See {IERC721Metadata-symbol}."
      },
      "tokenURI(uint256)": {
        "details": "See {IERC721Metadata-tokenURI}."
      },
      "transferFrom(address,address,uint256)": {
        "details": "See {IERC721-transferFrom}."
      }
    },
    "version": 1
  },
  "userdoc": {
    "kind": "user",
    "methods": {},
    "version": 1
  }
}