{
  "contractName": "SmartExchange",
  "abi": [
    {
      "inputs": [],
      "stateMutability": "nonpayable",
      "type": "constructor"
    },
    {
      "anonymous": false,
      "inputs": [
        {
          "indexed": false,
          "internalType": "address",
          "name": "owner",
          "type": "address"
        },
        {
          "indexed": false,
          "internalType": "uint256",
          "name": "balance",
          "type": "uint256"
        }
      ],
      "name": "BalanceEvent",
      "type": "event"
    },
    {
      "inputs": [],
      "name": "BUSD",
      "outputs": [
        {
          "internalType": "address",
          "name": "",
          "type": "address"
        }
      ],
      "stateMutability": "view",
      "type": "function"
    },
    {
      "inputs": [],
      "name": "pROUTER",
      "outputs": [
        {
          "internalType": "address",
          "name": "",
          "type": "address"
        }
      ],
      "stateMutability": "view",
      "type": "function"
    },
    {
      "inputs": [],
      "name": "wBNB",
      "outputs": [
        {
          "internalType": "address",
          "name": "",
          "type": "address"
        }
      ],
      "stateMutability": "view",
      "type": "function"
    },
    {
      "stateMutability": "payable",
      "type": "receive"
    },
    {
      "inputs": [
        {
          "internalType": "uint256",
          "name": "amount",
          "type": "uint256"
        },
        {
          "internalType": "address",
          "name": "to",
          "type": "address"
        }
      ],
      "name": "swap",
      "outputs": [
        {
          "internalType": "uint256[]",
          "name": "",
          "type": "uint256[]"
        }
      ],
      "stateMutability": "nonpayable",
      "type": "function"
    }
  ],
  "bytecode": "0x608060405234801561001057600080fd5b5073ae13d989dac2f0debff460ac112a837c89baa7cd6000806101000a81548173ffffffffffffffffffffffffffffffffffffffff021916908373ffffffffffffffffffffffffffffffffffffffff160217905550738301f2213c0eed49a7e28ae4c3e91722919b8b47600160006101000a81548173ffffffffffffffffffffffffffffffffffffffff021916908373ffffffffffffffffffffffffffffffffffffffff16021790555073d99d1c33f9fc3444f8101754abc46c52416550d1600260006101000a81548173ffffffffffffffffffffffffffffffffffffffff021916908373ffffffffffffffffffffffffffffffffffffffff160217905550610cc38061011e6000396000f3fe6080604052600436106100435760003560e01c8063484f4ea91461004f578063d02eb3f41461007a578063d3986f08146100a5578063e71efd95146100e25761004a565b3661004a57005b600080fd5b34801561005b57600080fd5b5061006461010d565b604051610071919061066c565b60405180910390f35b34801561008657600080fd5b5061008f610125565b60405161009c919061066c565b60405180910390f35b3480156100b157600080fd5b506100cc60048036038101906100c791906106fd565b61013d565b6040516100d991906107fb565b60405180910390f35b3480156100ee57600080fd5b506100f7610613565b604051610104919061066c565b60405180910390f35b738301f2213c0eed49a7e28ae4c3e91722919b8b4781565b73ae13d989dac2f0debff460ac112a837c89baa7cd81565b606060008054906101000a900473ffffffffffffffffffffffffffffffffffffffff1673ffffffffffffffffffffffffffffffffffffffff1663d0e30db0846040518263ffffffff1660e01b81526004016000604051808303818588803b1580156101a757600080fd5b505af11580156101bb573d6000803e3d6000fd5b505050505060008054906101000a900473ffffffffffffffffffffffffffffffffffffffff1673ffffffffffffffffffffffffffffffffffffffff1663095ea7b3600260009054906101000a900473ffffffffffffffffffffffffffffffffffffffff16856040518363ffffffff1660e01b815260040161023d92919061082c565b6020604051808303816000875af115801561025c573d6000803e3d6000fd5b505050506040513d601f19601f82011682018060405250810190610280919061088d565b506000600267ffffffffffffffff81111561029e5761029d6108ba565b5b6040519080825280602002602001820160405280156102cc5781602001602082028036833780820191505090505b50905073ae13d989dac2f0debff460ac112a837c89baa7cd816000815181106102f8576102f76108e9565b5b602002602001019073ffffffffffffffffffffffffffffffffffffffff16908173ffffffffffffffffffffffffffffffffffffffff1681525050738301f2213c0eed49a7e28ae4c3e91722919b8b478160018151811061035b5761035a6108e9565b5b602002602001019073ffffffffffffffffffffffffffffffffffffffff16908173ffffffffffffffffffffffffffffffffffffffff16815250506000610258426103a59190610947565b90506000600260009054906101000a900473ffffffffffffffffffffffffffffffffffffffff1673ffffffffffffffffffffffffffffffffffffffff166338ed17398760008689876040518663ffffffff1660e01b815260040161040d959493929190610a7e565b6000604051808303816000875af115801561042c573d6000803e3d6000fd5b505050506040513d6000823e3d601f19601f820116820180604052508101906104559190610c17565b905060008060009054906101000a900473ffffffffffffffffffffffffffffffffffffffff1673ffffffffffffffffffffffffffffffffffffffff166370a08231306040518263ffffffff1660e01b81526004016104b3919061066c565b602060405180830381865afa1580156104d0573d6000803e3d6000fd5b505050506040513d601f19601f820116820180604052508101906104f49190610c60565b90507fe664862cc73c0e03c0f3ee110e89fea8ae7af45a3bd6ada129e3028d4c03bc8b308260405161052792919061082c565b60405180910390a1600160009054906101000a900473ffffffffffffffffffffffffffffffffffffffff1673ffffffffffffffffffffffffffffffffffffffff166370a08231306040518263ffffffff1660e01b815260040161058a919061066c565b602060405180830381865afa1580156105a7573d6000803e3d6000fd5b505050506040513d601f19601f820116820180604052508101906105cb9190610c60565b90507fe664862cc73c0e03c0f3ee110e89fea8ae7af45a3bd6ada129e3028d4c03bc8b30826040516105fe92919061082c565b60405180910390a18194505050505092915050565b73d99d1c33f9fc3444f8101754abc46c52416550d181565b600073ffffffffffffffffffffffffffffffffffffffff82169050919050565b60006106568261062b565b9050919050565b6106668161064b565b82525050565b6000602082019050610681600083018461065d565b92915050565b6000604051905090565b600080fd5b600080fd5b6000819050919050565b6106ae8161069b565b81146106b957600080fd5b50565b6000813590506106cb816106a5565b92915050565b6106da8161064b565b81146106e557600080fd5b50565b6000813590506106f7816106d1565b92915050565b6000806040838503121561071457610713610691565b5b6000610722858286016106bc565b9250506020610733858286016106e8565b9150509250929050565b600081519050919050565b600082825260208201905092915050565b6000819050602082019050919050565b6107728161069b565b82525050565b60006107848383610769565b60208301905092915050565b6000602082019050919050565b60006107a88261073d565b6107b28185610748565b93506107bd83610759565b8060005b838110156107ee5781516107d58882610778565b97506107e083610790565b9250506001810190506107c1565b5085935050505092915050565b60006020820190508181036000830152610815818461079d565b905092915050565b6108268161069b565b82525050565b6000604082019050610841600083018561065d565b61084e602083018461081d565b9392505050565b60008115159050919050565b61086a81610855565b811461087557600080fd5b50565b60008151905061088781610861565b92915050565b6000602082840312156108a3576108a2610691565b5b60006108b184828501610878565b91505092915050565b7f4e487b7100000000000000000000000000000000000000000000000000000000600052604160045260246000fd5b7f4e487b7100000000000000000000000000000000000000000000000000000000600052603260045260246000fd5b7f4e487b7100000000000000000000000000000000000000000000000000000000600052601160045260246000fd5b60006109528261069b565b915061095d8361069b565b925082820190508082111561097557610974610918565b5b92915050565b6000819050919050565b6000819050919050565b60006109aa6109a56109a08461097b565b610985565b61069b565b9050919050565b6109ba8161098f565b82525050565b600081519050919050565b600082825260208201905092915050565b6000819050602082019050919050565b6109f58161064b565b82525050565b6000610a0783836109ec565b60208301905092915050565b6000602082019050919050565b6000610a2b826109c0565b610a3581856109cb565b9350610a40836109dc565b8060005b83811015610a71578151610a5888826109fb565b9750610a6383610a13565b925050600181019050610a44565b5085935050505092915050565b600060a082019050610a93600083018861081d565b610aa060208301876109b1565b8181036040830152610ab28186610a20565b9050610ac1606083018561065d565b610ace608083018461081d565b9695505050505050565b600080fd5b6000601f19601f8301169050919050565b610af782610add565b810181811067ffffffffffffffff82111715610b1657610b156108ba565b5b80604052505050565b6000610b29610687565b9050610b358282610aee565b919050565b600067ffffffffffffffff821115610b5557610b546108ba565b5b602082029050602081019050919050565b600080fd5b600081519050610b7a816106a5565b92915050565b6000610b93610b8e84610b3a565b610b1f565b90508083825260208201905060208402830185811115610bb657610bb5610b66565b5b835b81811015610bdf5780610bcb8882610b6b565b845260208401935050602081019050610bb8565b5050509392505050565b600082601f830112610bfe57610bfd610ad8565b5b8151610c0e848260208601610b80565b91505092915050565b600060208284031215610c2d57610c2c610691565b5b600082015167ffffffffffffffff811115610c4b57610c4a610696565b5b610c5784828501610be9565b91505092915050565b600060208284031215610c7657610c75610691565b5b6000610c8484828501610b6b565b9150509291505056fea26469706673582212207fde04b60fb80bd471872bdbfe4d10d4e70f4c8776f938c279640d6fc04ad90c64736f6c63430008110033",
  "immutableReferences": {},
  "source": "// SPDX-License-Identifier: MIT\r\npragma solidity ^0.8.0;\r\npragma experimental ABIEncoderV2;\r\n\r\nimport \"./BEP20.sol\";\r\nimport \"./HelperPancakeSwapROUTER.sol\";\r\n\r\n/*\r\n* @notice Integrates with Pancakeswap DEX\r\n*/\r\ncontract SmartExchange {\r\n    \r\n    address public constant wBNB = 0xae13d989daC2f0dEbFf460aC112a837C89BAa7cd; //underlying asset: wBNB\r\n    address public constant BUSD = 0x8301F2213c0eeD49a7E28Ae4c3e91722919B8B47; //underlying asset: BUSD\r\n    address public constant pROUTER = 0xD99D1c33F9fC3444f8101754aBC46c52416550D1; // Pancakeswap Router (BSC Testnet)\r\n\r\n    BEP20 private wBNBToken;\r\n    BEP20 private bUSDToken;\r\n    HelperPancakeSwapROUTER private router;\r\n\r\n    event BalanceEvent(address owner, uint256 balance);\r\n\r\n    constructor() {\r\n        wBNBToken = BEP20(wBNB);     // get a handle for the wBNB asset\r\n        bUSDToken = BEP20(BUSD);     // get a handle for the wBNB asset\r\n        router = HelperPancakeSwapROUTER(pROUTER);     // get a handle for the exchange router\r\n    }\r\n\r\n    /*\r\n    * @notice swaps BNB to BUSD\r\n    * @param amount amount of BNB to swap to BUSD\r\n    * @param address to deposit the BUSD\r\n    */\r\n    function swap(uint256 amount, address to) public returns (uint[] memory) {\r\n        wBNBToken.deposit{value: amount}(); // deposit native BNB\r\n        wBNBToken.approve(address(router), amount); // allow pancakeswap router to access wBNB\r\n\r\n        address[] memory path = new address[](2);\r\n        path[0] = wBNB;\r\n        path[1] = BUSD;\r\n        uint deadline = block.timestamp + 10 minutes; // addition 10 mins\r\n\r\n        uint[] memory amountOut = router.swapExactTokensForTokens(amount, 0, path, to, deadline);\r\n        \r\n        uint256 balance = wBNBToken.balanceOf(address(this)); \r\n        emit BalanceEvent(address(this), balance);\r\n        \r\n        balance = bUSDToken.balanceOf(address(this)); \r\n        emit BalanceEvent(address(this), balance);\r\n\r\n        return amountOut;\r\n    }  \r\n\r\n    receive() external payable {}    \r\n}",
  "sourcePath": "D:\\CSDN\\github\\SmartBet\\contracts\\SmartExchange.sol",
  "compiler": {
    "name": "solc",
    "version": "0.8.17+commit.8df45f5f.Emscripten.clang"
  },
  "schemaVersion": "3.4.6",
  "updatedAt": "2022-11-07T11:18:53.222Z",
  "devdoc": {
    "kind": "dev",
    "methods": {},
    "version": 1
  },
  "userdoc": {
    "kind": "user",
    "methods": {},
    "version": 1
  }
}