{
  "contractName": "SmartInvestV1",
  "abi": [
    {
      "inputs": [],
      "name": "BASE_BEP20",
      "outputs": [
        {
          "internalType": "address",
          "name": "",
          "type": "address"
        }
      ],
      "stateMutability": "view",
      "type": "function"
    },
    {
      "inputs": [],
      "name": "totalTreasury",
      "outputs": [
        {
          "internalType": "uint256",
          "name": "",
          "type": "uint256"
        }
      ],
      "stateMutability": "view",
      "type": "function"
    },
    {
      "inputs": [],
      "name": "vTOKEN_ADDRESS",
      "outputs": [
        {
          "internalType": "address",
          "name": "",
          "type": "address"
        }
      ],
      "stateMutability": "view",
      "type": "function"
    },
    {
      "inputs": [
        {
          "internalType": "uint256",
          "name": "amount",
          "type": "uint256"
        }
      ],
      "name": "invest",
      "outputs": [],
      "stateMutability": "nonpayable",
      "type": "function"
    },
    {
      "inputs": [
        {
          "internalType": "uint256",
          "name": "amount",
          "type": "uint256"
        }
      ],
      "name": "redeem",
      "outputs": [],
      "stateMutability": "nonpayable",
      "type": "function"
    },
    {
      "inputs": [],
      "name": "getBalance",
      "outputs": [
        {
          "internalType": "uint256",
          "name": "",
          "type": "uint256"
        }
      ],
      "stateMutability": "nonpayable",
      "type": "function"
    }
  ],
  "bytecode": "0x608060405234801561001057600080fd5b5061079a806100206000396000f3fe608060405234801561001057600080fd5b50600436106100625760003560e01c806312065fe0146100675780631876ed4f146100855780632afcf480146100a3578063897534a9146100bf5780639b3c25a5146100dd578063db006a75146100fb575b600080fd5b61006f610117565b60405161007c91906104a5565b60405180910390f35b61008d6101b9565b60405161009a9190610501565b60405180910390f35b6100bd60048036038101906100b8919061054d565b6101d1565b005b6100c7610393565b6040516100d491906104a5565b60405180910390f35b6100e5610399565b6040516100f29190610501565b60405180910390f35b6101156004803603810190610110919061054d565b6103b1565b005b6000807308e0a5575de71037ae36abfafb516595fe68e5e4905060008173ffffffffffffffffffffffffffffffffffffffff16633af9e669336040518263ffffffff1660e01b815260040161016c9190610501565b6020604051808303816000875af115801561018b573d6000803e3d6000fd5b505050506040513d601f19601f820116820180604052508101906101af919061058f565b9050809250505090565b7308e0a5575de71037ae36abfafb516595fe68e5e481565b6000738301f2213c0eed49a7e28ae4c3e91722919b8b47905060007308e0a5575de71037ae36abfafb516595fe68e5e490508173ffffffffffffffffffffffffffffffffffffffff1663095ea7b38260006040518363ffffffff1660e01b815260040161023f929190610601565b6020604051808303816000875af115801561025e573d6000803e3d6000fd5b505050506040513d601f19601f820116820180604052508101906102829190610662565b508173ffffffffffffffffffffffffffffffffffffffff1663095ea7b382856040518363ffffffff1660e01b81526004016102be92919061068f565b6020604051808303816000875af11580156102dd573d6000803e3d6000fd5b505050506040513d601f19601f820116820180604052508101906103019190610662565b5060008173ffffffffffffffffffffffffffffffffffffffff1663a0712d68856040518263ffffffff1660e01b815260040161033d91906104a5565b6020604051808303816000875af115801561035c573d6000803e3d6000fd5b505050506040513d601f19601f82011682018060405250810190610380919061058f565b1461038e5761038d6106b8565b5b505050565b60005481565b738301f2213c0eed49a7e28ae4c3e91722919b8b4781565b60007308e0a5575de71037ae36abfafb516595fe68e5e4905060008173ffffffffffffffffffffffffffffffffffffffff1663852a12e3846040518263ffffffff1660e01b815260040161040591906104a5565b6020604051808303816000875af1158015610424573d6000803e3d6000fd5b505050506040513d601f19601f82011682018060405250810190610448919061058f565b14610488576040517f08c379a000000000000000000000000000000000000000000000000000000000815260040161047f90610744565b60405180910390fd5b5050565b6000819050919050565b61049f8161048c565b82525050565b60006020820190506104ba6000830184610496565b92915050565b600073ffffffffffffffffffffffffffffffffffffffff82169050919050565b60006104eb826104c0565b9050919050565b6104fb816104e0565b82525050565b600060208201905061051660008301846104f2565b92915050565b600080fd5b61052a8161048c565b811461053557600080fd5b50565b60008135905061054781610521565b92915050565b6000602082840312156105635761056261051c565b5b600061057184828501610538565b91505092915050565b60008151905061058981610521565b92915050565b6000602082840312156105a5576105a461051c565b5b60006105b38482850161057a565b91505092915050565b6000819050919050565b6000819050919050565b60006105eb6105e66105e1846105bc565b6105c6565b61048c565b9050919050565b6105fb816105d0565b82525050565b600060408201905061061660008301856104f2565b61062360208301846105f2565b9392505050565b60008115159050919050565b61063f8161062a565b811461064a57600080fd5b50565b60008151905061065c81610636565b92915050565b6000602082840312156106785761067761051c565b5b60006106868482850161064d565b91505092915050565b60006040820190506106a460008301856104f2565b6106b16020830184610496565b9392505050565b7f4e487b7100000000000000000000000000000000000000000000000000000000600052600160045260246000fd5b600082825260208201905092915050565b7f736f6d657468696e672077656e742077726f6e67000000000000000000000000600082015250565b600061072e6014836106e7565b9150610739826106f8565b602082019050919050565b6000602082019050818103600083015261075d81610721565b905091905056fea2646970667358221220e7737601dea500a7af17ab32ac7564001094f53611aab92fd56603f7597d5a6064736f6c63430008110033",
  "immutableReferences": {},
  "source": "// SPDX-License-Identifier: MIT\r\npragma solidity ^0.8.0;\r\npragma experimental ABIEncoderV2;\r\n\r\nimport \"./BEP20.sol\";\r\nimport \"./VToken.sol\";\r\n\r\n/*\r\n* @notice Integrates with Venus lending protocol\r\n*/\r\ncontract SmartInvestV1 {\r\n    \r\n    uint256 public totalTreasury;\r\n    address public constant vTOKEN_ADDRESS = 0x08e0A5575De71037aE36AbfAfb516595fE68e5e4; // BSC testnet Venus vTokens (vBUSD)\r\n    address public constant BASE_BEP20 = 0x8301F2213c0eeD49a7E28Ae4c3e91722919B8B47; //underlying asset: BUSD\r\n    \r\n    function invest(uint256 amount) public {\r\n        \r\n        BEP20 underlying = BEP20(BASE_BEP20);     // get a handle for the underlying asset\r\n        VToken vToken = VToken(vTOKEN_ADDRESS);   // get a handle for the corresponding vToken Contract\r\n        underlying.approve(address(vToken), 0);     // security: reset allowance\r\n        underlying.approve(address(vToken), amount); // approve the transfer\r\n        assert(vToken.mint(amount) == 0);            // mint the vTokens and assert there is no error\r\n    }\r\n    \r\n    function redeem(uint256 amount) public {\r\n        VToken vToken = VToken(vTOKEN_ADDRESS);\r\n        // \r\n        require(vToken.redeemUnderlying(amount) == 0, \"something went wrong\");\r\n    }\r\n    \r\n    function getBalance() public returns (uint256){\r\n        VToken vToken = VToken(vTOKEN_ADDRESS);\r\n        uint tokens = vToken.balanceOfUnderlying(msg.sender);\r\n        return tokens;\r\n    }\r\n    \r\n    // function exchangeRateCurrent() public {\r\n    //     VBep20 vToken = VToken(vTOKEN_ADDRESS);\r\n    //     uint exchangeRateMantissa = vToken.exchangeRateCurrent();\r\n    // }\r\n    \r\n}\r\n\r\n\r\n// const vTokenDecimals = 8; // all vTokens have 8 decimal places\r\n// const underlying = new web3.eth.Contract(bep20Abi, busdAddress);\r\n// const vToken = new web3.eth.Contract(vTokenAbi, vBusdAddress);\r\n// const underlyingDecimals = await underlying.methods.decimals().call();\r\n// const exchangeRateCurrent = await vToken.methods.exchangeRateCurrent().call();\r\n// const mantissa = 18 + parseInt(underlyingDecimals) - vTokenDecimals;\r\n// const onevTokenInUnderlying = exchangeRateCurrent / Math.pow(10, mantissa);\r\n// console.log('1 vBUSD can be redeemed for', oneVTokenInUnderlying, 'BUSD');",
  "sourcePath": "D:\\CSDN\\github\\SmartBet\\contracts\\SmartInvestV1.sol",
  "compiler": {
    "name": "solc",
    "version": "0.8.17+commit.8df45f5f.Emscripten.clang"
  },
  "schemaVersion": "3.4.6",
  "updatedAt": "2022-11-07T11:18:53.243Z",
  "devdoc": {
    "kind": "dev",
    "methods": {},
    "version": 1
  },
  "userdoc": {
    "kind": "user",
    "methods": {},
    "version": 1
  }
}