{
  "contractName": "StackTooDeepTest1",
  "abi": [
    {
      "inputs": [
        {
          "internalType": "uint256",
          "name": "a",
          "type": "uint256"
        },
        {
          "internalType": "uint256",
          "name": "b",
          "type": "uint256"
        },
        {
          "internalType": "uint256",
          "name": "c",
          "type": "uint256"
        },
        {
          "internalType": "uint256",
          "name": "d",
          "type": "uint256"
        },
        {
          "internalType": "uint256",
          "name": "e",
          "type": "uint256"
        },
        {
          "internalType": "uint256",
          "name": "f",
          "type": "uint256"
        },
        {
          "internalType": "uint256",
          "name": "g",
          "type": "uint256"
        },
        {
          "internalType": "uint256",
          "name": "h",
          "type": "uint256"
        }
      ],
      "name": "addUints",
      "outputs": [
        {
          "internalType": "uint256",
          "name": "",
          "type": "uint256"
        }
      ],
      "stateMutability": "pure",
      "type": "function"
    }
  ],
  "bytecode": "0x608060405234801561001057600080fd5b50610272806100206000396000f3fe608060405234801561001057600080fd5b506004361061002b5760003560e01c8063f042751d14610030575b600080fd5b61004a600480360381019061004591906100f9565b610060565b60405161005791906101be565b60405180910390f35b600081838587898b8d8f6100749190610208565b61007e9190610208565b6100889190610208565b6100929190610208565b61009c9190610208565b6100a69190610208565b6100b09190610208565b905098975050505050505050565b600080fd5b6000819050919050565b6100d6816100c3565b81146100e157600080fd5b50565b6000813590506100f3816100cd565b92915050565b600080600080600080600080610100898b03121561011a576101196100be565b5b60006101288b828c016100e4565b98505060206101398b828c016100e4565b975050604061014a8b828c016100e4565b965050606061015b8b828c016100e4565b955050608061016c8b828c016100e4565b94505060a061017d8b828c016100e4565b93505060c061018e8b828c016100e4565b92505060e061019f8b828c016100e4565b9150509295985092959890939650565b6101b8816100c3565b82525050565b60006020820190506101d360008301846101af565b92915050565b7f4e487b7100000000000000000000000000000000000000000000000000000000600052601160045260246000fd5b6000610213826100c3565b915061021e836100c3565b9250828201905080821115610236576102356101d9565b5b9291505056fea2646970667358221220d68ab7c17b9c3a888a531ff6b63ef54cbf0d724f884c671582f3a71eedf51fa364736f6c63430008110033",
  "immutableReferences": {},
  "source": "// SPDX-License-Identifier: MIT\r\npragma solidity ^0.8.0;\r\n\r\ncontract StackTooDeepTest1 {\r\n    function addUints(\r\n        uint256 a,\r\n        uint256 b,\r\n        uint256 c,\r\n        uint256 d,\r\n        uint256 e,\r\n        uint256 f,\r\n        uint256 g,\r\n        uint256 h\r\n    ) external pure returns (uint256) {\r\n        return a + b + c + d + e + f + g + h;\r\n    }\r\n}\r\n",
  "sourcePath": "D:\\CSDN\\github\\SmartBet\\contracts\\Test.sol",
  "compiler": {
    "name": "solc",
    "version": "0.8.17+commit.8df45f5f.Emscripten.clang"
  },
  "schemaVersion": "3.4.6",
  "updatedAt": "2022-10-20T09:08:37.055Z",
  "devdoc": {
    "kind": "dev",
    "methods": {},
    "version": 1
  },
  "userdoc": {
    "kind": "user",
    "methods": {},
    "version": 1
  }
}