{
  "contractName": "VToken",
  "abi": [
    {
      "inputs": [
        {
          "internalType": "uint256",
          "name": "mintAmount",
          "type": "uint256"
        }
      ],
      "name": "mint",
      "outputs": [
        {
          "internalType": "uint256",
          "name": "",
          "type": "uint256"
        }
      ],
      "stateMutability": "nonpayable",
      "type": "function"
    },
    {
      "inputs": [
        {
          "internalType": "uint256",
          "name": "redeemAmount",
          "type": "uint256"
        }
      ],
      "name": "redeemUnderlying",
      "outputs": [
        {
          "internalType": "uint256",
          "name": "",
          "type": "uint256"
        }
      ],
      "stateMutability": "nonpayable",
      "type": "function"
    },
    {
      "inputs": [
        {
          "internalType": "address",
          "name": "account",
          "type": "address"
        }
      ],
      "name": "balanceOfUnderlying",
      "outputs": [
        {
          "internalType": "uint256",
          "name": "",
          "type": "uint256"
        }
      ],
      "stateMutability": "nonpayable",
      "type": "function"
    }
  ],
  "bytecode": "0x608060405234801561001057600080fd5b5061023e806100206000396000f3fe608060405234801561001057600080fd5b50600436106100415760003560e01c80633af9e66914610046578063852a12e314610076578063a0712d68146100a6575b600080fd5b610060600480360381019061005b919061014e565b6100d6565b60405161006d9190610194565b60405180910390f35b610090600480360381019061008b91906101db565b6100dd565b60405161009d9190610194565b60405180910390f35b6100c060048036038101906100bb91906101db565b6100e4565b6040516100cd9190610194565b60405180910390f35b6000919050565b6000919050565b6000919050565b600080fd5b600073ffffffffffffffffffffffffffffffffffffffff82169050919050565b600061011b826100f0565b9050919050565b61012b81610110565b811461013657600080fd5b50565b60008135905061014881610122565b92915050565b600060208284031215610164576101636100eb565b5b600061017284828501610139565b91505092915050565b6000819050919050565b61018e8161017b565b82525050565b60006020820190506101a96000830184610185565b92915050565b6101b88161017b565b81146101c357600080fd5b50565b6000813590506101d5816101af565b92915050565b6000602082840312156101f1576101f06100eb565b5b60006101ff848285016101c6565b9150509291505056fea264697066735822122070a445d6e98904d83e9478c49ab7ae361a2bb0b6a1f4c7b36d25550eec52346264736f6c63430008110033",
  "immutableReferences": {},
  "source": "// SPDX-License-Identifier: MIT\r\npragma solidity ^0.8.0;\r\npragma experimental ABIEncoderV2;\r\n\r\ncontract VToken {\r\n    // No implementation, just the function signature. This is just so Solidity can work out how to call it.\r\n    \r\n    /*\r\n    * @notice   The mint function transfers an asset into the protocol, which begins accumulating interest\r\n    * based on the current Supply Rate for The user receives a quantity of vTokens equal to the\r\n    * underlying tokens tokens supplied, divided by the current Exchange Rate.\r\n    * msg.sender: The account which shall supply the asset, and own the minted vTokens.\r\n    * @param    mintAmount The amount of the asset to be supplied, in units of the underlying asset.\r\n    * @return   status 0 on success, otherwise an Error code\r\n    */\r\n    function mint(uint mintAmount) public returns (uint) {}\r\n    \r\n    /*\r\n    * @notice   The redeem underlying function converts vTokens into a specified quantity of the underlying asset, \r\n    * and returns them to the user. The amount of vTokens redeemed is equal to the quantity of underlying tokens received, \r\n    * divided by the current Exchange Rate. The amount redeemed must be less than the user's Account Liquidity \r\n    * and the market's available liquidity.\r\n    * msg.sender: The account to which redeemed funds shall be transferred.\r\n    * @param    redeemAmount The amount of underlying to be redeemed.\r\n    * @return   status 0 on success, otherwise an Error code\r\n    */\r\n    function redeemUnderlying(uint redeemAmount) public returns (uint) {}\r\n    \r\n    /*\r\n    * @notice   The user's underlying balance, representing their assets in the protocol,\r\n    * is equal to the user's vToken balance multiplied by the Exchange Rate.\r\n    * @param    account The account to get the underlying balance of.\r\n    * @return   The amount of underlying currently owned by the account.\r\n    */\r\n    function balanceOfUnderlying(address account) public returns (uint) {}\r\n    \r\n    \r\n    // function exchangeRateCurrent() returns (uint) {}\r\n    //exchangeRate = (getCash() + totalBorrows() - totalReserves()) / totalSupply()\r\n}",
  "sourcePath": "D:\\CSDN\\github\\SmartBet\\contracts\\VToken.sol",
  "compiler": {
    "name": "solc",
    "version": "0.8.17+commit.8df45f5f.Emscripten.clang"
  },
  "schemaVersion": "3.4.6",
  "updatedAt": "2022-11-07T11:18:53.253Z",
  "devdoc": {
    "kind": "dev",
    "methods": {},
    "version": 1
  },
  "userdoc": {
    "kind": "user",
    "methods": {},
    "version": 1
  }
}